:020000040800F2
:1000000028220020250500082D0500082F050008DE
:100010003105000833050008350500080000000020
:1000200000000000000000000000000009020008BD
:100030003905000800000000AD0200080D030008AB
:100040003F0500083F0500083F0500083F05000880
:100050003F0500083F0500083F0500083F05000870
:100060003F0500083F0500083F0500083F05000860
:100070003F0500083F0500083F0500083F05000850
:100080003F0500083F0500083F0500083F05000840
:100090003F0500083F0500083F0500083F05000830
:1000A0003F0500083F0500083F0500083F05000820
:1000B0003F0500083F0500083F0500083F05000810
:1000C0003F0500083F0500083F0500083F05000800
:1000D0003F0500083F0500083F0500083F050008F0
:1000E0003F0500083F0500083F0500083F050008E0
:1000F0003F0500083F0500083F0500083F050008D0
:100100003F0500083F0500083F0500083F050008BF
:100110003F0500083F0500083F0500083F050008AF
:100120003F0500083F0500083F0500083F0500089F
:100130003F0500083F0500083F0500083F0500088F
:100140003F0500083F0500083F0500083F0500087F
:100150003F0500083F0500083F0500083F0500086F
:100160003F0500083F0500083F0500083F0500085F
:100170003F0500083F0500083F0500083F0500084F
:100180003F0500083F050008DFF814D002F072FCBC
:100190000021024803F06CFAFEE700001845000851
:1001A0002822002080F309887047684680F3098878
:1001B00004480078C00714BF0220032080F314888D
:1001C00070470000E0440008DFF818C0EFF3058333
:1001D0001B0618BF6047EFF31483DB0708BF6047B7
:1001E00000DF704785370008DFF818C0EFF305839C
:1001F0001B0618BF6047EFF31483DB0708BF604797
:1002000000DF704769390008EFF30980816911F850
:10021000021C002933D190E80F1010B5E047BDE86B
:100220001040EFF3098C8CE807001D4B93E80600A3
:10023000914208BF704781B11EF0100F06BF2CED30
:10024000108A0120002081F820002CE9F00FC1F86D
:1002500024C00CB403F056FE0CBC1A60D2F824C0C3
:10026000BCE8F00F92F8200000281ABFBCEC108AFE
:100270006FF0120E6FF0020E8CF30988704710B504
:10028000084A1268914209D8074C54F8214090E876
:100290000F10A047EFF3098C8CE80F0010BD000091
:1002A00050000020FC2A0008FC2A000810B503F0CA
:1002B00001FDBDE81040174B93E80600914208BFCE
:1002C0007047EFF3098C1EF0100F06BF2CED108A5B
:1002D0000120002081F820002CE9F00FC1F824C093
:1002E0000CB403F00FFE0CBC1A60D2F824C0BCE8BA
:1002F000F00F92F8200000281ABFBCEC108A6FF0B3
:10030000120E6FF0020E8CF30988704710B503F0DF
:10031000BFFECEE7500000200CB5002001900090F9
:100320007548006840F480307349086000BF724827
:10033000006800F4003000900198401C0190009883
:1003400018B90198B0F5A06FF1D16B48006810F4AE
:10035000003F02D00120009001E0002000900098B2
:10036000012845D164484030006840F0805062491F
:10037000403108606148006840F480405F4908608F
:100380005D48083000685C4908310860084600682C
:1003900040F4004008600846006840F4A05008603F
:1003A0005748091F0860081F006840F08070091F47
:1003B000086000BF5048006810F0007FFAD040F29B
:1003C0000560504908604C480830006820F0030080
:1003D0004949083108600846006840F0020008609A
:1003E00000BF45480830006800F00C000828F8D12C
:1003F0000CBD10B54448006840F4700042490860E4
:100400003D48006840F001003B49086000203A493F
:1004100008310860384800683C490840364908609F
:100420003B48091D0860081F006820F48020091F50
:100430000860002030490C310860FFF76DFF4FF075
:10044000006031498039086010BD70B5002000227D
:10045000022300240221284D08352D6805F00C00E8
:1004600020B1042806D0082834D107E0294D2A4EAF
:10047000356033E0294D284E35602FE01E4D2D1D8F
:100480002D68C5F380541C4D2D1D2D6805F03F01CE
:1004900054B1224DB5FBF1F5174E361D3668C6F343
:1004A000881605FB06F209E01A4DB5FBF1F5124E70
:1004B000361D3668C6F3881605FB06F20E4D2D1D57
:1004C0002D68C5F301456D1C6B00B2FBF3F5124EB0
:1004D000356003E00F4D104E356000BF00BF064D84
:1004E00008352D68C5F303150D4E705D0A4D2D6856
:1004F000C540094E356070BD0038024000700040B4
:1005000008544007003C024088ED00E0FFFFF6FE83
:10051000103000240024F4000000002000127A00B3
:10052000040000200648804706480047FEE7FEE733
:10053000FEE7FEE7FEE7FEE7FEE7FEE7FEE7FEE793
:10054000F30300088901000800BFFEE700BFFEE7D3
:1005500000F0D2FB04462146F7A002F0D1FA4FF496
:100560007A7003F079F800F0B3FAF8A002F0C8FA54
:100570000021FE4803F0D2F80021FD4803F0CEF838
:1005800003E04FF0FF3003F067F8FAE72DED028B40
:100590009FEDF80AB0EE408AB0EE040AF0EE408A11
:1005A00009E0F0EE680AB0EE480A00F0C0FB4FF434
:1005B0007A7003F051F8F4E72DED048B86B0342106
:1005C000012001F003FC05462946EBA002F098FA51
:1005D0004FF4FA7003F040F81EE004A905A800F0FB
:1005E000E1FB0446049802F016F841EC100BB0EE63
:1005F000408AF0EE608A059802F00DF841EC100B8D
:10060000B0EE409AF0EE609A02948DED008B53ECC0
:10061000192BDEA002F074FADFE70AE0E648D0ED1D
:10062000000AE64890ED000A00F081FB322003F05A
:1006300013F8F3E770472DED108B8AB01024254690
:10064000A80002F0D3FF81462246494604A800F0E4
:10065000FDFA00BF2646B00002F0C8FF82462246DF
:100660005146684600F0F2FA07E20122282108A864
:1006700001F016FD012229210DF1210001F010FDEC
:1006800001222A210DF1220001F00AFD01222B2175
:100690000DF1230001F004FD01222C2109A801F035
:1006A000FFFC01222D210DF1250001F0F9FC9DF840
:1006B00020009DF8211040EA012009EE900AB8EED2
:1006C000E90A10EE100A01F0A6FF41EC100BB0EEA3
:1006D00040BAF0EE60BA9FEDBA0B53EC102B51EC20
:1006E0001B0B01F0B7FE41EC100BB0EE40AAF0EE90
:1006F00060AA51EC1A0B01F0A1FF08EE900A9DF8D8
:1007000022009DF8231040EA012009EE900AB8EE7D
:10071000E90A10EE100A01F07EFF41EC100BB0EE7A
:1007200040BAF0EE60BA9FEDA60B53EC102B51ECE3
:100730001B0B01F08FFE41EC100BB0EE40AAF0EE67
:1007400060AA51EC1A0B01F079FF09EE100A9DF82E
:1007500024009DF8251040EA012009EE900AB8EE29
:10076000E90A10EE100A01F056FF41EC100BB0EE52
:1007700040BAF0EE60BA9FED920B53EC102B51ECA7
:100780001B0B01F067FE41EC100BB0EE40AAF0EE3F
:1007900060AA51EC1A0B01F051FF08EE100A002775
:1007A000B8469FED890AF4EEC08AF1EE10FA06DD34
:1007B0009FED860A30EE680AF0EE408A01279FED31
:1007C000820AB4EEC09AF1EE10FA07DD9FED7F0ABF
:1007D00030EE490AB0EE409A4FF00108CFB329EE4F
:1007E000090A08EE080A10EE101A084601F013FF75
:1007F00041EC100BB0EE40DAF0EE60DA02F090F966
:10080000B0EE40BAF0EE60BA18EE900A01F003FFC5
:1008100041EC100BB0EE40CAF0EE60CA53EC1B2B5B
:1008200051EC1C0B01F088FE41EC100BB0EE40AA1D
:10083000F0EE60AA51EC1A0B01F000FF0FEE100A67
:10084000B0EE4F0A00F07EF9B1EE400AB0EE40EA99
:1008500037E0FFE729EE090A08EE080A10EE101A41
:10086000084601F0D8FE41EC100BB0EE40DAF0EE95
:1008700060DA02F055F9B0EE40BAF0EE60BA18EE68
:10088000900A01F0C8FE41EC100BB0EE40CAF0EE49
:1008900060CA53EC1B2B51EC1C0B01F04DFE41ECDC
:1008A000100BB0EE40AAF0EE60AA51EC1A0B01F06A
:1008B000C5FE0FEE100AB0EE4F0A00F043F9B0EE9D
:1008C00040EAB8F1000F35D028EEA80A08EE080A71
:1008D00010EE101A084601F09EFE41EC100BB0EE2F
:1008E00040DAF0EE60DA02F01BF9B0EE40BAF0EE5A
:1008F00060BA19EE100A01F08EFE41EC100BB0EE5A
:1009000040CAF0EE60CA53EC1B2B51EC1C0B01F0FB
:1009100013FE41EC100BB0EE40AAF0EE60AA51ECD1
:100920001A0B01F08BFE0FEE100AB0EE4F0A00F02A
:1009300009F94DE051E00000434332353030205298
:10094000656164792028257829200A005472616E37
:10095000736D6974746572207374617274696E6703
:100960002074687265616473200A000028450008DD
:1009700048450008CDCC8C3F4D6F76656420746F80
:100980002052582028257829200A00005245414449
:100990003A205069746368203D2025662020526FFC
:1009A0006C6C203D2025662020436F6E74726F6C46
:1009B000203D202578200A00280000202400002067
:1009C00008AC1C5A643BAF3F0000FA4400007A4573
:1009D000B1EE400AF0EE40EA36E028EEA80A08EE52
:1009E000080A10EE101A084601F015FE41EC100B33
:1009F000B0EE40DAF0EE60DA02F092F8B0EE40BA13
:100A0000F0EE60BA19EE100A01F005FE41EC100B91
:100A1000B0EE40CAF0EE60CA53EC1B2B51EC1C0B3D
:100A200001F08AFD41EC100BB0EE40AAF0EE60AA96
:100A300051EC1A0B01F002FE0FEE100AB0EE4F0A55
:100A400000F080F8F0EE40EA04A9BDEECE0A10EE08
:100A5000100A00B200F01CF9084880ED000A69464F
:100A6000BDEEEE0A10EE100A00B200F011F90448D3
:100A700080ED000A322002F0EFFDF6E524000020B0
:100A8000280000201149096811F0010F0ED00F490C
:100A90008039096811F0010F08D000BF4FF06041A4
:100AA00009680029FAD04FF060421070704770B5A5
:100AB00004460D462046FFF7E5FF70BD10B504461D
:100AC0002046FFF7DFFF10BD00BFFEE7800E00E00D
:100AD0000EB560208DF8040008208DF80600002077
:100AE0008DF808008DF8090001A801F0BCFA672014
:100AF000009001222021684601F005FAC8200090EC
:100B000001222321684601F0FEF9C0200090012255
:100B10002421684601F0F7F9F62000900122102107
:100B2000684601F0F0F9F420009001221121684696
:100B300001F0E9F90A20009001221221684601F033
:100B4000E2F90EBDF0EE400AF5EEC00AF1EE10FA41
:100B50003AD29FED3A1A20EEC10A9FED381AB4EE50
:100B6000C10AF1EE10FA20DD9FED351AB4EEC10A8C
:100B7000F1EE10FA03DD9FED311AB0EE410ABCEE42
:100B8000C01A11EE101A88B242F2107191FBF0F106
:100B900088B22C4901EB800191ED001ADFED2A1A91
:100BA00031EE611AB0EE410A46E0BCEEC01A11EE19
:100BB000101A88B2234901EB800191ED001AB1EEC1
:100BC000411AB0EE410A37E09FED1C1A20EE810A6F
:100BD0009FED1A1AB4EEC10AF1EE10FA20DD9FED76
:100BE000181AB4EEC10AF1EE10FA03DD9FED131AE4
:100BF000B0EE410ABCEEC01A11EE101A88B242F2F1
:100C0000107191FBF0F188B20E4901EB800191ED7A
:100C1000001ADFED0D1A31EEC11AB0EE410A0BE0F9
:100C2000BCEEC01A11EE101A88B2064901EB800121
:100C300091ED001AB0EE410A704700000000C84272
:100C400000401C46584500080000B44210B500237F
:100C500003E0002441F823405B1C9342F9DB016070
:100C600042600024048100EE102AB8EEC00AF7EEBC
:100C7000000A70EE200A00EE102AB8EEC00A20EE3C
:100C8000800AF0EE000A80EE201A80ED031A10BDF3
:100C9000F0B505460F890E6846F8275048680E895A
:100CA000761C96FBF0F700FB17640E89864201D193
:100CB00000260E81002300220AE00E6856F82470F8
:100CC000561C06FB0733641C844200D10024521CCE
:100CD0008242F2DB0E89761C0E810E89864201D19A
:100CE00000260E81D1ED030A00EE103AB8EEC01ACC
:100CF00081EE200AF0BD000008B5684600F00FFF45
:100D00003021012001F062F800BF3D21012001F0F7
:100D10005DF810F0800FF8D100F05AFF4FF47A70B0
:100D200002F09AFC3D21012001F050F808BD30B5D9
:100D30002DED028B83B0B0EE408AF0EE608A8DED2F
:100D4000008ACDED018A01208DF8080002208DF87F
:100D500009006C460A223F21204600F01CFF352185
:100D6000012001F033F80546294631A001F0C8FE04
:100D7000142002F071FC03B0BDEC028B30BD10B545
:100D80003D21012001F022F8044607E0322002F064
:100D900063FC3D21012001F019F8044614F0700FA6
:100DA000F4D110BD2DE9FC5F06460F46FFF7E7FFC3
:100DB0000122FB2101A801F03FF89DF8040000F09A
:100DC0007F0001909DF80490484602F00FFC044615
:100DD0009DF804203F21204601F02EF89DF80400E4
:100DE000801EC0B20190254695ED000A86ED000AEE
:100DF00095ED010A87ED000A95F808B0687A009031
:100E000094F808A03421012000F0E0FFD0462046ED
:100E100002F07EFB4046BDE8FC9F10B53D2101205D
:100E200000F0D4FF0446214606A001F069FE10BD83
:100E30004D6F76656420746F2054582028257829DA
:100E4000200A0000537461747573202825782920C6
:100E50000A00000010B504468C48844208D10121E4
:100E6000084600F000FB0021012000F0FCFA5EE0E3
:100E70008748844208D10121022000F0F4FA0021C1
:100E8000022000F0F0FA52E08248844208D10121A9
:100E9000042000F0E8FA0021042000F0E4FA46E023
:100EA0007D48844208D10121082000F0DCFA0021AD
:100EB000082000F0D8FA3AE07848844208D10121AD
:100EC000102000F0D0FA0021102000F0CCFA2EE023
:100ED0007348844208D10121202000F0C4FA002187
:100EE000202000F0C0FA22E06E48844208D101219F
:100EF000402000F0B8FA0021402000F0B4FA16E0DB
:100F00006948844208D10121802000F0ACFA002118
:100F1000802000F0A8FA0AE06448844207D1012149
:100F2000801500F0A0FA0021A01500F09CFA10BD79
:100F3000F0B50A4600210023002400BF3DE0012552
:100F400005FA01F3156805EA03049C4234D10568EB
:100F50004F000326BE40B543056015794E00B540ED
:100F60000668354305601579012D02D01579022DEB
:100F700016D185684F000326BE40B543856055797C
:100F80004E00B540866835438560456801268E4031
:100F9000B5434560456896798E40B6B235434560A5
:100FA000C5684F000326BE40B543C560D5794E00E5
:100FB000B540C6683543C560491C1029BFD3F0BD94
:100FC0004FF6FF7101600021017141718171C171A2
:100FD000704708B54FF480320092009A0A4300929D
:100FE000009AC261C161009AC261C2690092C2697D
:100FF000009208BD0246002013690B4201D0012077
:1010000000E0002070470146086980B27047024640
:10101000002053690B4201D0012000E000207047FE
:101020000146486980B27047018370474183704729
:101030000AB1018300E04183704741617047426912
:101040004A4042617047F0B5002300244D07ED0E81
:1010500002FA05F3CE1000F1200555F826504E0790
:10106000F70E0F26BE40B543CF1000F1200646F81C
:101070002750CE1000F1200555F8265045EA03040C
:10108000CE1000F1200545F82640F0BD00000240DA
:101090000004024000080240000C02400010024020
:1010A0000014024000180240001C024000200240D0
:1010B000FA48006840F00100F84908600020F7494C
:1010C00008310860F5480068F5490840F3490860B0
:1010D000F448091D0860081F006820F48020091FDB
:1010E00008600020ED490C31086070470021EB4A90
:1010F000921C117011460870704710B5014600220D
:10110000002300204A11012A02D1E44C236808E0A0
:10111000022A03D1E14C7034236802E0DF4C7434BE
:10112000236801F01F02012494401C4201D00120D9
:1011300000E0002010BD38B50020009000240025FC
:1011400000BF3120FFF7D9FF05460098401C0090F2
:101150000098B0F5A06F01D0002DF2D03120FFF73C
:10116000CCFF08B1012400E00024204638BD014630
:101170000020CA4A106820F0F80040EAC100106060
:101180007047C949086070470021C44A7032117025
:101190001170012802D004280AD104E00121BF4ABD
:1011A0007032117005E00521BC4A7032117000E008
:1011B00000BF00BF7047BD490860704770B5049C10
:1011C00041EA82150126C6EB530645EA064505436A
:1011D00045EA0465B14E361D356070BDB2490866FA
:1011E0007047820142EA0172AC4B84331A60704747
:1011F000AD4988667047AC49C86470470246002014
:10120000A64B0833186820F0EC6042EA010318434B
:10121000A24B083318607047024600209F4B0833EA
:10122000186820F0784042EA010318439B4B0833CA
:101230001860704701460020984A0832106820F074
:10124000030008431060704794480830006800F0BD
:101250000C00704701460020904A0832106820F0C8
:10126000F000084310607047014600208B4A0832A6
:10127000106820F4E05008431060704701460020D9
:10128000864A0832106820F4604040EAC1001060CD
:101290007047F0B500210022002402250026022319
:1012A0007E4F08373F6807F00C0121B1042905D0B3
:1012B000082937D105E07E4F076036E07D4F076093
:1012C00033E0764F3F1D3F68C7F38056734F3F1D95
:1012D0003F6807F03F036EB1764FB7FBF3F7DFF8D7
:1012E000BCC10CF1040CDCF800C0CCF3881C07FB7B
:1012F0000CF40CE06E4FB7FBF3F7DFF8A0C10CF174
:10130000040CDCF800C0CCF3881C07FB0CF4634F22
:101310003F1D3F68C7F301477F1C7D00B4FBF5F715
:10132000076002E0624F076000BF00BF5B4F0837F5
:101330003F6807F0F00109095F4F7A5C0768D74002
:101340004760564F08373F6807F4E051890A5A4F03
:101350007A5C4768D7408760504F08373F6807F48A
:101360006041490B544F7A5C4768D740C760F0BD75
:10137000002100F44072B2F5407F0AD1474A08329A
:10138000116821F4F8114D4A02401143434A0832D2
:101390001160424A70321268C0F30B031A433F4B8C
:1013A00070331A60704741494439086070473F49BB
:1013B00040390860704742490860704739B1374A80
:1013C000303212680243354B30331A6006E0334A3C
:1013D000303212688243314B30331A60704739B172
:1013E0002E4A3432126802432C4B34331A6006E022
:1013F0002A4A343212688243284B34331A607047C9
:1014000039B1264A383212680243244B38331A6005
:1014100006E0224A383212688243204B38331A6081
:10142000704739B11D4A4032126802431B4B4033AA
:101430001A6006E0194A403212688243174B403363
:101440001A60704739B1154A443212680243134B8F
:1014500044331A6006E0114A4432126882430F4B4B
:1014600044331A60704739B10C4A10321268024393
:101470000A4B10331A6006E0084A103212688243A1
:10148000064B10331A607047E1B1044A14321268F7
:101490000243024B14331A6019E000000038024086
:1014A000FFFFF6FE1030002400004742800E474246
:1014B0000024F40000127A0034000020FFFCFF0F2B
:1014C0005C0147425B4A126882435A4B1A6070477C
:1014D00039B1584A121D12680243564B1B1D1A603F
:1014E00006E0544A121D12688243524B1B1D1A60BB
:1014F000704739B14F4A0C32126802434D4B0C33DE
:101500001A6006E04B4A0C3212688243494B0C3396
:101510001A60704739B1474A103212680243454B8E
:1015200010331A6006E0434A103212688243414B7E
:1015300010331A60704739B13E4A3C321268024398
:101540003C4B3C331A6006E03A4A3C321268824314
:10155000384B3C331A60704739B1364A4032126812
:101560000243344B40331A6006E0324A403212687C
:101570008243304B40331A60704739B12D4A4432B0
:10158000126802432B4B44331A6006E0294A443266
:1015900012688243274B44331A60704739B1254A99
:1015A0004C3212680243234B4C331A6006E0214A46
:1015B0004C32126882431F4B4C331A60704739B16A
:1015C0001C4A5032126802431A4B50331A6006E02C
:1015D000184A503212688243164B50331A607047D3
:1015E00039B1144AD21F12780243124BDB1F1A7012
:1015F00006E0104AD21F127882430E4BDB1F1A708E
:1016000070470C486030006840F0807009496031D4
:101610000860704701460020064A083A12680A42EC
:1016200001D0012000E0002070470249891F0870A6
:10163000704700001438024010B50446F648844252
:1016400008D101218014FFF765FF0021A014FFF7E6
:1016500061FF16E0F148844208D101210014FFF730
:1016600048FF00212014FFF744FF0AE0EC488442C1
:1016700007D10121C013FFF73CFF0021E013FFF762
:1016800038FF10BD10B50022028802F441520B88C9
:101690004C8823438C882343CC8823430C892343E1
:1016A0004C8923438C892343CC8923431A430280EA
:1016B000838B4FF2FF74234083830B8A038210BD18
:1016C0002DE9F04F002502230024012700220026E7
:1016D000944690469146B0F81CA04FF2400B0AEA9F
:1016E0000B0AA0F81CA04FF0020AA0F820A0858BDE
:1016F000D1F808A0BAF1020F01D100BF6AE0B1F839
:1017000004A0BAF1000F01D1012700E00227DFF8A1
:1017100014A3DAF800A01AF4000F09D0DFF804A32C
:10172000DAF800A02AF4000ADFF8F8B2CBF800A03B
:10173000DFF8F0A20AF17C0ADAF800A0CAF38818F0
:10174000DFF8E0A20AF17C0ADAF800A0CAF3027915
:10175000DFF8D0A2AAF1040ADAF800A00AF03F0CE0
:10176000DFF8C4A2BAFBFCFA0AFB08FABAFBF9F6E6
:10177000B1F806A0BAF5007F0ED14FEA162A0AEB9F
:101780008A0A4FEA4A0AD1F808B0BAFBFBFA0AF112
:10179000050A1FFA8AF20FE04FEA471AB6FBFAFA77
:1017A0000AEB8A0A4FEA4A0AD1F808B0BAFBFBFAF8
:1017B0000AF1050A1FFA8AF24FF00A0AB2FBFAF29E
:1017C00002F00104A2EB040ACAF34F034FF6FF7ABA
:1017D0000AEA0424022B01DBFF2B01DD0223002493
:1017E000B1F806A04AEA040A4AEA030AA0F820A0CF
:1017F000B1F804A0B1F80CB04AEA0B0AB1F802B093
:101800004AEA0B0AB1F800B04AEA0B0A4AF4006A45
:101810004AEA05058583BDE8F08F002101804180FB
:101820008180C180018141818181C1810721018243
:1018300070470021018041808180C1800221816048
:1018400000218181704721B1028842F0400202806C
:1018500004E002884FF6BF731A400280704721B13E
:10186000828B42F48062828304E0828B4FF6FF33E6
:101870001A408283704702884FF2FF731A40028039
:1018800002880A4302807047B1F5804F04D1028874
:1018900042F48042028004E002884BF6FF731A4053
:1018A00002807047A1F57E42FF3A04D0028842F4DC
:1018B0008072028004E002884FF6FF631A400280C3
:1018C000704721B1828842F00402828004E082885D
:1018D0004FF6FB731A408280704721B1828842F034
:1018E0001002828004E082884FF6EF731A408280F3
:1018F000704730B500220023848B4FF240052C4006
:10190000848302240484828B0C88B4F5007F01D088
:101910000C8814B94FF4807308E00C88B4F5407F4C
:1019200003D00C88B4F5807F00D100238C888D898A
:101930002C434D882C431C4344F40064224382838F
:1019400030BD0146888970478181704721B1028886
:1019500042F40052028004E002884DF6FF731A4000
:1019600002807047018841F480510180704702462F
:101970000020012901D0108B00E0908A70470146B9
:10198000088A70471AB183880B43838002E08388FA
:101990008B438380704730B5002400230C11012550
:1019A000A540ABB21AB185881D43858002E08588C9
:1019B0009D43858030BD0246002013890B4201D033
:1019C000012000E000207047CA4302817047F0B553
:1019D0000246002000240023002501F00F07012605
:1019E000BE40B4B20B1101269E40B3B2968806EAFF
:1019F00003051689264202D00DB1012000E0002027
:101A0000F0BD10B5002201F00F040123A3409AB2EB
:101A1000D343038110BD0000003001400038004076
:101A2000003C00400838024000127A0000B587B040
:101A300001218803FFF7F5FC01210220FFF7BEFC1E
:101A400001211020FFF7BAFC05220D21F648FFF70F
:101A5000FAFA05220E21F448FFF7F5FA05220F21C4
:101A6000F148FFF7F0FA02208DF8180000208DF8F9
:101A70001A0002208DF819008DF81B000003059054
:101A800005A9E948FFF754FA4FF40040059005A96D
:101A9000E548FFF74DFA4FF48040059005A9E2486C
:101AA000FFF746FAE148FFF7C7FD0020ADF8000058
:101AB000ADF80400ADF80600ADF808004FF4407032
:101AC000ADF80A000820ADF80C000020ADF80E00BB
:101AD0000720ADF810004FF48270ADF8020069469F
:101AE000D248FFF7CFFD0121D048FFF7ACFE102010
:101AF000059001208DF8180000208DF81A000220B2
:101B00008DF8190001208DF81B0005A9C848FFF7C2
:101B10000FFA1021C648FFF787FA07B000BD10B5CD
:101B20000446FFF783FF10BD0020704710B5044640
:101B30004FF47040BF49086009E0BE490868411E83
:101B4000BC4A116018B9FFF7EFFFC0B210BD022107
:101B5000B648FFF730FF0028EFD02146B348FFF723
:101B6000F3FE4FF47040B349086009E0B1490868DA
:101B7000411EB04A116018B9FFF7D6FFC0B2E5E7C1
:101B80000121AA48FFF717FF0028EFD0A748FFF769
:101B9000D8FEC0B2DAE770B505460E461446012CF1
:101BA00001DD46F040061021A148FFF73FFA30461C
:101BB000FFF7BCFF05E02878FFF7B8FF601E84B28E
:101BC0006D1C012CF7DA10219948FFF72DFA70BD32
:101BD00008B50C20009001220B216846FFF7DBFFBF
:101BE0004820009001220C216846FFF7D4FF5D20B9
:101BF000009001220D216846FFF7CDFF9320009051
:101C000001220E216846FFF7C6FFB1200090012295
:101C10000F216846FFF7BFFF0E2000900122102120
:101C20006846FFF7B8FF3B2000900122112168466B
:101C3000FFF7B1FF73200090012212216846FFF7E1
:101C4000AAFF42200090012213216846FFF7A3FF5C
:101C5000F8200090012214216846FFF79CFF002025
:101C6000009001220A216846FFF795FF00200090AE
:101C7000012215216846FFF78EFFB6200090012251
:101C800021216846FFF787FF1020009001222221C2
:101C90006846FFF780FF3020009001221721684638
:101CA000FFF779FF18200090012218216846FFF7FE
:101CB00072FF1D200090012219216846FFF76BFF7B
:101CC0001C20009001221A216846FFF764FFC720FC
:101CD000009001221B216846FFF75DFF4020009025
:101CE00001221C216846FFF756FFB0200090012218
:101CF0001D216846FFF74FFFEA20009001222321B3
:101D00006846FFF748FF0A20009001222421684618
:101D1000FFF741FF00200090012225216846FFF7D0
:101D20003AFF19200090012226216846FFF733FF71
:101D300059200090012229216846FFF72CFF8820B6
:101D4000009001222C216846FFF725FF31200090EA
:101D500001222D216846FFF71EFF0B200090012273
:101D60002E216846FFF717FF07200090012203216C
:101D70006846FFF710FF29200090012200216846E5
:101D8000FFF709FF06200090012202216846FFF7B5
:101D900002FF04200090012207216846FFF7FBFEA6
:101DA00044200090012208216846FFF7F4FE00203D
:101DB0000090012209216846FFF7EDFE0A200090FD
:101DC000012206216846FFF7E6FE08BD70B505460C
:101DD0000C460DB144F0800410211548FFF726F998
:101DE0002046FFF7A3FE0020FFF7A0FE06461021C5
:101DF0000F48FFF719F9304670BD10B530210120AA
:101E0000FFF7E4FF10BD70B505460C460A2C01D063
:101E1000FF2070BD22463F212846FFF7BCFE35213A
:101E20000120FFF7D3FFF4E7000402400038004030
:101E3000001002404400002070B506460C461546CE
:101E4000012D02DD44F0C00401E044F080041021C3
:101E50001048FFF7EBF82046FFF768FE06E0002089
:101E6000FFF764FE3070681E85B2761C002DF6DC2C
:101E700010210848FFF7D8F870BD70B505460C462C
:101E800022463F212846FFF7D7FF34210120FFF7E4
:101E90009DFF70BD001002400020704710B5044641
:101EA0004FF48050F749086009E0F6490868411E80
:101EB000F44A116018B9FFF7EFFFC0B210BD02215C
:101EC000F148FFF778FD0028EFD02146EE48FFF7F4
:101ED0003BFD4FF48050EB49086009E0E949086890
:101EE000411EE84A116018B9FFF7D6FFC0B2E5E716
:101EF0000121E548FFF75FFD0028EFD0E248FFF73A
:101F000020FDC0B2DAE770B505460E461446012C36
:101F100001DD46F040060821DC48FFF787F830462F
:101F2000FFF7BCFF05E02878FFF7B8FF601E84B21A
:101F30006D1C012CF7DA0821D448FFF775F870BD45
:101F400000B587B001210803FFF77CFA012108469C
:101F5000FFF734FA01211020FFF730FA0121102099
:101F6000FFF72CFA01211020FFF728FA052211466D
:101F7000C748FFF768F805220621C548FFF763F850
:101F800005220721C248FFF75EF802208DF81800ED
:101F900000208DF81A0002208DF81B008DF8190022
:101FA0002020059005A9BA48FEF7C2FF80200590C1
:101FB00005A9B748FEF7BCFF4020059005A9B44825
:101FC000FEF7B6FFB048FFF737FB0020ADF8000082
:101FD000ADF80400ADF80600ADF808004FF400704D
:101FE000ADF80A000820ADF80C000020ADF80E0096
:101FF0000720ADF810004FF48270ADF8020069467A
:10200000A148FFF73FFB01219F48FFF71CFC082078
:10201000059001208DF8180000208DF81A0002208C
:102020008DF8190005A99948FEF782FF0821974805
:10203000FEF7FAFF0120059000208DF818008DF8BA
:102040001A0002208DF8190000208DF81B0005A948
:102050008E48FEF76DFF0220059005A98B48FEF71C
:1020600067FF07B000BD38B5044600200090FFF7B9
:1020700067FF2078A1780843617808430090012227
:1020800020216846FFF73FFFE07821790843617916
:1020900008430090012224216846FFF734FF38BD31
:1020A00070B506460C461546012D02DD44F0C0040D
:1020B00001E044F0800408217448FEF7B7FF204691
:1020C000FFF7ECFE06E00020FFF7E8FE3070681E28
:1020D00085B2761C002DF6DC08216C48FEF7A4FFC3
:1020E00070BD38B5044600200090012223216846C7
:1020F000FFF7D6FF207861780843A1780843009065
:10210000012223216846FFF7FEFE38BD08B50122F3
:1021100020216846FFF7C4FF9DF8000000F00F0083
:1021200000909DF800000090012220216846FFF7F2
:10213000EAFE08BD38B50446012220216846FFF7B3
:10214000AFFF9DF8000000F00F0000909DF8000028
:1021500020430090012220216846FFF7D4FE38BDBD
:1021600038B50446012224216846FFF799FF9DF8FF
:10217000000000F0C70000909DF800002043009090
:10218000012224216846FFF7BEFE38BD30B52DED93
:10219000068B87B005460024002008EE100A0122B5
:1021A000102103A8FFF77CFF0122112102A8FFF7ED
:1021B00077FF0122122101A8FFF772FF01222421DB
:1021C00004A8FFF76DFF0122282105A8FFF768FF8B
:1021D000012229210DF11500FFF762FF01222A21BA
:1021E0000DF11600FFF75CFF01222B210DF1170006
:1021F000FFF756FF01222C2106A8FFF751FF01220D
:102200002D210DF11900FFF74BFF9DF81000C0F3D1
:10221000C200052873D2DFE800F0034173A4D500A3
:1022200000242BE005A8015D05AA601C105C41EAB2
:10223000002000B208EE100AB8EEC80A10EE100A2C
:1022400000F0E9F941EC100BB0EE40AAF0EE60AA04
:102250009FED100B53EC102B51EC1A0B00F0FAF819
:1022600041EC100BB0EE409AF0EE609A51EC190B75
:1022700000F0E4F928602D1DA01CC4B2062CD1DBAF
:10228000D2E0000048000020003001400010024071
:102290000000024008AC1C5A643BAF3F00242BE016
:1022A00005A8015D05AA601C105C41EA002000B28F
:1022B00008EE100AB8EEC80A10EE100A00F0ABF9EA
:1022C00041EC100BB0EE40AAF0EE60AA9FED590B66
:1022D00053EC102B51EC1A0B00F0BCF841EC100B36
:1022E000B0EE409AF0EE609A51EC190B00F0A6F9AE
:1022F00028602D1DA01CC4B2062CD1DB94E092E016
:1023000000242BE005A8015D05AA601C105C41EAD1
:10231000002000B208EE100AB8EEC80A10EE100A4B
:1023200000F079F941EC100BB0EE40AAF0EE60AA93
:102330009FED420B53EC102B51EC1A0B00F08AF876
:1023400041EC100BB0EE409AF0EE609A51EC190B94
:1023500000F074F928602D1DA01CC4B2062CD1DB3E
:1023600062E000242BE005A8015D05AA601C105C5A
:1023700041EA002000B208EE100AB8EEC80A10EEDA
:10238000100A00F048F941EC100BB0EE40AAF0EE54
:1023900060AA9FED2C0B53EC102B51EC1A0B00F0A4
:1023A00059F841EC100BB0EE409AF0EE609A51EC07
:1023B000190B00F043F928602D1DA01CC4B2062C97
:1023C000D1DB31E000242BE005A8015D05AA601CEB
:1023D000105C41EA002000B208EE100AB8EEC80A0C
:1023E00010EE100A00F017F941EC100BB0EE40AA05
:1023F000F0EE60AA9FED150B53EC102B51EC1A0B6D
:1024000000F028F841EC100BB0EE409AF0EE609A24
:1024100051EC190B00F012F928602D1DA01CC4B25C
:10242000062CD1DB00E000BF00BF07B0BDEC068B7F
:1024300030BD000008AC1C5A643BBF3F0681954389
:102440008B6CC73F08AC1C5A643BCF3F08AC1C5A8E
:10245000643BDF3F2DE9FE4F81EA030404F00044B2
:1024600021F0004100944FF0000B23F0004350EAAC
:10247000010402D052EA030404D10020014603B053
:10248000BDE8F08FC3F30A54C1F30A552C44A4F2FB
:10249000F3340194A0FB0254C1F3130141F4801101
:1024A000C3F3130343F4801301FB024400FB034E08
:1024B000840A970A44EA815447EA8357A4FB0768D1
:1024C00002958D0A05FB07854FEA932C04FB0C54FB
:1024D0002705029D4FEA065847EA1637B5EB08056F
:1024E0006EEB070C870E920E47EA811742EA8312C1
:1024F000A7FB0201B6EB0B0164EB00042B0D43EAD2
:102500000C335E1844EB1C50DA465146E7FB0201DF
:10251000C5F313044FEA0B3343EA14534FEA043272
:10252000019C43EA0603A4F10C040294009CCDE94B
:1025300000B400F029F9A2E72DE9F04D81EA030487
:1025400004F0004B21F0004514464FF0000A23F040
:10255000004150EA050220D054EA01021DD0C5F323
:102560000A570246C5F31303C1F31300C1F30A5619
:1025700040F4801543F48013A7EB0608101BD646E1
:1025800008F2FD3873EB050002D308F1010801E001
:1025900092185B41B8F1000F03DA00200146BDE854
:1025A000F08D00204FF48011064684460EE0171B84
:1025B00073EB050705D3121B63EB050306434CEAD7
:1025C000010C49084FEA300092185B4150EA0107BC
:1025D000EDD152EA030012D082EA040083EA050139
:1025E000084303D100224FF0004308E0101BAB4129
:1025F00002D20122002302E06FF0010253101AEB15
:1026000006004CEB085110EB0A0041EB0B01BDE852
:10261000F04D00F0ACB800F0004230F000400AD0BD
:10262000C10D01F56071C0F3160042EA0151C20804
:1026300040071143704700200146704701F00043F6
:1026400030B421F0004150EA010206D00A0DA2F593
:102650006072C1F31301002A02DC30BC0020704715
:10266000440F44EAC104C100E01830BC00EBC25082
:1026700000F047B830B50B46014600202022012467
:1026800009E021FA02F59D4205D303FA02F5491B40
:1026900004FA02F52844151EA2F10102F1DC30BD56
:1026A0002DE9F05F0546002092469B468846064687
:1026B000814640241BE0284641464746224600F01A
:1026C000FAF953465A46C01A914110D3114618469A
:1026D000224600F0E1F92D1A67EB01084F46224629
:1026E0000120002100F0D8F917EB00094E41201E0F
:1026F000A4F10104DFDC484631462A464346BDE8E2
:10270000F09F0029A8BF7047401C490008BF20F077
:102710000100704710B4B0FA80FC00FA0CF050EAE7
:10272000010404BF10BC704749B1CCF1200421FA68
:1027300004F411FA0CF118BF012121430843A3EB63
:102740000C01CB1D0106000A002BBEBF002010BCEF
:10275000704700EBC35010440029A4BF10BC704761
:10276000401C490008BF20F0010010BC704710B5A4
:10277000002B08DA401C41F1000192185B411A431A
:1027800001D120F0010010BD2DE9F04D92469B468D
:1027900011B1B1FA81F202E0B0FA80F22032904633
:1027A00000F07AF904460F4640EA0A0041EA0B01BC
:1027B00053465A46084303D120463946BDE8F08DBA
:1027C000114653EA010015D0C8F14002504600F00E
:1027D00072F905460E4650465946424600F05CF9ED
:1027E000084301D0012000E00020054346EAE076DE
:1027F0002C4337430A984FEA4453A0EB08004FEAB2
:10280000D4240A304FF0000244EA47544FEAD72557
:1028100002D500200146D1E7010510196941DDE923
:10282000084500196941BDE8F04DA0E72DE9FE4FCC
:10283000804681EA0300C00F0C46009021F0004161
:1028400023F00045B8EB0200A94105D240462146DD
:1028500090461C460B46024623F00040104304D12C
:102860004046214603B0BDE8F08F270DC7F30A00AC
:10287000C3F30A510290401A0190402866DAC3F36C
:10288000130040F4801B0098924620B10023D2EB45
:10289000030A63EB0B0B01985946C0F14002504606
:1028A00000F0FAF806460D4650465946019A00F0E7
:1028B00012F910EB08006141002487EA115284EA02
:1028C000E7731A433BD0009A3AB3019A012A4FEAC0
:1028D000075210DC001B61EB02014FF0004202EADC
:1028E0000752CDE90042001C41F5801132462B46CB
:1028F000FFF74AFFB6E7001B61EB0201001C41F540
:10290000801300185B412018A2F5001747EB030164
:1029100040EAD570B6196D4111E06D084FEA3606F0
:1029200045EAC0754FEA0752001B61EB0201001C2B
:1029300041F5801149084FEA3000001951413246F3
:102940002B4603B0BDE8F04FFFF711BF00980122FE
:1029500040000023D0EB020263EBE07300982146B5
:102960004FEAE074B8EB000061EB0401E9E783F0A3
:1029700000435BE781F0004158E72DE9F04D00236B
:102980001A461B1A8A4103DB00200146BDE8F08D80
:10299000C1F30A52C1F3130141F480154FF0000B4B
:1029A000D10702D100186D41521E0027044640F2A3
:1029B000FF11384601EB620A3E468046024600207F
:1029C0004FF4801100F077F8C2197141BB1846EB43
:1029D0000100B4EB030C75EB000C04D3E41A65EBB7
:1029E000000517460E46241908F101006D41804686
:1029F0003428E3DDF91946EB0600091BA84103D290
:102A00004FF0FF32134601E0002213461BEB070094
:102A100046EB0A51BDE8F04DFFF7A9BEC1F30A52DB
:102A2000C1F3130140F2FF3341F480119A4202DAFC
:102A300000200146704740F233439A42A2F23342EB
:102A400002DC524200F037B800F026B830B5002959
:102A500004DB4FF00044404264EB0101002B04DB37
:102A60004FF00044524264EB0303994208BF904286
:102A700030BD0000064C074D06E0E06840F0010361
:102A800094E8070098471034AC42F6D3FDF780FB7A
:102A9000EC4600080C470008202A04DB203A00FA24
:102AA00002F1002070479140C2F1200320FA03F3A5
:102AB000194390407047202A04DB203A21FA02F0A3
:102AC0000021704721FA02F3D040C2F12002914068
:102AD000084319467047202A06DBCB17203A41FAF3
:102AE00002F043EAE07306E041FA02F3D040C2F19B
:102AF0002002914008431946704700000000000082
:102B00000FB4054B10B503A9044A029800F02CF944
:102B100010BC5DF814FB0000AF0A00082C00002078
:102B200000B52DED048BB0EE408AF0EE608A83B0E4
:102B300051EC180BFFF721FF41EC190B19EE100AAD
:102B400019EE901A8DED009B002818BF0120084354
:102B500020F00040C0F17F6000F1E040C00F14D0D1
:102B600018EE101A18EE900A8DED008B002918BF90
:102B70000121084320F00040C0F17F6000F1E040F7
:102B8000C00F04BF012000F017F8B0EE490A03B0EF
:102B9000F0EE690ABDEC048B00BD02E008C8121F0C
:102BA00008C1002AFAD170477047002001E001C136
:102BB000121F002AFBD170470149086070470000CE
:102BC000700000202DE9FF5FDDE90220010DDDF836
:102BD00038B0024310D10F9801244CA2012808D02C
:102BE000002100980F9BC0E90021C0E90243BDE825
:102BF000FF9F6FEA0B01F4E7A1F2FF3144F610509A
:102C000041430D140F9801280ED0A5EB0B00401C7A
:102C10004FF000043E4EDFF8FC90B0F1000AA046F1
:102C200005DACAF1000717E0CBF10000F0E707462C
:102C300012E0F80707D02246334640464946FFF7E0
:102C400009FC804689462246334610461946FFF75E
:102C500001FC04460E467F10002FEAD1DDE9020197
:102C6000BAF1000F42464B4602DAFFF7F3FB01E0F0
:102C7000FFF762FC04460E460022274BFFF7E6FEF4
:102C800003D84FF0FF30014607E00022234B2046D7
:102C90003146FFF7CBFDFFF7C1FE102409E0002C01
:102CA0000ADB0A220023FFF7FBFC019B30321A5596
:102CB000641E50EA0102F2D1641C019AC4F11103AE
:102CC00014440F9A012A09D00122084301D15B451F
:102CD0000FDD4FF0000205F101050DE0084303D1BF
:102CE000A3EB0B056D1E09E000204FF0110B0F90B8
:102CF00088E701DA00226D1E002A83D000980F9920
:102D0000C0E90231C0E9004571E700003000000071
:102D1000000024400000F03F0000F0430000E03FCE
:102D200010B5002A06DA22F00042D21D22F0070375
:102D3000102203E0D21C22F003030C2213B19C18D2
:102D40008C4201D9012010BD024401448360C0E9D6
:102D50000021C91AD018884202D810600246F9E74B
:102D60000020106010BD00002DE9FF4F95B09B467C
:102D700089460646002512E2252878D10024761CD3
:102D8000F94A2746012105943378203B01FA03F0E4
:102D9000104202D00443761CF6E730782A2811D07E
:102DA0006FF02F033078A0F13002092A16D8059A67
:102DB00044F0020402EB820203EB42021044761C50
:102DC0000590EFE759F8042B0592002A03DA5042E8
:102DD00044F40054059044F00204761C30782E2808
:102DE00016D116F8010F44F004042A280DD06FF014
:102DF0002F023078A0F13003092B09D807EB8703A5
:102E000002EB4303C718761CF3E759F8047B761CE2
:102E100030786C280FD006DC4C2817D068280DD0ED
:102E20006A2814D104E0742810D07A280FD10DE05C
:102E300044F400140AE044F4801401E044F4401423
:102E40007278824202D1761C04F58014761C3078A8
:102E500066280BD013DC582877D009DC002875D001
:102E60004528F6D04628F4D047281AD19FE118E02B
:102E7000632835D0642879D0652812D197E170286D
:102E800073D008DC6728F1D069286FD06E280DD088
:102E90006F2806D1B5E073282CD0752875D0782816
:102EA00074D05A46179990476D1C76E1C4F30250CE
:102EB000022809D003280DD0D9F8001004280DD01D
:102EC0000D6009F1040968E1D9F80010EA17C1E9B9
:102ED0000052F6E7D9F800100D80F2E70D70F0E728
:102EE00019F8041B8DF8001000208DF80100EA4647
:102EF000012003E059F804AB4FF0FF3061074FF0B9
:102F0000000102D40DE008F101018846B9420FDA50
:102F10008045F8DB1AF808100029F4D108E008F120
:102F2000010188468142FADB1AF808100029F6D11F
:102F300005985B46A0EB080721463846179A00F033
:102F40009EFA284400EB080507E04DE02BE10DE078
:102F50001AF8010B5A4617999047B8F10108F7D2B1
:102F60005B4621463846179A14E142E00A22009255
:102F7000C4F302524FF0000A022A08D059F804CBD9
:102F8000032A4FEAEC710AD00DE029E02AE009F1AA
:102F9000070121F00702F2E802C1914609E00FFAA9
:102FA0008CFC4FEAEC71042A03D14FFA8CFC4FEAF7
:102FB000EC71002907DA0A460021DCF1000C61EB14
:102FC00002012D2202E0220504D52B228DF80420D7
:102FD000012203E0E20701D02022F7E7904653E008
:102FE0000A2102E010220DE010214FF0000A0091AA
:102FF0000BE010224FF0000A44F00404082700926E
:1030000003E008224FF0000A0092C4F30252022AA1
:1030100005D059F804CB0021032A08D009E009F1B2
:10302000070121F00702F2E802C1914605E01FFA0C
:103030008CFC042A01D10CF0FF0C4FF00008220791
:1030400022D5702827D0009B83F0100353EA0A038F
:1030500009D15CEA010206D030228DF804208DF8F7
:10306000050002229046009B83F0080353EA0A03FE
:103070000AD15CEA010201D1620705D530228DF840
:1030800004204FF001087F1E582809D037A0039074
:103090000EA8029013E040228DF804200122E1E7FF
:1030A00037A0F4E753466046009AFFF7F9FA8446E2
:1030B0000398825C0298A0F10100029002705CEA21
:1030C0000100EFD1029806A9A1EB000000F1200A4F
:1030D000600702D524F4803400E00127574502DD63
:1030E000A7EB0A0000E0002000EB0A010090059821
:1030F0004144A0EB01000590E00306D45B46214665
:10310000179A059800F0BBF90544002706E001A8CE
:103110005A46C05D179990476D1C7F1C4745F6DBEA
:10312000E0030CD55B462146179A059800F0A7F9F5
:10313000054404E030205A46179990476D1C0099C9
:10314000481E00900029F5DC08E0029802995A46D2
:103150000078491C0291179990476D1CBAF1000143
:10316000AAF1010AF1DC6BE10928010030313233A8
:1031700034353637383961626364656600000000B3
:10318000303132333435363738394142434445469D
:103190000000000000F060F9054406F101063078F7
:1031A00000287FF4E9AD19B02846BDE8F08F62072A
:1031B00000D4062709F1070222F0070CFCE80223DD
:1031C000E14603F000485FEA080C02D00FF27C2CC5
:1031D0000DE05FEA045C02D50FF2742C07E05FEAB1
:1031E000C47C02D00FF26C2C01E0AFF2700C4FF0F7
:1031F000FF3823F00043CDF850C065280CD006DC22
:10320000452809D046281DD047283ED13EE06628F3
:1032100018D0672839D139E00021112F01DB1120A6
:1032200000E0781CCDE9000106A90EA8FFF7CAFC52
:10323000DDE90F010E9A03910021009207F1010AC6
:1032400004914EE04FF000400097CDE9011006A92F
:103250000EA8FFF7B7FCDDE90F0203920E9B119950
:103260000022DDF80CA00093049219B907F10101C6
:1032700000EB010AB7EB0A0004D4C0F1FF3007F1FC
:10328000010A0490AAEB0700019046E0012F00DA42
:1032900001270021112F01DD112000E03846CDE982
:1032A000000106A90EA8FFF78DFCDDE90F010E9ABB
:1032B0000391002104910092BA4621070CD403998E
:1032C000514500DA8A46BAF1010F05DD009AAAF1EC
:1032D0000101515C302908D0B84202DA10F1040F24
:1032E00006DA0121CDE9011017E0AAF10101E9E7B1
:1032F000002805DC049901440491AAEB000102E0D6
:10330000411C514500DD8A460499A0EB010000F103
:10331000010001904FF000400290200704D4019872
:10332000504501DBCDF8048000208DF84F00029855
:103330000DF14F07B0F1004F25D02B200E900298D1
:103340004FF0020800280CDA404202902D200E9027
:1033500007E00A210298FFF78DF93031029007F853
:10336000011DB8F10001A8F10108F2DC0298002863
:10337000EFD1791E0E980870307800F0200040F0F0
:10338000450007F8020D12A8A0EB070000F107089E
:103390001498007800B1012000EB0A01019801EBBC
:1033A000E07105984144A0EB0100A0F101000590F7
:1033B000E00306D45B462146179A059800F05FF8B3
:1033C00005441498007820B15A461799904705F1A2
:1033D0000105E00323D55B462146179A059800F0C6
:1033E0004EF805441BE00498002807DBDDE90301E3
:1033F000884203DD0098405C179901E0179930205E
:103400005A46904704986D1C401C04900198401E39
:10341000019004D12E205A46179990476D1CBAF19D
:103420000001AAF1010ADEDC05E017F8010B5A469B
:10343000179990476D1CB8F10001A8F10108F4DC60
:103440005B462146179A0598A4E600002D0000006F
:103450002B000000200000002DE9F041044600256B
:103460001E461746880405D406E039462020B0479A
:1034700005F10105641EF8D52846BDE8F0812DE967
:10348000F041044600251E469046C80301D530276A
:1034900000E02027880405D506E041463846B047BD
:1034A00005F10105641EF8D52846BDE8F08100004D
:1034B00008480068C0010BD507480068C00707D05E
:1034C000054880380068002802DA044901200870A5
:1034D00070470000FCED00E0800E00E05E00002080
:1034E0004FF06042D36F002BFCD0C36AD367D36F19
:1034F000002BFCD0C07840EA0120A2F87C00704785
:103500004FF06041CA6F002AFCD081F87C00704700
:1035100010B5002821D0114B001F0022196803E0CC
:10352000814203D80A4649680029F9D152B113688B
:10353000841A9C4204D1006818441060104602E0CE
:10354000506000E0186039B102680B1A934203D151
:103550000B681A4402604968416010BD6800002091
:1035600070B504000D4603D012B92078012801D0AF
:10357000802070BD204600F095FA28B129462046EB
:1035800000F02CF8002070BD812070BD10B50446FD
:103590008089002821D0608904EB800000690860E0
:1035A0006078022805D10021204600F0CFFB00F012
:1035B000BDFB04F10C0000BFD0E85F1F491EC0E84E
:1035C000521F002AF8D16089401C80B26081E189D5
:1035D000884201D100206081042010BD10B500F0A8
:1035E000B5FBBDE8104000F0A1BB0000F0B50B300A
:1035F000154D20F007010024144A0FE003688B42A8
:103600000BD38B4205D95E1A43184768C3E900679C
:1036100000E04368136002C004E0021D1068002847
:10362000ECD12046002802D1286808B10020F0BD66
:10363000064A07481060074A121A22F00702C0E93A
:10364000002401202860D7E76C00002068000020DB
:103650002C1C0020281E0020EFF3058109B18220D8
:103660007047DFF808C000DF7047000059420008CB
:10367000EFF305820AB182207047EFF31482144BF6
:1036800012F0030206D0012A1BD0022A11D0032A0D
:1036900019D113E0EFF3088282F309881A78D20770
:1036A0000AD0022282F31488BFF34F8FBFF36F8FCB
:1036B00009E01A78D20706D10322F3E71A78D20775
:1036C00001D0FF207047DFF80CC000DF704700001A
:1036D000E04400086D4200082DE90E40EFF305823A
:1036E000B2B102004FF0800000D021B10090DDE9BE
:1036F000011203B000BD11780129F7D101A91046CC
:10370000FFF744FF042801D00020EFE71020EDE789
:10371000DFF804C000DFECE765430008EFF3058243
:103720000AB100207047DFF808C000DF70470000D2
:10373000A1430008DFF80CC000DFDFF80CC000DF99
:10374000FEE70000114400082D440008DFF804C023
:1037500000DF704765440008094C4FF0FF352946EB
:103760002068FFF7B9FF02460846102AF7D1FFF795
:10377000EDFF0028F3D0024608469047EFE700002F
:10378000200000204FEA000151E8000F28B1036833
:1037900041E80032002AF7D17047BFF32F8F7047FE
:1037A00010B568B161B10B3121F0030201684468C2
:1037B0000B1A1B1B934205D2084609680029F5D154
:1037C000002010BD3CB121180368C1E9003201603E
:1037D00001F1080010BD4260083010BD70B50C4604
:1037E000002812D04FF6FF71084D884204D22A6893
:1037F0000146104600F0D6FA28684470044800F0EC
:10380000D7F8BDE8704000F08FBB70BD50000020BD
:10381000F81B00200F4810B50D4942680E480B6890
:103820000088934204D00A60CB88421E1A448A80E2
:103830008A8882420AD100200860064800F0B8F861
:103840000146BDE81040034800F0DABA10BD0000A0
:1038500060000020F81B00205C00002070B5194DAE
:10386000E86800282CD0A88A401EA882002621E003
:10387000A06838B161684160606810B1A16881607A
:103880006660A6600F482146183800F0B9FAA08A91
:10389000A8826078042804D10B49E08A098808448A
:1038A000A08201206070E068E860E06808B105610E
:1038B000E6602661A88A002802D1EC68002CD7D1E6
:1038C00070BD0000101C00205C00002070B50400DA
:1038D0000FD00D4DA17801262868827891420CD92D
:1038E00000F0AAFA286846702046BDE8704000F053
:1038F0001BBB064800F05CF8F7E766702146BDE8A0
:103900007040024800F07CBA50000020F81B0020F4
:103910000321FFF763BF000010B50446008B084386
:1039200020836278618B062A18D0052A19D10842B3
:1039300017D001EA0002628388432083204600F00A
:103940009BFA01206070628B0821204600F08CFAFF
:103950002146BDE81040034800F052BA31EA0002A7
:10396000EAD010BDF81B0020814202D342688A428F
:1039700001D80120704750E8002F0A6040E800128B
:10398000002AF8D10020704768B161B108390022DF
:1039900002E00246006830B18842FAD12AB10068DC
:1039A0001060002070470120704700214160F8E757
:1039B0000146406842684A600B780022022B05D01D
:1039C000012B03D0032B01D04260704743680BB139
:1039D0009960426082607047810700D00020704784
:1039E00070B5044600201546207001226270A17057
:1039F0006060A060E0602061A082E082208360833C
:103A000084F82000608C18B90448FFF7BBFEA06260
:103A100029462046BDE8704000F01CB8D8010020BF
:103A200008B1082901D2012070470144091F002272
:103A300001600A60426010467047000003480021A0
:103A4000016003490968C1807047000060000020E0
:103A5000D844000810B5428C920803D10F4A12686E
:103A6000C2F38D02836A03EB8202530700D5121F53
:103A7000403A4FF08073C2E90E1300234FEA03046B
:103A800042F823405B1C0E2BFAD3C36913624262D7
:103A9000C162806A0249016010BD0000D444000880
:103AA000A52E5AE2C1898089081A70470122027046
:103AB000002242708270426002814281103982810C
:103AC0008908C181704700002DE9F0410446407823
:103AD00000270E464FF00108012855D004F10C05CF
:103AE00002282BD0032818D0A089E189884262D20D
:103AF000208904EB80000661D5E85F0F401CC5E813
:103B0000510F0029F8D12089401C80B22081E18921
:103B1000884200D12781BDE8F0810846FFF732FED8
:103B20000600F8D02046FFF743FF0546606800B95D
:103B300067703146284600F091F931E02046FFF7E2
:103B400037FF0646606800B967700021304600F014
:103B500085F92189F06904EB81010861D5E85F0FDF
:103B6000401CC5E8510F0029F8D12089401C80B2C3
:103B70002081E189884200D1278186F80180304682
:103B800000F07AF9314611E02046FFF711FF0546B3
:103B9000606800B9677032461021284600F064F969
:103BA00085F80180284600F067F92946BDE8F04114
:103BB000034800F025B9BDE8F0410320FCF7C6BC7E
:103BC000F81B002070B50446808915460026C8B34E
:103BD000608904EB8000006908606089401C80B245
:103BE0006081E189884200D16681607802280AD02C
:103BF00014F10C04D4E85F0F401EC4E8510F0029F3
:103C0000F8D1002070BD2046FFF7D2FE054660685F
:103C100000B966700021284600F020F92189E86982
:103C200004EB810108612089401C80B22081E18978
:103C3000884200D12681284600F01EF92846FFF769
:103C400045FEDEE7FFE73DB10A48626801682AB138
:103C5000204600F0D5F807E0012070BD61600068E3
:103C6000C0E901640120607008212846FFF7B6FD15
:103C7000F2E7000050000020411C13D00B4A4FF621
:103C8000FE7190420CD800EB4002C2EBC012084813
:103C9000036803EBC202521EB2FBF3F0884200D964
:103CA000084670474FF6FF707047000000093D005E
:103CB000E444000870B51A4801210068417000F022
:103CC000BBF8184D6C7816E005EBC4014868027823
:103CD000E2B1012A1FD000F0FBF8E878641C8442AE
:103CE00000D100240F48801CD0E84F1F491EC0E8B7
:103CF000421F002AF8D1A8780028E5D16C700A4844
:103D0000FFF756FEBDE8704000F00EB9896889B231
:103D1000FFF702FEE1E78968FFF7D6FEDDE7000066
:103D200050000020081B0020F81B002005480178E7
:103D300011B101214170704703494FF08050086074
:103D4000704700005800002004ED00E0F0B4144B70
:103D50009C1CDD784FEA030CD4E84F2FAA4202D115
:103D6000BFF32F8F0EE0521CC4E8462F002EF3D174
:103D7000DCE84F2F541CAC4200D10024CCE8464F65
:103D8000002EF5D1DC78944205D903EBC202C2E9DA
:103D90000101F0BC7047F0BC0220FCF7D7BB00006B
:103DA000081B0020154A10B5D368FBB113469B8A47
:103DB00009E000BFD2F80CC0BCF1000F16D0BCF86F
:103DC0001440624623448B42F4D3D468C460D0606C
:103DD0000261D0F80CC0BCF1000F01D0CCF810008B
:103DE000591A8182908A401A908210BD0024C460C2
:103DF000D060C91A02619182848210BD101C00201B
:103E000010B502780023022A03D0012A01D0032A28
:103E100000D1012391F802C000E01046426812B1BF
:103E200094786445F9D24A6041601BB102B1916057
:103E3000886010BD0020FBE703494A684260002209
:103E40008260486070470000F81B002090F8201046
:103E5000406A09B1603070472030704710B50C4699
:103E6000FFF7F4FF046010BD70B50C461546FFF770
:103E7000EDFFC0E9004570BD10B5016900290ED005
:103E8000C268CA60C36800223BB18B8A848A23441B
:103E90008B82C3681961C26000E08A82026110BD32
:103EA000816839B142684A604168002901D0806860
:103EB00088607047054906E04A68824202D140683E
:103EC0004860704711460029F6D17047F81B002062
:103ED00010B5416881B1FFF76BFD0446FFF7CCFFD9
:103EE0000120607001462046FFF7B8FF2146BDE87B
:103EF00010400348FFF784BF4188491C418010BD32
:103F0000F81B002006480068D0E90910814203D35D
:103F100000680449884202D00120FCF717BB7047B3
:103F200050000020A52E5AE2074902224860427044
:103F3000064A1278002A05D006C98A4202D0C07803
:103F4000FFF7DEBA70470000500000205E0000203E
:103F50002DE9F04104460D469046FFF7A9FA0020EE
:103F600006463849384B02E041F82060401C1A8868
:103F70009042F9D33548302201883548FEF7D0FE0B
:103F80003448006880B240F000423348016833484A
:103F9000FEF7C6FE32480822018832480068FEF764
:103FA000BFFE314FFF20314AF8707E840021384631
:103FB000FFF716FD2E480421017046602D48017060
:103FC000C66006618682786A2030FCF7EBF82A48E2
:103FD0002B490760022078702848067046700978DF
:103FE000C170284801684FF0E020416186610721D7
:103FF000016125480168254A114301600068224992
:1040000000F07F40C0431439B0FA80F00968C0F175
:104010000800C1F30221814200DB481C1A49091F34
:104020000B686FF08072824063F317020A60FFF73B
:1040300005FD424629462046BDE8F041002300F038
:104040006DB800008C1B0020D0440008EC44000830
:1040500078000020D4440008F0440008D801002073
:104060001445000818000020C81B0020490500085E
:10407000F81B0020101C002050000020081B00200E
:10408000F8440008DC44000820ED00E00000FFFFD9
:104090000B4810B5006801214170FFF7CDFEFFF716
:1040A000B9FB08490888401C0880FFF7D7FB00F0DF
:1040B000E5F90548FFF77CFCBDE81040FFF734BF89
:1040C000500000205C000020F81B0020002805D0D4
:1040D000810702D10178002900D00020704700003C
:1040E00030B50D4C0023226808E000BFB2F808C0CC
:1040F0008C4505D813461268A1EB0C01002AF5D1B6
:1041000089B20260018112B11589691A11810BB15E
:10411000186030BD206030BD4C0000202DE9F0411A
:10412000804616461F460D4611F0FF0F00D14D1C6C
:104130001648FFF727FB040026D0280AA6626084F1
:10414000E9B242462046E761FFF74AFC01251048E4
:10415000104905E000EB850252F8042C22B16D1CD9
:104160000A889542F6D9002500EB850040F8044CFA
:104170000948E570007818B101212046FFF7B0F931
:104180002046FFF7A3FB2846BDE8F0817800002019
:104190008C1B0020D04400085E0000202DE9F04177
:1041A000244C234F244B22680026D17808B1814249
:1041B00018D103EB8100567040F8046C1F48916AD7
:1041C000FFF7D2FB20688662397811B10021FFF732
:1041D00087F91B482168FFF7C7FB00202660FFF71F
:1041E00075FB1FE01749098888421ED803EB80053C
:1041F00055F8044CCCB12046FFF752FE2046FFF79D
:104200003BFE45F8046C0D48A16AFFF7ADFBA662C2
:10421000387818B100212046FFF762F92146084896
:10422000FFF7A2FB0020BDE8F081FF20FBE70000C4
:104230005E000020500000208C1B0020D8010020D0
:1042400078000020D044000802480068002800D010
:10425000C07870475000002010B5002805D0FFF747
:104260000BFD80B2FFF754FB402010BD70B5040079
:104270000D4608D0206830B1B4F9040010F1030FE6
:1042800001DB032801DD862070BD244E306840B17B
:10429000204600F085F8A0B100F0BAF800F0C6F8AA
:1042A00037E01F4840070CD11E4801681C48FFF743
:1042B000B7FB30B9E16831B11948FFF771FA020074
:1042C00002D1852070BD0022B4F90400E168001D10
:1042D00040EA01212068FFF73BFE7068D8B1C07842
:1042E000114901EB800050F8040C3060416A0D6206
:1042F000406A0E49416300210D4800F021F80D4944
:10430000086000210C4800F04BF80C4908600020C0
:104310003060002070BDFF2070BD00005000002004
:10432000A8140020F44400088C1B00203537000836
:104330000C45000820000020FC4400081C00002060
:1043400010B5040005D0216819B1606808B1027881
:104350000AB1002010BD8900103189B2FFF7A6FB19
:10436000606810BD3EB504000D464FF0800012D0CD
:10437000217801290FD12846FFF77EFC82B201A9DE
:104380002046FFF71FFC012801D0102003E00DB1EB
:10439000402000E00020DDE9011203B030BD000044
:1043A00070B504000E462BD0206848B3B4F9040061
:1043B00010F1030F24DB032822DCE16829B1114846
:1043C000FFF7EEF9050015D000E00025B4F9040070
:1043D000E168001D40EA012133462A462068FFF7C4
:1043E0009DFE40B1084901EB8000084950F8040CDB
:1043F000426A516370BD1DB129460248FFF7C4FAF5
:10440000002070BDA81400208C1B00203537000848
:1044100010B5FFF719FF002804D0034901EB800015
:1044200050F8040C10BD00008C1B002070B5FFF785
:104430004DFE040003D0608C18B1A56A02E0802014
:1044400070BD0025E078FFF7A9FEFF2806D01DB15A
:104450000348A16AFFF798FA002070BD812070BD63
:10446000A814002010B5FFF7B7FA20B101690A6857
:10447000C168104610BD0020014610BD2DE9F04175
:10448000114E3468002C18D02089104F401E208116
:104490004FF001080EE025462468346000222946CA
:1044A0003868FFF75DF86879012808D085F804803E
:1044B000002C02D020890028EDD0BDE8F081698968
:1044C0002846FFF70DFEF3E74C00002020000020F7
:1044D0000700000020030201050001003F900200D8
:1044E00001000000E8030000000000005C01000083
:1044F000D0120000600600001000000059370008CC
:104500000200000001000000200300000400000081
:10451000A81B00200000000051050008000000005A
:1045200001000000200300001B060008000000003E
:104530000100000000000000350600080000000037
:104540000100000000000000370600080000000025
:104550000100000000000000000000000000803F9B
:104560000000803F0000004000004040000040404C
:1045700000008040000080400000A0400000A040FB
:104580000000C0400000E0400000E04000000041AA
:1045900000000041000010410000104100002041D7
:1045A0000000204100003041000040410000404137
:1045B0000000504100005041000060410000604197
:1045C0000000704100007041000080410000804107
:1045D000000088410000884100009041000098419F
:1045E000000098410000A0410000A0410000A84147
:1045F0000000A8410000B0410000B0410000B841F7
:104600000000B8410000C0410000C0410000C041AE
:104610000000C8410000C8410000D0410000D04166
:104620000000D8410000D8410000E0410000E04116
:104630000000E8410000E8410000E8410000F041CE
:104640000000F0410000F8410000F8410000004285
:10465000000000420000004200000442000004424A
:1046600000000842000008420000084200000C421E
:1046700000000C42000010420000104200001042F6
:1046800000001442000014420000144200001842CE
:10469000000018420000184200001C4200001C42AA
:1046A000000020420000204200002042000024427E
:1046B000000024420000244200002842000028425A
:1046C000000028420000284200002C4200002C423A
:1046D00000002C4200003042000030420000304216
:1046E0000000344200003442000034420C4700080D
:1046F00000000020740000009A2B0008804700088A
:1047000074000020B4210000AA2B0008007A030ADC
:104710000000000000000000010203040607080971
:104720000000000000000000000000000000000089
:104730000000003F0000003F0000000000000000FB
:104740000000000001020304010203040607080937
:1047500000F0000000100000000000000000000059
:104760000000000000000000000000000000000049
:104770000000000000000000000000000000000039
:040000050800018965
:00000001FF
