:020000040800F2
:1000000048220020250500082D0500082F050008BE
:100010003105000833050008350500080000000020
:1000200000000000000000000000000009020008BD
:100030003905000800000000AD0200080D030008AB
:100040003F0500083F0500083F0500083F05000880
:100050003F0500083F0500083F0500081F0E000887
:100060003B0E0008310F00083F0500083F0500085F
:100070003F0500083F0500083F0500083F05000850
:100080003F0500083F0500083F0500083F05000840
:100090003F0500083F0500083F0500084D0F000818
:1000A0003F0500083F0500083F0500083F05000820
:1000B0003F0500083F0500083F0500083F05000810
:1000C0003F0500083F0500083F0500083F05000800
:1000D0003F0500083F0500083F0500083F050008F0
:1000E0003F0500083F0500083F0500083F050008E0
:1000F0003F0500083F0500083F0500083F050008D0
:100100003F0500083F0500083F0500083F050008BF
:100110003F0500083F0500083F0500083F050008AF
:100120003F0500083F0500083F0500083F0500089F
:100130003F0500083F0500083F0500083F0500088F
:100140003F0500083F0500083F0500083F0500087F
:100150003F0500083F0500083F0500083F0500086F
:100160003F0500083F0500083F0500083F0500085F
:100170003F0500083F0500083F0500083F0500084F
:100180003F0500083F050008DFF814D003F0F6FB38
:100190000021024804F004FAFEE70000A05800081D
:1001A0004822002080F309887047684680F3098858
:1001B00004480078C00714BF0220032080F314888D
:1001C0007047000068580008DFF818C0EFF3058397
:1001D0001B0618BF6047EFF31483DB0708BF6047B7
:1001E00000DF704779470008DFF818C0EFF3058398
:1001F0001B0618BF6047EFF31483DB0708BF604797
:1002000000DF7047154A0008EFF30980816911F893
:10021000021C002933D190E80F1010B5E047BDE86B
:100220001040EFF3098C8CE807001D4B93E80600A3
:10023000914208BF704781B11EF0100F06BF2CED30
:10024000108A0120002081F820002CE9F00FC1F86D
:1002500024C00CB404F050FF0CBC1A60D2F824C0C7
:10026000BCE8F00F92F8200000281ABFBCEC108AFE
:100270006FF0120E6FF0020E8CF30988704710B504
:10028000084A1268914209D8074C54F8214090E876
:100290000F10A047EFF3098C8CE80F0010BD000091
:1002A00064000020043A0008043A000810B504F085
:1002B000E1FDBDE81040174B93E80600914208BFEE
:1002C0007047EFF3098C1EF0100F06BF2CED108A5B
:1002D0000120002081F820002CE9F00FC1F824C093
:1002E0000CB404F009FF0CBC1A60D2F824C0BCE8BE
:1002F000F00F92F8200000281ABFBCEC108A6FF0B3
:10030000120E6FF0020E8CF30988704710B504F0DE
:10031000B9FFCEE7640000200CB5002001900090EA
:100320007548006840F480307349086000BF724827
:10033000006800F4003000900198401C0190009883
:1003400018B90198B0F5A06FF1D16B48006810F4AE
:10035000003F02D00120009001E0002000900098B2
:10036000012845D164484030006840F0805062491F
:10037000403108606148006840F480405F4908608F
:100380005D48083000685C4908310860084600682C
:1003900040F4004008600846006840F4A05008603F
:1003A0005748091F0860081F006840F08070091F47
:1003B000086000BF5048006810F0007FFAD040F29B
:1003C0000560504908604C480830006820F0030080
:1003D0004949083108600846006840F0020008609A
:1003E00000BF45480830006800F00C000828F8D12C
:1003F0000CBD10B54448006840F4700042490860E4
:100400003D48006840F001003B49086000203A493F
:1004100008310860384800683C490840364908609F
:100420003B48091D0860081F006820F48020091F50
:100430000860002030490C310860FFF76DFF4FF075
:10044000006031498039086010BD70B5002000227D
:10045000022300240221284D08352D6805F00C00E8
:1004600020B1042806D0082834D107E0294D2A4EAF
:10047000356033E0294D284E35602FE01E4D2D1D8F
:100480002D68C5F380541C4D2D1D2D6805F03F01CE
:1004900054B1224DB5FBF1F5174E361D3668C6F343
:1004A000881605FB06F209E01A4DB5FBF1F5124E70
:1004B000361D3668C6F3881605FB06F20E4D2D1D57
:1004C0002D68C5F301456D1C6B00B2FBF3F5124EB0
:1004D000356003E00F4D104E356000BF00BF064D84
:1004E00008352D68C5F303150D4E705D0A4D2D6856
:1004F000C540094E356070BD0038024000700040B4
:1005000008544007003C024088ED00E0FFFFF6FE83
:10051000103000240024F4000000002000127A00B3
:10052000040000200648804706480047FEE7FEE733
:10053000FEE7FEE7FEE7FEE7FEE7FEE7FEE7FEE793
:10054000F30300088901000800BFFEE700BFFEE7D3
:1005500000F0F2FF04462146F9A003F055FA4FF4EB
:100560007A7004F011F8FB4804F070F8FA4908605A
:1005700000F022FD0020F949086002F01EFD02F0A3
:1005800048FEF7A003F040FA0021FD4804F0B4F85B
:100590000021FC4804F0B0F80021FB4804F0ACF85E
:1005A000FA49086003E04FF0FF3003F0EDFFFAE78F
:1005B0000DE0EA48006838B9F548D0ED000AF54882
:1005C00090ED000A00F0D3FF322003F0DDFFF0E7EA
:1005D0002DED048B86B03421012002F05DF9054633
:1005E0002946EDA003F010FA4FF4FA7003F0CCFFA7
:1005F00020E004A905A800F0F5FF0446012C19D15C
:10060000049802F08CFF41EC100BB0EE408AF0EE43
:10061000608A059802F083FF41EC100BB0EE409A1F
:10062000F0EE609A02948DED008B53EC192BDFA055
:1006300003F0EAF9DDE72DED108B8AB01024254692
:10064000A80003F06BFF81462246494604A800F04B
:100650001DFF00BF2646B00003F060FF8246224621
:100660005146684600F012FF0EE20122282108A838
:1006700002F07CFA012229210DF1210002F076FA24
:1006800001222A210DF1220002F070FA01222B2111
:100690000DF1230002F06AFA01222C2109A802F0D0
:1006A00065FA01222D210DF1250002F05FFA9DF877
:1006B00020009DF8211040EA012009EE900AB8EED2
:1006C000E90A10EE100A02F02AFF41EC100BB0EE1E
:1006D00040BAF0EE60BA9FEDC00B53EC102B51EC1A
:1006E0001B0B02F03BFE41EC100BB0EE40AAF0EE0B
:1006F00060AA51EC1A0B02F025FF08EE900A9DF853
:1007000022009DF8231040EA012009EE900AB8EE7D
:10071000E90A10EE100A02F002FF41EC100BB0EEF5
:1007200040BAF0EE60BA9FEDAC0B53EC102B51ECDD
:100730001B0B02F013FE41EC100BB0EE40AAF0EEE2
:1007400060AA51EC1A0B02F0FDFE09EE100A9DF8AA
:1007500024009DF8251040EA012009EE900AB8EE29
:10076000E90A10EE100A02F0DAFE41EC100BB0EECE
:1007700040BAF0EE60BA9FED980B53EC102B51ECA1
:100780001B0B02F0EBFD41EC100BB0EE40AAF0EEBB
:1007900060AA51EC1A0B02F0D5FE08EE100A0027F1
:1007A000B8469FED8F0AF4EEC08AF1EE10FA06DD2E
:1007B0009FED8C0A30EE680AF0EE408A01279FED2B
:1007C000880AB4EEC09AF1EE10FA07DD9FED850AB3
:1007D00030EE490AB0EE409A4FF00108CFB329EE4F
:1007E000090A08EE080A10EE101A084602F097FEF1
:1007F00041EC100BB0EE40DAF0EE60DA03F014F9E1
:10080000B0EE40BAF0EE60BA18EE900A02F087FE41
:1008100041EC100BB0EE40CAF0EE60CA53EC1B2B5B
:1008200051EC1C0B02F00CFE41EC100BB0EE40AA98
:10083000F0EE60AA51EC1A0B02F084FE0FEE100AE3
:10084000B0EE4F0A00F09EFDB1EE400AB0EE40EA75
:1008500037E0FFE729EE090A08EE080A10EE101A41
:10086000084602F05CFE41EC100BB0EE40DAF0EE10
:1008700060DA03F0D9F8B0EE40BAF0EE60BA18EEE4
:10088000900A02F04CFE41EC100BB0EE40CAF0EEC4
:1008900060CA53EC1B2B51EC1C0B02F0D1FD41EC58
:1008A000100BB0EE40AAF0EE60AA51EC1A0B02F069
:1008B00049FE0FEE100AB0EE4F0A00F063FDB0EEF5
:1008C00040EAB8F1000F39D028EEA80A08EE080A6D
:1008D00010EE101A084602F022FE41EC100BB0EEAA
:1008E00040DAF0EE60DA03F09FF8B0EE40BAF0EED6
:1008F00060BA19EE100A02F012FE41EC100BB0EED5
:1009000040CAF0EE60CA53EC1B2B51EC1C0B02F0FA
:1009100097FD41EC100BB0EE40AAF0EE60AA51EC4E
:100920001A0B02F00FFE0FEE100AB0EE4F0A00F0A5
:1009300029FDB1EE400AF0EE40EA8CE054E0000000
:100940004343323530302052656164792028257860
:1009500029200A00F0580008300000202C00002058
:100960005472616E736D6974746572207374617210
:1009700074696E672074687265616473200A000090
:10098000B0580008D0580008E05800083C0000208B
:1009900028000020240000204D6F76656420746FCD
:1009A0002052582028257829200A00005245414429
:1009B0003A205069746368203D2025662020526FDC
:1009C0006C6C203D2025662020436F6E74726F6C26
:1009D000203D202578200A0008AC1C5A643BAF3F1C
:1009E0000000FA4400007A4528EEA80A08EE080A3A
:1009F00010EE101A084602F092FD41EC100BB0EE1A
:100A000040DAF0EE60DA03F00FF8B0EE40BAF0EE44
:100A100060BA19EE100A02F082FD41EC100BB0EE44
:100A200040CAF0EE60CA53EC1B2B51EC1C0B02F0D9
:100A300007FD41EC100BB0EE40AAF0EE60AA51ECBD
:100A40001A0B02F07FFD0FEE100AB0EE4F0A00F015
:100A500099FCF0EE40EA04A9BDEECE0A10EE100AB1
:100A600000B200F035FDFC4880ED000A6946BDEE9D
:100A7000EE0A10EE100A00B200F02AFDF74880EDF1
:100A8000000A322003F080FDEFE52DED088B84B0E5
:100A900081464C464FF0000AD346002003900026C2
:100AA00080469FEDEF0AB0EE408A9FEDED0AF0EE32
:100AB000408A9FEDEB0AB0EE409A9FEDE90AF0EE16
:100AC000409A0027FF25A9E14FF0FF31082003F0ED
:100AD00007FE8DE8070002F055FB05460120E149BD
:100AE00008602946E0A002F08FFFE72D19D14FF0F2
:100AF000FF31E348006803F0C1FD00202072E048A8
:100B0000006803F0AFFD9FEDD60AB0EE408A94ED89
:100B1000010AB0EE409A94ED000AF0EE409A4FF0D0
:100B2000010ABAF1010F66D14FF0FF31D4480068D5
:100B300003F0A4FDD3A104F1180002F006FCD6A135
:100B400004F1280002F001FCCD48006803F08AFDA2
:100B50007E2D00D101267B2D01D14FF0FF36284696
:100B600002F02CFB0A2801DA012000E000200EB17F
:100B7000012100E0002108421FD0284602F01EFBA0
:100B800000EE100AB8EE400AF2EE040A08EE200A5F
:100B9000B0EE408A18EE100A02F0C1FC41EC100BD6
:100BA000B0EE40AAF0EE60AA53EC1A2BBFA002F000
:100BB0002BFF08F1010000F0FF08772D1BD14FF04B
:100BC000000800EE106AB8EEC00A28EE000AB0EE87
:100BD000408A00264FF0000A18EE100A02F09FFC2F
:100BE00041EC100BB0EE40AAF0EE60AA53EC1A2BC9
:100BF000B1A002F009FFD72D11D14FF0FF31A0486D
:100C0000006803F03BFD002020729D48006803F05F
:100C100029FD9FED930AF0EE408A4FF0010BBBF1E6
:100C2000010F66D14FF0FF319548006803F026FDB3
:100C300094A104F1180002F088FBA2A104F128009D
:100C400002F083FB8E48006803F00CFD7E2D00D17E
:100C500001267B2D01D14FF0FF36284602F0AEFA77
:100C60000A2801DA012000E000200EB1012100E095
:100C7000002108421FD0284602F0A0FA00EE100A18
:100C8000B8EE400AF2EE040A08EEA00AF0EE408A3E
:100C900018EE900A02F043FC41EC100BB0EE40AAB3
:100CA000F0EE60AA53EC1A2B8BA002F0ADFE08F117
:100CB000010000F0FF08772D1BD100EE106AB8EE9E
:100CC000C00A28EE800AF0EE408A18EE900A02F080
:100CD00026FC41EC100BB0EE40AAF0EE60AA53ECFB
:100CE0001A2B75A002F090FE4FF0000800264FF07E
:100CF000000BB72D04D10020207260610120039009
:100D0000039801287ED1811E5D48006803F0B6FC7F
:100D10005CA104F1180002F018FB72A104F1280094
:100D200002F013FB5648006803F09CFC284602F0D2
:100D300045FA0A280EDA284602F040FA07EB870146
:100D400000EB410739466CA002F05EFE08F101009D
:100D500000F0FF08772D59D14FF0000800200390D4
:100D6000411E4748006803F089FC6420B7FBF0F09F
:100D700060616420B7FBF0F000EE100AB8EE400AA4
:100D800078EE490A80EE801A84ED031A6420B7FBDE
:100D9000F0F000EE100AB8EE400A78EEE90A80EEB4
:100DA000801A84ED041A94ED040A10EE101A084615
:100DB00002F0B5FB41EC100BB0EE40AAF0EE60AAD9
:100DC00094ED030A10EE101A084602F0A8FB41EC5D
:100DD000100BB0EE40BAF0EE60BA8DED00AB53EC04
:100DE0001B2B48A002F010FE2548006803F03AFCD7
:100DF00064214A48006803F09DFC49A0616902F043
:100E000003FE00E002E0002016490860C82003F05D
:100E1000BBFB08214548006803F03CFC54E610B5D4
:100E2000022000F01DFD38B1022000F02AFD08214B
:100E30003E48006803F03AFC10BD10B5042000F0F5
:100E40000FFD38B1042000F01CFD08213748006870
:100E500003F02CFC10BD000024000020280000201E
:100E6000000000002C0000204B6579626F61726405
:100E70002056616C756520307825780A00000000E6
:100E80003000002020506C6561736520456E7465EC
:100E90007220612000000000202020526F6C6C2026
:100EA000416E676C6520202000000000526F6C6C62
:100EB0002025660A00000000416E676C65202566EB
:100EC0000A0000002020506974636820416E676C3E
:100ED00065202020000000005069746368202566AA
:100EE0000A0000002020202054696D6520696E20D2
:100EF000732020200000000054696D652025756D69
:100F0000730A0000526F6C6C496E63202566205096
:100F100069746368496E632025660A003800002002
:100F200054696D652025750A000000003C00002012
:100F300010B5082000F094FC38B1082000F0A1FCA6
:100F400008210948006803F0B1FB10BD10B540202E
:100F500000F086FC38B1402000F093FC08210248E4
:100F6000006803F0A3FB10BD3C0000201149096894
:100F700011F0010F0ED00F498039096811F0010FEF
:100F800008D000BF4FF0604109680029FAD04FF047
:100F900060421070704770B504460D462046FFF75A
:100FA000E5FF70BD10B504462046FFF7DFFF10BD1A
:100FB00000BFFEE7800E00E00EB560208DF8040053
:100FC00008208DF8060000208DF808008DF8090033
:100FD00001A801F0AEFD67200090012220216846A3
:100FE00001F0F7FCC820009001222321684601F09F
:100FF000F0FCC020009001222421684601F0E9FCA9
:10100000F620009001221021684601F0E2FCF42055
:10101000009001221121684601F0DBFC0A200090BB
:1010200001221221684601F0D4FC0EBDF0B52DED71
:10103000108B83B006460F460122282101A801F03B
:1010400095FD012229210DF1050001F08FFD0122FE
:101050002A210DF1060001F089FD01222B210DF15D
:10106000070001F083FD01222C2102A801F07EFD82
:1010700001222D210DF1090001F078FD9DF80400F9
:101080009DF8051040EA012008EE900AB8EEE80A43
:1010900010EE100A02F043FA41EC100BB0EE40CA19
:1010A000F0EE60CA9FEDB30B53EC102B51EC1C0B10
:1010B00002F054F941EC100BB0EE40BAF0EE60BA19
:1010C00051EC1B0B02F03EFA09EE100A9DF80600E7
:1010D0009DF8071040EA012008EE900AB8EEE80AF1
:1010E00010EE100A02F01BFA41EC100BB0EE40CAF1
:1010F000F0EE60CA9FED9F0B53EC102B51EC1C0BD4
:1011000002F02CF941EC100BB0EE40BAF0EE60BAF0
:1011100051EC1B0B02F016FA09EE900A9DF808003C
:101120009DF8091040EA012008EE900AB8EEE80A9E
:1011300010EE100A02F0F3F941EC100BB0EE40CAC9
:10114000F0EE60CA9FED8B0B53EC102B51EC1C0B97
:1011500002F004F941EC100BB0EE40BAF0EE60BAC8
:1011600051EC1B0B02F0EEF908EE100A00240025EA
:101170009FED820AB4EEC09AF1EE10FA06DD9FED03
:10118000800A30EE490AB0EE409A01249FED7B0AB6
:10119000F4EEC09AF1EE10FA06DD9FED790A30EE1A
:1011A000690AF0EE409A0125BCB329EEA90A08EEBF
:1011B000080A10EE101A084602F0B1F941EC100BC3
:1011C000B0EE40DAF0EE60DA02F02EFCB0EE40CA8B
:1011D000F0EE60CA19EE100A02F0A1F941EC100B12
:1011E000B0EE40EAF0EE60EA53EC1C2B51EC1E0B23
:1011F00002F026F941EC100BB0EE40BAF0EE60BA06
:1012000051EC1B0B02F09EF90FEE100AB0EE4F0AE4
:1012100000F0B8F8B1EE40AA37E0FFE729EEA90ADE
:1012200008EE080A10EE101A084602F078F941ECB0
:10123000100BB0EE40EAF0EE60EA02F0F5FBB0EE23
:1012400040DAF0EE60DA19EE100A02F068F941ECCB
:10125000100BB0EE40CAF0EE60CA53EC1D2B51ECFF
:101260001C0B02F0EDF841EC100BB0EE40BAF0EEC2
:1012700060BA51EC1B0B02F065F90FEE100AB0EEEC
:101280004F0A00F07FF8B0EE40AABDB329EE090A7C
:1012900008EE080A10EE101A084602F040F941EC78
:1012A000100BB0EE40EAF0EE60EA02F0BDFBB0EEEB
:1012B00040CAF0EE60CA19EE900A02F030F941EC33
:1012C000100BB0EE40DAF0EE60DA53EC1C2B51EC70
:1012D0001D0B02F0B5F841EC100BB0EE40BAF0EE89
:1012E00060BA51EC1B0B02F02DF90FEE100AB0EEB4
:1012F0004F0A00F047F8F1EE40AA37E0FFE729EE89
:10130000090A08EE080A10EE101A084602F007F95A
:1013100041EC100BB0EE40DAF0EE60DA02F084FB44
:10132000B0EE40EAF0EE60EA19EE900A02F0F7F84B
:1013300041EC100BB0EE40CAF0EE60CA53EC1E2B2D
:1013400051EC1C0B02F07CF841EC100BB0EE40BAF3
:10135000F0EE60BA51EC1B0B02F0F4F80FEE100A3D
:10136000B0EE4F0A00F00EF8F0EE40AA03B0BDEC6C
:10137000108BF0BD08AC1C5A643BAF3F0000FA4430
:1013800000007A45F0EE400AF5EEC00AF1EE10FAE0
:101390003AD29FED3A1A20EEC10A9FED381AB4EE08
:1013A000C10AF1EE10FA20DD9FED351AB4EEC10A44
:1013B000F1EE10FA03DD9FED311AB0EE410ABCEEFA
:1013C000C01A11EE101A88B242F2107191FBF0F1BE
:1013D00088B22C4901EB800191ED001ADFED2A1A49
:1013E00031EE611AB0EE410A46E0BCEEC01A11EED1
:1013F000101A88B2234901EB800191ED001AB1EE79
:10140000411AB0EE410A37E09FED1C1A20EE810A26
:101410009FED1A1AB4EEC10AF1EE10FA20DD9FED2D
:10142000181AB4EEC10AF1EE10FA03DD9FED131A9B
:10143000B0EE410ABCEEC01A11EE101A88B242F2A8
:10144000107191FBF0F188B20E4901EB800191ED32
:10145000001ADFED0D1A31EEC11AB0EE410A0BE0B1
:10146000BCEEC01A11EE101A88B2064901EB8001D9
:1014700091ED001AB0EE410A704700000000C8422A
:1014800000401C46F45800080000B44210B5002388
:1014900003E0002441F823405B1C9342F9DB016028
:1014A00042600024048100EE102AB8EEC00AF7EE74
:1014B000000A70EE200A00EE102AB8EEC00A20EEF4
:1014C000800AF0EE000A80EE201A80ED031A10BDAB
:1014D000F0B505460F890E6846F8275048680E8912
:1014E000761C96FBF0F700FB17640E89864201D14B
:1014F00000260E81002300220AE00E6856F82470B0
:10150000561C06FB0733641C844200D10024521C85
:101510008242F2DB0E89761C0E810E89864201D151
:1015200000260E81D1ED030A00EE103AB8EEC01A83
:1015300081EE200AF0BD000008B5684601F055F8BC
:101540003021012001F0A8F900BF3D21012001F068
:10155000A3F910F0800FF8D101F0A0F84FF47A70E1
:1015600003F012F83D21012001F096F908BD30B5D5
:101570002DED028B83B0B0EE408AF0EE608A8DEDE7
:10158000008ACDED018A01208DF8080002208DF837
:1015900009006C460A223F21204601F062F83521FD
:1015A000012001F079F90546294631A002F02CFA14
:1015B000142002F0E9FF03B0BDEC028B30BD10B582
:1015C0003D21012001F068F9044607E0322002F0D5
:1015D000DBFF3D21012001F05FF9044614F0700F9C
:1015E000F4D110BD2DE9FC5F06460F46FFF7E7FF7B
:1015F0000122FB2101A801F085F99DF8040000F00B
:101600007F0001909DF80490484602F087FF044651
:101610009DF804203F21204601F074F99DF8040054
:10162000801EC0B20190254695ED000A86ED000AA5
:1016300095ED010A87ED000A95F808B0687A0090E8
:1016400094F808A03421012001F026F9D046204664
:1016500002F0E2FE4046BDE8FC9F10B53D210120AE
:1016600001F01AF90446214606A002F0CDF910BD9A
:101670004D6F76656420746F205458202825782992
:10168000200A00005374617475732028257829207E
:101690000A00000033490143334A1160704770B5B6
:1016A000002100230F22C47824B32F4C246804F4B3
:1016B000E064C4F5E064C4F30721C1F10404E3B2BB
:1016C0000A4144789C40E1B28478144021430C07DD
:1016D000210E264C05786155047804F01F0501247D
:1016E000AC4005786D114FF0E02606EB8505C5F896
:1016F000004109E0047804F01F040125A5401C4CBA
:101700000678761144F8265070BD1A4A0A40024302
:10171000154B1B1F1A60704739B1134A121D12680E
:101720000243114B1B1D1A6006E00F4A121D12687E
:1017300082430D4B1B1D1A607047042808D14FF0DF
:10174000E021096941F004014FF0E022116107E056
:101750004FF0E021096921F004014FF0E02211610E
:10176000704700000000FA050CED00E000E400E026
:1017700080E100E080FFFF1F002044490860091D50
:101780000860091D0860091D086041483F4914317F
:101790000860704700213D498279002A3AD00A4604
:1017A000126803689A430B461A600A1D12680368A0
:1017B0009A430B1D1A60027911440A6803681A43A0
:1017C0000A60324A0832126803689A432F4B083382
:1017D0001A601A1D126803689A432C4B0C331A6066
:1017E0004279102A0ED11A1F126803681A43274B38
:1017F00008331A601A1D126803681A43234B0C330E
:101800001A600DE02149427911440A6803681A43BD
:101810000A6005E0027911440A6803689A430A6085
:1018200070470021016001710C214171002181711B
:1018300070471649103109680143144A103211608B
:10184000704701460020114A143212680A4201D042
:10185000012000E0002070470C49143108607047F7
:10186000014600200022094B1B6803EA0102074BD6
:1018700014331B680B4202D00AB1012000E00020A3
:10188000704702491431086070470000003C014075
:10189000FFFF7F0010B504468C48844208D1012127
:1018A000084600F000FB0021012000F0FCFA5EE099
:1018B0008748844208D10121022000F0F4FA002177
:1018C000022000F0F0FA52E08248844208D101215F
:1018D000042000F0E8FA0021042000F0E4FA46E0D9
:1018E0007D48844208D10121082000F0DCFA002163
:1018F000082000F0D8FA3AE07848844208D1012163
:10190000102000F0D0FA0021102000F0CCFA2EE0D8
:101910007348844208D10121202000F0C4FA00213C
:10192000202000F0C0FA22E06E48844208D1012154
:10193000402000F0B8FA0021402000F0B4FA16E090
:101940006948844208D10121802000F0ACFA0021CE
:10195000802000F0A8FA0AE06448844207D10121FF
:10196000801500F0A0FA0021A01500F09CFA10BD2F
:10197000F0B50A4600210023002400BF3DE0012508
:1019800005FA01F3156805EA03049C4234D10568A1
:101990004F000326BE40B543056015794E00B540A3
:1019A0000668354305601579012D02D01579022DA1
:1019B00016D185684F000326BE40B5438560557932
:1019C0004E00B540866835438560456801268E40E7
:1019D000B5434560456896798E40B6B2354345605B
:1019E000C5684F000326BE40B543C560D5794E009B
:1019F000B540C6683543C560491C1029BFD3F0BD4A
:101A00004FF6FF7101600021017141718171C17157
:101A1000704708B54FF480320092009A0A43009252
:101A2000009AC261C161009AC261C2690092C26932
:101A3000009208BD0246002013690B4201D001202C
:101A400000E0002070470146086980B270470246F6
:101A5000002053690B4201D0012000E000207047B4
:101A60000146486980B270470183704741837047DF
:101A70000AB1018300E041837047416170474269C8
:101A80004A4042617047F0B5002300244D07ED0E37
:101A900002FA05F3CE1000F1200555F826504E0746
:101AA000F70E0F26BE40B543CF1000F1200646F8D2
:101AB0002750CE1000F1200555F8265045EA0304C2
:101AC000CE1000F1200545F82640F0BD0000024090
:101AD0000004024000080240000C024000100240D6
:101AE0000014024000180240001C02400020024086
:101AF000FA48006840F00100F84908600020F74902
:101B000008310860F5480068F5490840F349086065
:101B1000F448091D0860081F006820F48020091F90
:101B200008600020ED490C31086070470021EB4A45
:101B3000921C117011460870704710B501460022C2
:101B4000002300204A11012A02D1E44C236808E056
:101B5000022A03D1E14C7034236802E0DF4C743474
:101B6000236801F01F02012494401C4201D001208F
:101B700000E0002010BD38B50020009000240025B2
:101B800000BF3120FFF7D9FF05460098401C0090A8
:101B90000098B0F5A06F01D0002DF2D03120FFF7F2
:101BA000CCFF08B1012400E00024204638BD0146E6
:101BB0000020CA4A106820F0F80040EAC100106016
:101BC0007047C949086070470021C44A70321170DB
:101BD0001170012802D004280AD104E00121BF4A73
:101BE0007032117005E00521BC4A7032117000E0BE
:101BF00000BF00BF7047BD490860704770B5049CC6
:101C000041EA82150126C6EB530645EA064505431F
:101C100045EA0465B14E361D356070BDB2490866AF
:101C20007047820142EA0172AC4B84331A607047FC
:101C3000AD4988667047AC49C864704702460020C9
:101C4000A64B0833186820F0EC6042EA0103184301
:101C5000A24B083318607047024600209F4B0833A0
:101C6000186820F0784042EA010318439B4B083380
:101C70001860704701460020984A0832106820F02A
:101C8000030008431060704794480830006800F073
:101C90000C00704701460020904A0832106820F07E
:101CA000F000084310607047014600208B4A08325C
:101CB000106820F4E050084310607047014600208F
:101CC000864A0832106820F4604040EAC100106083
:101CD0007047F0B5002100220024022500260223CF
:101CE0007E4F08373F6807F00C0121B1042905D069
:101CF000082937D105E07E4F076036E07D4F076049
:101D000033E0764F3F1D3F68C7F38056734F3F1D4A
:101D10003F6807F03F036EB1764FB7FBF3F7DFF88C
:101D2000BCC10CF1040CDCF800C0CCF3881C07FB30
:101D30000CF40CE06E4FB7FBF3F7DFF8A0C10CF129
:101D4000040CDCF800C0CCF3881C07FB0CF4634FD8
:101D50003F1D3F68C7F301477F1C7D00B4FBF5F7CB
:101D6000076002E0624F076000BF00BF5B4F0837AB
:101D70003F6807F0F00109095F4F7A5C0768D740B8
:101D80004760564F08373F6807F4E051890A5A4FB9
:101D90007A5C4768D7408760504F08373F6807F440
:101DA0006041490B544F7A5C4768D740C760F0BD2B
:101DB000002100F44072B2F5407F0AD1474A083250
:101DC000116821F4F8114D4A02401143434A083288
:101DD0001160424A70321268C0F30B031A433F4B42
:101DE00070331A60704741494439086070473F4971
:101DF00040390860704742490860704739B1374A36
:101E0000303212680243354B30331A6006E0334AF1
:101E1000303212688243314B30331A60704739B127
:101E20002E4A3432126802432C4B34331A6006E0D7
:101E30002A4A343212688243284B34331A6070477E
:101E400039B1264A383212680243244B38331A60BB
:101E500006E0224A383212688243204B38331A6037
:101E6000704739B11D4A4032126802431B4B403360
:101E70001A6006E0194A403212688243174B403319
:101E80001A60704739B1154A443212680243134B45
:101E900044331A6006E0114A4432126882430F4B01
:101EA00044331A60704739B10C4A10321268024349
:101EB0000A4B10331A6006E0084A10321268824357
:101EC000064B10331A607047E1B1044A14321268AD
:101ED0000243024B14331A6019E00000003802403C
:101EE000FFFFF6FE1030002400004742800E4742FC
:101EF0000024F40000127A0048000020FFFCFF0FCD
:101F00005C0147425B4A126882435A4B1A60704731
:101F100039B1584A121D12680243564B1B1D1A60F4
:101F200006E0544A121D12688243524B1B1D1A6070
:101F3000704739B14F4A0C32126802434D4B0C3393
:101F40001A6006E04B4A0C3212688243494B0C334C
:101F50001A60704739B1474A103212680243454B44
:101F600010331A6006E0434A103212688243414B34
:101F700010331A60704739B13E4A3C32126802434E
:101F80003C4B3C331A6006E03A4A3C3212688243CA
:101F9000384B3C331A60704739B1364A40321268C8
:101FA0000243344B40331A6006E0324A4032126832
:101FB0008243304B40331A60704739B12D4A443266
:101FC000126802432B4B44331A6006E0294A44321C
:101FD00012688243274B44331A60704739B1254A4F
:101FE0004C3212680243234B4C331A6006E0214AFC
:101FF0004C32126882431F4B4C331A60704739B120
:102000001C4A5032126802431A4B50331A6006E0E1
:10201000184A503212688243164B50331A60704788
:1020200039B1144AD21F12780243124BDB1F1A70C7
:1020300006E0104AD21F127882430E4BDB1F1A7043
:1020400070470C486030006840F08070094960318A
:102050000860704701460020064A083A12680A42A2
:1020600001D0012000E0002070470249891F08705C
:10207000704700001438024010B50446F648844208
:1020800008D101218014FFF765FF0021A014FFF79C
:1020900061FF16E0F148844208D101210014FFF7E6
:1020A00048FF00212014FFF744FF0AE0EC48844277
:1020B00007D10121C013FFF73CFF0021E013FFF718
:1020C00038FF10BD10B50022028802F441520B887F
:1020D0004C8823438C882343CC8823430C89234397
:1020E0004C8923438C892343CC8923431A430280A0
:1020F000838B4FF2FF74234083830B8A038210BDCE
:102100002DE9F04F0025022300240127002200269C
:10211000944690469146B0F81CA04FF2400B0AEA54
:102120000B0AA0F81CA04FF0020AA0F820A0858B93
:10213000D1F808A0BAF1020F01D100BF6AE0B1F8EE
:1021400004A0BAF1000F01D1012700E00227DFF857
:1021500014A3DAF800A01AF4000F09D0DFF804A3E2
:10216000DAF800A02AF4000ADFF8F8B2CBF800A0F1
:10217000DFF8F0A20AF17C0ADAF800A0CAF38818A6
:10218000DFF8E0A20AF17C0ADAF800A0CAF30279CB
:10219000DFF8D0A2AAF1040ADAF800A00AF03F0C96
:1021A000DFF8C4A2BAFBFCFA0AFB08FABAFBF9F69C
:1021B000B1F806A0BAF5007F0ED14FEA162A0AEB55
:1021C0008A0A4FEA4A0AD1F808B0BAFBFBFA0AF1C8
:1021D000050A1FFA8AF20FE04FEA471AB6FBFAFA2D
:1021E0000AEB8A0A4FEA4A0AD1F808B0BAFBFBFAAE
:1021F0000AF1050A1FFA8AF24FF00A0AB2FBFAF254
:1022000002F00104A2EB040ACAF34F034FF6FF7A6F
:102210000AEA0424022B01DBFF2B01DD0223002448
:10222000B1F806A04AEA040A4AEA030AA0F820A084
:10223000B1F804A0B1F80CB04AEA0B0AB1F802B048
:102240004AEA0B0AB1F800B04AEA0B0A4AF4006AFB
:102250004AEA05058583BDE8F08F002101804180B1
:102260008180C180018141818181C18107210182F9
:1022700070470021018041808180C18002218160FE
:1022800000218181704721B1028842F04002028022
:1022900004E002884FF6BF731A400280704721B1F4
:1022A000828B42F48062828304E0828B4FF6FF339C
:1022B0001A408283704702884FF2FF731A400280EF
:1022C00002880A4302807047B1F5804F04D102882A
:1022D00042F48042028004E002884BF6FF731A4009
:1022E00002807047A1F57E42FF3A04D0028842F492
:1022F0008072028004E002884FF6FF631A40028079
:10230000704721B1828842F00402828004E0828812
:102310004FF6FB731A408280704721B1828842F0E9
:102320001002828004E082884FF6EF731A408280A8
:10233000704730B500220023848B4FF240052C40BB
:10234000848302240484828B0C88B4F5007F01D03E
:102350000C8814B94FF4807308E00C88B4F5407F02
:1023600003D00C88B4F5807F00D100238C888D8940
:102370002C434D882C431C4344F400642243828345
:1023800030BD0146888970478181704721B102883C
:1023900042F40052028004E002884DF6FF731A40B6
:1023A00002807047018841F48051018070470246E5
:1023B0000020012901D0108B00E0908A704701466F
:1023C000088A70471AB183880B43838002E08388B0
:1023D0008B438380704730B5002400230C11012506
:1023E000A540ABB21AB185881D43858002E085887F
:1023F0009D43858030BD0246002013890B4201D0E9
:10240000012000E000207047CA4302817047F0B508
:102410000246002000240023002501F00F070126BA
:10242000BE40B4B20B1101269E40B3B2968806EAB4
:1024300003051689264202D00DB1012000E00020DC
:10244000F0BD10B5002201F00F040123A3409AB2A1
:10245000D343038110BD000000300140003800402C
:10246000003C00400838024000127A0010B50121FB
:102470008803FFF76FFD00214FF48040FFF76AFDEE
:1024800010BD1A490860704730B500228B071C0F39
:102490000F2303FA04F2154B08338C1053F8243041
:1024A0009343124C08348D1044F8253023468C1089
:1024B00053F824308C07240F00FA04F423430B4C08
:1024C00008348D1044F8253030BD09490860704744
:1024D000084908607047002004492031096811F458
:1024E000807F01D0012000E00020704700380140CB
:1024F000DC0027420004274200B587B00121880391
:10250000FFF7AFFC01210220FFF778FC012110202A
:10251000FFF774FC05220D21F648FFF7B4FA0522F7
:102520000E21F448FFF7AFFA05220F21F148FFF71B
:10253000AAFA02208DF8180000208DF81A00022057
:102540008DF819008DF81B000003059005A9E948D6
:10255000FFF70EFA4FF40040059005A9E548FFF794
:1025600007FA4FF48040059005A9E248FFF700FA0A
:10257000E148FFF781FD0020ADF80000ADF8040050
:10258000ADF80600ADF808004FF44070ADF80A0051
:102590000820ADF80C000020ADF80E000720ADF8C3
:1025A00010004FF48270ADF802006946D248FFF780
:1025B00089FD0121D048FFF766FE1020059001201B
:1025C0008DF8180000208DF81A0002208DF81900EF
:1025D00001208DF81B0005A9C848FFF7C9F9102193
:1025E000C648FFF741FA07B000BD10B50446FFF733
:1025F00083FF10BD0020704710B504464FF47040B3
:10260000BF49086009E0BE490868411EBC4A116024
:1026100018B9FFF7EFFFC0B210BD0221B648FFF7AF
:10262000EAFE0028EFD02146B348FFF7ADFE4FF495
:102630007040B349086009E0B1490868411EB04ADA
:10264000116018B9FFF7D6FFC0B2E5E70121AA482B
:10265000FFF7D1FE0028EFD0A748FFF792FEC0B2E7
:10266000DAE770B505460E461446012C01DD46F04A
:1026700040061021A148FFF7F9F93046FFF7BCFFEB
:1026800005E02878FFF7B8FF601E84B26D1C012CAE
:10269000F7DA10219948FFF7E7F970BD08B50C206B
:1026A000009001220B216846FFF7DBFF002000901D
:1026B00001220C216846FFF7D4FF5D200090012223
:1026C0000D216846FFF7CDFFA420009001220E21C6
:1026D0006846FFF7C6FF6620009001220F2168467A
:1026E000FFF7BFFF0E200090012210216846FFF780
:1026F000B8FF3B200090012211216846FFF7B1FF8F
:1027000073200090012212216846FFF7AAFF4220A1
:102710000090012213216846FFF7A3FFF8200090E4
:10272000012214216846FFF79CFF0020009001223F
:102730000A216846FFF795FF00200090012215212D
:102740006846FFF78EFFB6200090012221216846DF
:10275000FFF787FF10200090012222216846FFF733
:1027600080FF30200090012217216846FFF779FF93
:1027700018200090012218216846FFF772FF1D20E3
:102780000090012219216846FFF76BFF1C20009082
:1027900001221A216846FFF764FFC720009001223A
:1027A0001B216846FFF75DFF4020009001221C219D
:1027B0006846FFF756FFB020009001221D216846B1
:1027C000FFF74FFFEA200090012223216846FFF720
:1027D00048FF0A200090012224216846FFF741FFAC
:1027E00000200090012225216846FFF73AFF1920BA
:1027F0000090012226216846FFF733FF5920009000
:10280000012229216846FFF72CFF88200090012231
:102810002C216846FFF725FF3120009001222D2151
:102820006846FFF71EFF0B20009001222E2168460C
:10283000FFF717FF07200090012203216846FFF7EA
:1028400010FF29200090012200216846FFF709FFB0
:1028500006200090012202216846FFF702FF0420B3
:102860000090012207216846FFF7FBFE44200090FC
:10287000012208216846FFF7F4FE002000900122A3
:1028800009216846FFF7EDFE0A200090012206218B
:102890006846FFF7E6FE08BD70B505460C460DB16B
:1028A00044F0800410211548FFF7E0F82046FFF7B8
:1028B000A3FE0020FFF7A0FE064610210F48FFF7F9
:1028C000D3F8304670BD10B530210120FFF7E4FF8A
:1028D00010BD70B505460C460A2C01D0FF2070BD16
:1028E00022463F212846FFF7BCFE35210120FFF795
:1028F000D3FFF4E70004024000380040001002401B
:102900005800002070B506460C461546012D02DD24
:1029100044F0C00401E044F0800410211048FFF7A7
:10292000A5F82046FFF768FE06E00020FFF764FEEA
:102930003070681E85B2761C002DF6DC1021084828
:10294000FFF792F870BD70B505460C4622463F2150
:102950002846FFF7D7FF34210120FFF79DFF70BD08
:10296000001002400020704710B504464FF480501C
:10297000F749086009E0F6490868411EF44A116009
:1029800018B9FFF7EFFFC0B210BD0221F148FFF701
:1029900032FD0028EFD02146EE48FFF7F5FC4FF45A
:1029A0008050EB49086009E0E9490868411EE84A9F
:1029B000116018B9FFF7D6FFC0B2E5E70121E5487D
:1029C000FFF719FD0028EFD0E248FFF7DAFCC0B2AC
:1029D000DAE770B505460E461446012C01DD46F0D7
:1029E00040060821DC48FFF741F83046FFF7BCFFFE
:1029F00005E02878FFF7B8FF601E84B26D1C012C3B
:102A0000F7DA0821D448FFF72FF870BD00B587B07A
:102A100001210803FFF736FA01210846FFF7EEF916
:102A200001211020FFF7EAF901211020FFF7E6F954
:102A300001211020FFF7E2F905221146C748FFF7F0
:102A400022F805220621C548FFF71DF805220721B7
:102A5000C248FFF718F802208DF8180000208DF802
:102A60001A0002208DF81B008DF819002020059017
:102A700005A9BA48FEF77CFF8020059005A9B74854
:102A8000FEF776FF4020059005A9B448FEF770FFD9
:102A9000B048FFF7F1FA0020ADF80000ADF80400EF
:102AA000ADF80600ADF808004FF40070ADF80A006C
:102AB0000820ADF80C000020ADF80E000720ADF89E
:102AC00010004FF48270ADF802006946A148FFF78C
:102AD000F9FA01219F48FFF7D6FB08200590012055
:102AE0008DF8180000208DF81A0002208DF81900CA
:102AF00005A99948FEF73CFF08219748FEF7B4FF67
:102B00000120059000208DF818008DF81A00022091
:102B10008DF8190000208DF81B0005A98E48FEF7DE
:102B200027FF0220059005A98B48FEF721FF07B07B
:102B300000BD38B5044600200090FFF767FF2078FD
:102B4000A17808436178084300900122202168465B
:102B5000FFF73FFFE078217908436179084300904F
:102B6000012224216846FFF734FF38BD70B50646C0
:102B70000C461546012D02DD44F0C00401E044F08E
:102B8000800408217448FEF771FF2046FFF7ECFE31
:102B900006E00020FFF7E8FE3070681E85B2761C64
:102BA000002DF6DC08216C48FEF75EFF70BD38B5DD
:102BB000044600200090012223216846FFF7D6FF3B
:102BC000207861780843A1780843009001222321EE
:102BD0006846FFF7FEFE38BD08B501222021684691
:102BE000FFF7C4FF9DF8000000F00F0000909DF873
:102BF00000000090012220216846FFF7EAFE08BD90
:102C000038B50446012220216846FFF7AFFF9DF842
:102C1000000000F00F0000909DF80000204300909D
:102C2000012220216846FFF7D4FE38BD38B504469E
:102C3000012224216846FFF799FF9DF8000000F06B
:102C4000C70000909DF8000020430090012224213D
:102C50006846FFF7BEFE38BD30B52DED068B87B058
:102C600005460024002008EE100A0122102103A8C6
:102C7000FFF77CFF0122112102A8FFF777FF012255
:102C8000122101A8FFF772FF0122242104A8FFF7F7
:102C90006DFF0122282105A8FFF768FF01222921E5
:102CA0000DF11500FFF762FF01222A210DF1160038
:102CB000FFF75CFF01222B210DF11700FFF756FFF4
:102CC00001222C2106A8FFF751FF01222D210DF131
:102CD0001900FFF74BFF9DF81000C0F3C200052854
:102CE00073D2DFE800F0034173A4D50000242BE089
:102CF00005A8015D05AA601C105C41EA002000B235
:102D000008EE100AB8EEC80A10EE100A00F007FC30
:102D100041EC100BB0EE40AAF0EE60AA9FED100B54
:102D200053EC102B51EC1A0B00F018FB41EC100B7C
:102D3000B0EE409AF0EE609A51EC190B00F002FCF4
:102D400028602D1DA01CC4B2062CD1DBD2E00000EF
:102D50005C000020003001400010024000000240F2
:102D600008AC1C5A643BAF3F00242BE005A8015D72
:102D700005AA601C105C41EA002000B208EE100AAF
:102D8000B8EEC80A10EE100A00F0C9FB41EC100BB7
:102D9000B0EE40AAF0EE60AA9FED590B53EC102B59
:102DA00051EC1A0B00F0DAFA41EC100BB0EE409A3D
:102DB000F0EE609A51EC190B00F0C4FB28602D1D59
:102DC000A01CC4B2062CD1DB94E092E000242BE0DE
:102DD00005A8015D05AA601C105C41EA002000B254
:102DE00008EE100AB8EEC80A10EE100A00F097FBC1
:102DF00041EC100BB0EE40AAF0EE60AA9FED420B42
:102E000053EC102B51EC1A0B00F0A8FA41EC100B0C
:102E1000B0EE409AF0EE609A51EC190B00F092FB84
:102E200028602D1DA01CC4B2062CD1DB62E000245A
:102E30002BE005A8015D05AA601C105C41EA00209A
:102E400000B208EE100AB8EEC80A10EE100A00F040
:102E500066FB41EC100BB0EE40AAF0EE60AA9FEDCD
:102E60002C0B53EC102B51EC1A0B00F077FA41ECC1
:102E7000100BB0EE409AF0EE609A51EC190B00F096
:102E800061FB28602D1DA01CC4B2062CD1DB31E0F3
:102E900000242BE005A8015D05AA601C105C41EA36
:102EA000002000B208EE100AB8EEC80A10EE100AB0
:102EB00000F035FB41EC100BB0EE40AAF0EE60AA3A
:102EC0009FED150B53EC102B51EC1A0B00F046FA4A
:102ED00041EC100BB0EE409AF0EE609A51EC190BF9
:102EE00000F030FB28602D1DA01CC4B2062CD1DBE5
:102EF00000E000BF00BF07B0BDEC068B30BD000096
:102F000008AC1C5A643BBF3F068195438B6CC73F9E
:102F100008AC1C5A643BCF3F08AC1C5A643BDF3FF3
:102F20001CB56846FEF76CFD00208DF805000120F9
:102F30008DF804008DF80700802000906946FE4857
:102F4000FEF716FD4FF4807000906946FA48FEF7D0
:102F50000FFD4FF4007000906946F748FEF708FD3A
:102F60004FF4806000906946F348FEF701FD1CBDF8
:102F70001CB56846FEF744FD00208DF805008DF86D
:102F8000040001208DF80700022000906946EA48FD
:102F9000FEF7EEFC042000906946E748FEF7E8FCE7
:102FA000082000906946E448FEF7E2FC40200090CB
:102FB0006946E148FEF7DCFC1CBD10B50121082084
:102FC000FEF71CFFFFF7D4FFFFF7AAFF10BD10B5F7
:102FD00000240221D848FEF72DFD04460421D648DE
:102FE000FEF728FD04EB4000C4B20821D248FEF7EA
:102FF00021FD04EB8000C4B24021CF48FEF71AFD4A
:1030000004EBC000C4B2204610BD10B5044694B90C
:103010008021C948FEF72AFD4FF48071C648FEF7AB
:1030200025FD4FF40071C448FEF720FD4FF4806188
:10303000C148FEF71BFD012C0FD18021BE48FEF7D1
:1030400013FD2102BC48FEF70FFD6102BA48FEF7EE
:103050000BFDA102B848FEF707FD10BD10B5002416
:103060008021B548FEF7E6FC04464FF48071B24873
:10307000FEF7E0FC04EB4000C4B24FF40071AE4830
:10308000FEF7D8FC04EB8000C4B24FF48061AA487C
:10309000FEF7D0FC04EBC000C4B2204610BD10B552
:1030A00004467CB90221A448FEF7E0FC0421A248B2
:1030B000FEF7DCFC0821A048FEF7D8FC40219E4822
:1030C000FEF7D4FC012C0FD102219B48FEF7CCFC6B
:1030D00004219948FEF7C8FC08219748FEF7C4FC74
:1030E00040219548FEF7C0FC10BD1CB56846FEF7B0
:1030F00087FC00208DF805008DF8040001208DF874
:1031000007008020009069468B48FEF731FC4FF4A1
:103110008070009069468848FEF72AFC4FF40070E2
:10312000009069468448FEF723FC4FF480600090CD
:1031300069468148FEF71CFC1CBD1CB56846FEF7BD
:103140005FFC00208DF8050001208DF804008DF84B
:1031500007000220009069467748FEF709FC04202A
:10316000009069467448FEF703FC08200090694609
:103170007148FEF7FDFB4020009069466E48FEF75F
:10318000F7FB1CBD10B50024FFF7D7FFFFF7ADFF1D
:103190000020FFF784FFFFF761FF0446FFF7E8FE1A
:1031A000FFF7BEFE0020FFF730FFFFF710FF00EB38
:1031B0000410C4B2FFF701FF204610BD0146EE29FE
:1031C00001D101207047ED2901D10220FAE7EB2956
:1031D00001D10320F6E7DE2901D10420F2E7DD2941
:1031E00001D10520EEE7DB2901D10620EAE7BE295F
:1031F00001D10720E6E7BD2901D10820E2E7BB297C
:1032000001D10920DEE77D2901D10020DAE70B207A
:10321000D8E70EB501218803FEF734FE0121032013
:10322000FFF732F902210320FFF72EF903210846A8
:10323000FFF72AF906210320FFF726F90220019063
:1032400000208DF808000C208DF8090001208DF871
:103250000A0001A8FEF79EFA0420019001A8FEF7DB
:1032600099FA0820019001A8FEF794FA40200190F5
:1032700001A8FEF78FFA07208DF8000001208DF8D5
:10328000030002208DF8010000208DF8020068463E
:10329000FEF705FA08208DF8000002208DF80100E5
:1032A00001208DF802006846FEF7F9F909208DF833
:1032B000000002208DF801008DF802006846FEF73C
:1032C000EEF917208DF8000002208DF80100032090
:1032D0008DF802006846FEF7E2F90EBD08B507203A
:1032E0008DF8000000208DF8030002208DF8010009
:1032F00000208DF802006846FEF7D1F908208DF80D
:10330000000002208DF8010001208DF802006846BF
:10331000FEF7C5F909208DF8000002208DF80100A4
:103320008DF802006846FEF7BAF917208DF8000004
:1033300002208DF8010001E0000C024003208DF80E
:1033400002006846FEF7ABF908BD034611F8012BF1
:1033500000F8012B002AF9D1184670472DE9FE4FDD
:1033600081EA030404F0004421F0004100944FF08E
:10337000000B23F0004350EA010402D052EA030498
:1033800004D10020014603B0BDE8F08FC3F30A5416
:10339000C1F30A552C44A4F2F3340194A0FB025467
:1033A000C1F3130141F48011C3F3130343F48013F9
:1033B00001FB024400FB034E840A970A44EA81544D
:1033C00047EA8357A4FB076802958D0A05FB07852A
:1033D0004FEA932C04FB0C542705029D4FEA065834
:1033E00047EA1637B5EB08056EEB070C870E920E11
:1033F00047EA811742EA8312A7FB0201B6EB0B01F1
:1034000064EB00042B0D43EA0C335E1844EB1C50B4
:10341000DA465146E7FB0201C5F313044FEA0B33CA
:1034200043EA14534FEA0432019C43EA0603A4F131
:103430000C040294009CCDE900B400F029F9A2E745
:103440002DE9F04D81EA030404F0004B21F0004522
:1034500014464FF0000A23F0004150EA050220D044
:1034600054EA01021DD0C5F30A570246C5F31303FF
:10347000C1F31300C1F30A5640F4801543F48013DE
:10348000A7EB0608101BD64608F2FD3873EB0500C3
:1034900002D308F1010801E092185B41B8F1000F76
:1034A00003DA00200146BDE8F08D00204FF48011C2
:1034B000064684460EE0171B73EB050705D3121B67
:1034C00063EB050306434CEA010C49084FEA300060
:1034D00092185B4150EA0107EDD152EA030012D085
:1034E00082EA040083EA0501084303D100224FF079
:1034F000004308E0101BAB4102D20122002302E08E
:103500006FF0010253101AEB06004CEB085110EB60
:103510000A0041EB0B01BDE8F04D00F0ACB800F043
:10352000004230F000400AD0C10D01F56071C0F3D7
:10353000160042EA0151C2084007114370470020BB
:103540000146704701F0004330B421F0004150EAD9
:10355000010206D00A0DA2F56072C1F31301002A20
:1035600002DC30BC00207047440F44EAC104C100B3
:10357000E01830BC00EBC25000F047B830B50B4645
:10358000014600202022012409E021FA02F59D4293
:1035900005D303FA02F5491B04FA02F52844151E67
:1035A000A2F10102F1DC30BD2DE9F05F05460020FB
:1035B00092469B4688460646814640241BE02846A4
:1035C00041464746224600F0FAF953465A46C01A89
:1035D000914110D311461846224600F0E1F92D1A08
:1035E00067EB01084F4622460120002100F0D8F980
:1035F00017EB00094E41201EA4F10104DFDC484610
:1036000031462A464346BDE8F09F0029A8BF7047CF
:10361000401C490008BF20F00100704710B4B0FA08
:1036200080FC00FA0CF050EA010404BF10BC7047A3
:1036300049B1CCF1200421FA04F411FA0CF118BFBD
:10364000012121430843A3EB0C01CB1D0106000A15
:10365000002BBEBF002010BC704700EBC3501044CD
:103660000029A4BF10BC7047401C490008BF20F0CF
:10367000010010BC704710B5002B08DA401C41F166
:10368000000192185B411A4301D120F0010010BDE6
:103690002DE9F04D92469B4611B1B1FA81F202E05C
:1036A000B0FA80F22032904600F07AF904460F46D4
:1036B00040EA0A0041EA0B0153465A46084303D147
:1036C00020463946BDE8F08D114653EA010015D079
:1036D000C8F14002504600F072F905460E465046C9
:1036E0005946424600F05CF9084301D0012000E051
:1036F0000020054346EAE0762C4337430A984FEA18
:103700004453A0EB08004FEAD4240A304FF00002E3
:1037100044EA47544FEAD72502D500200146D1E7B5
:10372000010510196941DDE9084500196941BDE845
:10373000F04DA0E72DE9FE4F804681EA0300C00F5F
:103740000C46009021F0004123F00045B8EB020048
:10375000A94105D24046214690461C460B460246EA
:1037600023F00040104304D14046214603B0BDE899
:10377000F08F270DC7F30A00C3F30A510290401AD5
:103780000190402866DAC3F3130040F4801B0098D0
:10379000924620B10023D2EB030A63EB0B0B019896
:1037A0005946C0F14002504600F0FAF806460D4670
:1037B00050465946019A00F012F910EB0800614199
:1037C000002487EA115284EAE7731A433BD0009A37
:1037D0003AB3019A012A4FEA075210DC001B61EB51
:1037E00002014FF0004202EA0752CDE90042001CFC
:1037F00041F5801132462B46FFF74AFFB6E7001B22
:1038000061EB0201001C41F5801300185B41201898
:10381000A2F5001747EB030140EAD570B6196D41D8
:1038200011E06D084FEA360645EAC0754FEA0752C7
:10383000001B61EB0201001C41F5801149084FEAB1
:1038400030000019514132462B4603B0BDE8F04F1D
:10385000FFF711BF0098012240000023D0EB0202C5
:1038600063EBE073009821464FEAE074B8EB000088
:1038700061EB0401E9E783F000435BE781F000417D
:1038800058E72DE9F04D00231A461B1A8A4103DB45
:1038900000200146BDE8F08DC1F30A52C1F31301C7
:1038A00041F480154FF0000BD10702D100186D4193
:1038B000521E0027044640F2FF11384601EB620A0F
:1038C0003E468046024600204FF4801100F077F813
:1038D000C2197141BB1846EB0100B4EB030C75EB48
:1038E000000C04D3E41A65EB000517460E462419B4
:1038F00008F101006D4180463428E3DDF91946EBFB
:103900000600091BA84103D24FF0FF32134601E025
:10391000002213461BEB070046EB0A51BDE8F04DB1
:10392000FFF7A9BEC1F30A52C1F3130140F2FF33FE
:1039300041F480119A4202DA00200146704740F2B9
:1039400033439A42A2F2334202DC524200F037B8CB
:1039500000F026B830B5002904DB4FF000444042A7
:1039600064EB0101002B04DB4FF00044524264EB96
:103970000303994208BF904230BD0000064C074D3A
:1039800006E0E06840F0010394E80700984710342F
:10399000AC42F6D3FCF7FCFB885A0008A85A000892
:1039A000202A04DB203A00FA02F1002070479140FF
:1039B000C2F1200320FA03F3194390407047202AF4
:1039C00004DB203A21FA02F00021704721FA02F3C9
:1039D000D040C2F120029140084319467047202A86
:1039E00006DBCB17203A41FA02F043EAE07306E027
:1039F00041FA02F3D040C2F1200291400843194637
:103A000070470000000000000FB4054B10B503A97B
:103A1000044A029800F02CF910BC5DF814FB000079
:103A2000970F00084000002000B52DED048BB0EE8C
:103A3000408AF0EE608A83B051EC180BFFF721FF4B
:103A400041EC190B19EE100A19EE901A8DED009B3E
:103A5000002818BF0120084320F00040C0F17F601B
:103A600000F1E040C00F14D018EE101A18EE900AC2
:103A70008DED008B002918BF0121084320F0004084
:103A8000C0F17F6000F1E040C00F04BF012000F0F2
:103A900017F8B0EE490A03B0F0EE690ABDEC048BEA
:103AA00000BD02E008C8121F08C1002AFAD1704701
:103AB0007047002001E001C1121F002AFBD17047AE
:103AC0000149086070470000840000202DE9FF5F75
:103AD000DDE90220010DDDF838B0024310D10F9866
:103AE00001244CA2012808D0002100980F9BC0E9B6
:103AF0000021C0E90243BDE8FF9F6FEA0B01F4E734
:103B0000A1F2FF3144F6105041430D140F980128E3
:103B10000ED0A5EB0B00401C4FF000043E4EDFF82A
:103B2000FC90B0F1000AA04605DACAF1000717E0E0
:103B3000CBF10000F0E7074612E0F80707D0224675
:103B4000334640464946FFF709FC804689462246EF
:103B5000334610461946FFF701FC04460E467F1017
:103B6000002FEAD1DDE90201BAF1000F42464B46CF
:103B700002DAFFF7F3FB01E0FFF762FC04460E46B2
:103B80000022274BFFF7E6FE03D84FF0FF30014637
:103B900007E00022234B20463146FFF7CBFDFFF71D
:103BA000C1FE102409E0002C0ADB0A220023FFF7E3
:103BB000FBFC019B30321A55641E50EA0102F2D11F
:103BC000641C019AC4F1110314440F9A012A09D00C
:103BD0000122084301D15B450FDD4FF0000205F1E2
:103BE00001050DE0084303D1A3EB0B056D1E09E0B1
:103BF00000204FF0110B0F9088E701DA00226D1EB4
:103C0000002A83D000980F99C0E90231C0E900452D
:103C100071E7000030000000000024400000F03F89
:103C20000000F0430000E03F10B5002A06DA22F061
:103C30000042D21D22F00703102203E0D21C22F022
:103C400003030C2213B19C188C4201D9012010BD32
:103C5000024401448360C0E90021C91AD018884297
:103C600002D810600246F9E70020106010BD000085
:103C70002DE9FF4F95B09B4689460646002512E286
:103C8000252878D10024761CF94A2746012105947D
:103C90003378203B01FA03F0104202D00443761C33
:103CA000F6E730782A2811D06FF02F033078A0F192
:103CB0003002092A16D8059A44F0020402EB820267
:103CC00003EB42021044761C0590EFE759F8042BF1
:103CD0000592002A03DA504244F40054059044F05F
:103CE0000204761C30782E2816D116F8010F44F005
:103CF00004042A280DD06FF02F023078A0F1300391
:103D0000092B09D807EB870302EB4303C718761C7E
:103D1000F3E759F8047B761C30786C280FD006DC6A
:103D20004C2817D068280DD06A2814D104E07428D4
:103D300010D07A280FD10DE044F400140AE044F4C6
:103D4000801401E044F440147278824202D1761C5F
:103D500004F58014761C307866280BD013DC5828C4
:103D600077D009DC002875D04528F6D04628F4D055
:103D700047281AD19FE118E0632835D0642879D00C
:103D8000652812D197E1702873D008DC6728F1D03C
:103D900069286FD06E280DD06F2806D1B5E0732842
:103DA0002CD0752875D0782874D05A46179990472A
:103DB0006D1C76E1C4F30250022809D003280DD00F
:103DC000D9F8001004280DD00D6009F1040968E14C
:103DD000D9F80010EA17C1E90052F6E7D9F8001047
:103DE0000D80F2E70D70F0E719F8041B8DF8001054
:103DF00000208DF80100EA46012003E059F804ABE9
:103E00004FF0FF3061074FF0000102D40DE008F1E0
:103E100001018846B9420FDA8045F8DB1AF808102C
:103E20000029F4D108E008F1010188468142FADB5B
:103E30001AF808100029F6D105985B46A0EB080790
:103E400021463846179A00F09EFA284400EB0805F0
:103E500007E04DE02BE10DE01AF8010B5A461799E7
:103E60009047B8F10108F7D25B4621463846179AC9
:103E700014E142E00A220092C4F302524FF0000A19
:103E8000022A08D059F804CB032A4FEAEC710AD071
:103E90000DE029E02AE009F1070121F00702F2E82C
:103EA00002C1914609E00FFA8CFC4FEAEC71042A3A
:103EB00003D14FFA8CFC4FEAEC71002907DA0A466D
:103EC0000021DCF1000C61EB02012D2202E0220551
:103ED00004D52B228DF80420012203E0E20701D053
:103EE0002022F7E7904653E00A2102E010220DE07D
:103EF00010214FF0000A00910BE010224FF0000A51
:103F000044F004040827009203E008224FF0000A5E
:103F10000092C4F30252022A05D059F804CB0021C2
:103F2000032A08D009E009F1070121F00702F2E8AD
:103F300002C1914605E01FFA8CFC042A01D10CF065
:103F4000FF0C4FF00008220722D5702827D0009BD5
:103F500083F0100353EA0A0309D15CEA010206D098
:103F600030228DF804208DF8050002229046009B37
:103F700083F0080353EA0A030AD15CEA010201D183
:103F8000620705D530228DF804204FF001087F1E0E
:103F9000582809D037A003900EA8029013E04022C1
:103FA0008DF804200122E1E737A0F4E7534660468C
:103FB000009AFFF7F9FA84460398825C0298A0F110
:103FC0000100029002705CEA0100EFD1029806A99C
:103FD000A1EB000000F1200A600702D524F4803430
:103FE00000E00127574502DDA7EB0A0000E00020B2
:103FF00000EB0A01009005984144A0EB01000590F8
:10400000E00306D45B462146179A059800F0BBF9F9
:104010000544002706E001A85A46C05D179990475D
:104020006D1C7F1C4745F6DBE0030CD55B46214643
:10403000179A059800F0A7F9054404E030205A4685
:10404000179990476D1C0099481E00900029F5DCD7
:1040500008E0029802995A460078491C0291179983
:1040600090476D1CBAF10001AAF1010AF1DC6BE185
:10407000092801003031323334353637383961623E
:104080006364656600000000303132333435363702
:1040900038394142434445460000000000F060F9D1
:1040A000054406F10106307800287FF4E9AD19B027
:1040B0002846BDE8F08F620700D4062709F1070201
:1040C00022F0070CFCE80223E14603F000485FEA17
:1040D000080C02D00FF27C2C0DE05FEA045C02D5E4
:1040E0000FF2742C07E05FEAC47C02D00FF26C2C54
:1040F00001E0AFF2700C4FF0FF3823F00043CDF831
:1041000050C065280CD006DC452809D046281DD0B3
:1041100047283ED13EE0662818D0672839D139E0DB
:104120000021112F01DB112000E0781CCDE90001F6
:1041300006A90EA8FFF7CAFCDDE90F010E9A03914C
:104140000021009207F1010A04914EE04FF0004077
:104150000097CDE9011006A90EA8FFF7B7FCDDE92D
:104160000F0203920E9B11990022DDF80CA0009320
:10417000049219B907F1010100EB010AB7EB0A003B
:1041800004D4C0F1FF3007F1010A0490AAEB070044
:10419000019046E0012F00DA01270021112F01DDF7
:1041A000112000E03846CDE9000106A90EA8FFF76E
:1041B0008DFCDDE90F010E9A03910021049100921C
:1041C000BA4621070CD40399514500DA8A46BAF160
:1041D000010F05DD009AAAF10101515C302908D0D8
:1041E000B84202DA10F1040F06DA0121CDE901101C
:1041F00017E0AAF10101E9E7002805DC0499014470
:104200000491AAEB000102E0411C514500DD8A4601
:104210000499A0EB010000F1010001904FF0004073
:104220000290200704D40198504501DBCDF80480AA
:1042300000208DF84F0002980DF14F07B0F1004FAC
:1042400025D02B200E9002984FF0020800280CDA9F
:10425000404202902D200E9007E00A210298FFF7BD
:104260008DF93031029007F8011DB8F10001A8F175
:104270000108F2DC02980028EFD1791E0E98087030
:10428000307800F0200040F0450007F8020D12A839
:10429000A0EB070000F107081498007800B1012096
:1042A00000EB0A01019801EBE07105984144A0EB95
:1042B0000100A0F101000590E00306D45B46214611
:1042C000179A059800F05FF805441498007820B11B
:1042D0005A461799904705F10105E00323D55B463F
:1042E0002146179A059800F04EF805441BE0049803
:1042F000002807DBDDE90301884203DD0098405C0C
:10430000179901E0179930205A46904704986D1C80
:10431000401C04900198401E019004D12E205A4662
:10432000179990476D1CBAF10001AAF1010ADEDC71
:1043300005E017F8010B5A46179990476D1CB8F124
:104340000001A8F10108F4DC5B462146179A0598A4
:10435000A4E600002D0000002B000000200000005B
:104360002DE9F041044600251E461746880405D471
:1043700006E039462020B04705F10105641EF8D556
:104380002846BDE8F0812DE9F041044600251E468F
:104390009046C80301D5302700E02027880405D5C2
:1043A00006E041463846B04705F10105641EF8D5E0
:1043B0002846BDE8F081000008480068C0010BD520
:1043C00007480068C00707D0054880380068002803
:1043D00002DA04490120087070470000FCED00E09B
:1043E000800E00E0720000204FF06042D36F002B7F
:1043F000FCD0C36AD367D36F002BFCD0C07840EAEF
:104400000120A2F87C0070474FF06041CA6F002A7B
:10441000FCD081F87C00704710B5002821D0114BEA
:10442000001F0022196803E0814203D80A46496848
:104430000029F9D152B11368841A9C4204D1006852
:1044400018441060104602E0506000E0186039B176
:1044500002680B1A934203D10B681A440260496840
:10446000416010BD7C00002070B504000D4603D0F3
:1044700012B92078012801D0802070BD204600F0BC
:1044800067FB28B12946204600F040F8002070BDA7
:10449000812070BD0246084810B500EB810050F83D
:1044A000040C002806D0114600F030FDBDE8104095
:1044B00000F01CBD10BD00009C1B002010B5044680
:1044C0008089002821D0608904EB800000690860A1
:1044D0006078022805D10021204600F017FD00F089
:1044E00005FD04F10C0000BFD0E85F1F491EC0E8C5
:1044F000521F002AF8D16089401C80B26081E18996
:10450000884201D100206081042010BD10B500F068
:10451000FDFCBDE8104000F0E9BC0000F0B50B3038
:10452000154D20F007010024144A0FE003688B4268
:104530000BD38B4205D95E1A43184768C3E900675D
:1045400000E04368136002C004E0021D1068002808
:10455000ECD12046002802D1286808B10020F0BD27
:10456000064A07481060074A121A22F00702C0E9FB
:10457000002401202860D7E7800000207C00002074
:104580004C1C0020481E0020EFF3058109B1822059
:104590007047DFF808C000DF70470000895400084A
:1045A000EFF305820AB182207047EFF31482144BB7
:1045B00012F0030206D0012A1BD0022A11D0032ACE
:1045C00019D113E0EFF3088282F309881A78D20731
:1045D0000AD0022282F31488BFF34F8FBFF36F8F8C
:1045E00009E01A78D20706D10322F3E71A78D20736
:1045F00001D0FF207047DFF80CC000DF70470000DB
:10460000685800089D5400082DE90E40EFF305821C
:10461000B2B102004FF0800000D021B10090DDE97E
:10462000011203B000BD11780129F7D101A910468C
:10463000FFF744FF042801D00020EFE71020EDE74A
:10464000DFF804C000DFECE795550008EFF30581C3
:1046500009B100207047DFF808C000DF7047000094
:10466000CF550008EFF3058109B182207047DFF8CC
:1046700008C000DF70470000EB550008EFF305822B
:104680000AB182207047DFF808C000DF70470000E1
:104690000D560008EFF305820AB182207047DFF85B
:1046A00008C000DF70470000435600082DE9704045
:1046B000EFF3058272B10C4600F002FE4FF00045A8
:1046C00030B1210C04D1058BC178A0B2FFF7E2FE16
:1046D000284670BDDFF804C000DF70BD67560008D3
:1046E000EFF305830BB182207047DFF808C000DFCD
:1046F000704700008D560008EFF305820AB10020D4
:104700007047DFF808C000DF70470000E15600087E
:10471000DFF80CC000DFDFF80CC000DFFEE70000B0
:10472000515700086D570008DFF804C000DF7047DC
:10473000A5570008EFF305820AB182207047DFF821
:1047400008C000DF70470000BD570008094C4FF05B
:10475000FF3529462068FFF757FF02460846102A12
:10476000F7D1FFF7E1FF0028F3D002460846904753
:10477000EFE70000200000204FEA000151E8000FA1
:1047800028B1036841E80032002AF7D17047BFF32F
:104790002F8F704710B568B161B10B3121F0030262
:1047A000016844680B1A1B1B934205D2084609682E
:1047B0000029F5D1002010BD3CB121180368C1E9E2
:1047C0000032016001F1080010BD4260083010BDE8
:1047D00070B50C46002812D04FF6FF71084D884284
:1047E00004D22A680146104600F0BCFB28684470D9
:1047F000044800F033F9BDE8704000F08FBC70BD94
:1048000064000020141C00200F4810B50D494268B8
:104810000E480B680088934204D00A60CB88421E81
:104820001A448A808A8882420AD100200860064899
:1048300000F014F90146BDE81040034800F0C0BB89
:1048400010BD000074000020141C00207000002027
:1048500070B5194DE86800282CD0A88A401EA8829F
:10486000002621E0A06838B161684160606810B13D
:10487000A16881606660A6600F482146183800F084
:104880009FFBA08AA8826078042804D10B49E08AA3
:1048900009880844A08201206070E068E860E06850
:1048A00008B10561E6602661A88A002802D1EC689B
:1048B000002CD7D170BD00002C1C002070000020FF
:1048C00070B504000FD00D4DA178012628688278BC
:1048D00091420CD900F090FB286846702046BDE854
:1048E000704000F01BBC064800F0B8F8F7E76670AF
:1048F0002146BDE87040024800F062BB6400002021
:10490000141C00200321FFF763BF0000054A02EBDF
:10491000810151F8041C002902D00A8B82430A83CA
:10492000704700009C1B002010B50446008B084314
:1049300020836278618B062A18D0052A19D1084293
:1049400017D001EA0002628388432083204600F0EA
:104950008DFB01206070628B0821204600F07EFBF9
:104960002146BDE81040034800F02ABB31EA0002AE
:10497000EAD010BD141C00200246154810B500EB0B
:10498000810050F8044C002C21D0208B1043208350
:104990006278618B062A17D0052A18D1084216D0F2
:1049A00001EA0002628388432083204600F05EFB18
:1049B00001206070628B0821204600F04FFB2046EA
:1049C000BDE81040FFF77CBF31EA0002EBD010BD1C
:1049D0009C1B002003460E4810B504688C46208BB3
:1049E00042B133EA000101D0062009E09843208358
:1049F000022010BD10EA030201D06283F6E7052011
:104A0000C1B263836046FFF7E3FE012010BD0000E2
:104A100064000020814202D342688A4201D801200A
:104A2000704750E8002F0A6040E80012002AF8D1D1
:104A30000020704768B161B10839002202E00246E7
:104A4000006830B18842FAD12AB1006810600020B5
:104A500070470120704700214160F8E70146406837
:104A600042684A600B780022022B05D0012B03D04C
:104A7000032B01D04260704743680BB199604260DC
:104A800082607047810700D00020704770B50446EF
:104A900000201546207001226270A1706060A06045
:104AA000E0602061A082E0822083608384F820009F
:104AB000608C18B90448FFF75FFEA06229462046C3
:104AC000BDE8704000F01CB8E801002008B10829DA
:104AD00001D2012070470144091F002201600A60D1
:104AE00042601046704700000348002101600349FE
:104AF0000968C180704700007400002060580008F9
:104B000010B5428C920803D10F4A1268C2F38D028D
:104B1000836A03EB8202530700D5121F403A4FF01D
:104B20008073C2E90E1300234FEA030442F82340C6
:104B30005B1C0E2BFAD3C36913624262C162806AA6
:104B40000249016010BD00005C580008A52E5AE221
:104B5000C1898089081A70470122027000224270C0
:104B60008270426002814281103982818908C1814C
:104B7000704700002DE9F0410446407800270E46BA
:104B80004FF00108012855D004F10C0502282BD064
:104B9000032818D0A089E189884262D2208904EBD9
:104BA00080000661D5E85F0F401CC5E8510F002961
:104BB000F8D12089401C80B22081E189884200D14F
:104BC0002781BDE8F0810846FFF7D6FD0600F8D042
:104BD0002046FFF743FF0546606800B9677031461D
:104BE000284600F035FA31E02046FFF737FF064649
:104BF000606800B967700021304600F029FA218909
:104C0000F06904EB81010861D5E85F0F401CC5E83D
:104C1000510F0029F8D12089401C80B22081E18900
:104C2000884200D1278186F80180304600F01EFAC4
:104C3000314611E02046FFF711FF0546606800B9D4
:104C4000677032461021284600F008FA85F8018086
:104C5000284600F00BFA2946BDE8F041034800F071
:104C6000AFB9BDE8F0410320FBF770BC141C002075
:104C700070B50446808915460026C8B3608904EBE8
:104C80008000006908606089401C80B26081E18911
:104C9000884200D16681607802280AD014F10C04A1
:104CA000D4E85F0F401EC4E8510F0029F8D100205E
:104CB00070BD2046FFF7D2FE0546606800B96670F9
:104CC0000021284600F0C4F92189E86904EB81013C
:104CD00008612089401C80B22081E189884200D18E
:104CE0002681284600F0C2F92846FFF7E9FDDEE7F5
:104CF000FFE73DB10A48626801682AB1204600F02A
:104D00005FF907E0012070BD61600068C0E90164DF
:104D10000120607008212846FFF75AFDF2E70000E5
:104D200064000020411C13D00B4A4FF6FE719042E4
:104D30000CD800EB4002C2EBC0120848036803EB3A
:104D4000C202521EB2FBF3F0884200D908467047F7
:104D50004FF6FF707047000000093D006C580008D6
:104D600003210170002141704180416081607047E2
:104D70002DE9F0410446408820B1234EA1683268F5
:104D8000914202D0FF20BDE8F081401E0004000CDB
:104D9000608036D131686078DFF870808870626832
:104DA00001270AB32046FFF759FE0546002100F00F
:104DB0004FF9284600F05AF96780A560A87860701E
:104DC0003168D8F804008A788078824201D3284676
:104DD00015E00E4800F0F4F829460C4800F0F0F811
:104DE000306847706F7009E0D8F8042092788242EA
:104DF00007D9064800F0E4F8306847700020FFF754
:104E00005FFD0020BFE7000064000020141C0020AC
:104E100070B5174E0D4604464188306839B1A16817
:104E2000814208D16088401C6080002070BDA06075
:104E300080786070F6E775B162788078824203D23C
:104E40008870A06800F0E2F8606830B120463168F0
:104E500000F0B6F807E0012070BD3068606030688F
:104E60000021C0E9011409212846FFF7B1FCF2E74F
:104E70006400002070B51A4801210068417000F0FC
:104E8000BBF8184D6C7816E005EBC4014868027851
:104E9000E2B1012A1FD000F015F9E878641C8442C1
:104EA00000D100240F48801CD0E84F1F491EC0E8E5
:104EB000421F002AF8D1A8780028E5D16C700A4872
:104EC000FFF7CCFDBDE8704000F028B9896889B2D1
:104ED000FFF72AFDE1E78968FFF74CFEDDE70000F8
:104EE00064000020181B0020141C002005480178D5
:104EF00011B101214170704703494FF080500860A3
:104F0000704700006C00002004ED00E0F0B4144B8A
:104F10009C1CDD784FEA030CD4E84F2FAA4202D143
:104F2000BFF32F8F0EE0521CC4E8462F002EF3D1A2
:104F3000DCE84F2F541CAC4200D10024CCE8464F93
:104F4000002EF5D1DC78944205D903EBC202C2E908
:104F50000101F0BC7047F0BC0220FBF7F7BA00007B
:104F6000181B0020154A10B5D368FBB113469B8A65
:104F700009E000BFD2F80CC0BCF1000F16D0BCF89D
:104F80001440624623448B42F4D3D468C460D0609A
:104F90000261D0F80CC0BCF1000F01D0CCF81000B9
:104FA000591A8182908A401A908210BD0024C460F0
:104FB000D060C91A02619182848210BD2C1C00202D
:104FC00010B502780023022A03D0012A01D0032A57
:104FD00000D1012391F802C000E01046426812B1EE
:104FE00094786445F9D24A6041601BB102B1916086
:104FF000886010BD0020FBE703494A684260002238
:105000008260486070470000141C002010B583685F
:1050100004462BB9607801280ED1084B03E09B6849
:1050200018780028FBD0204600F034F82146BDE86F
:1050300010401846FFF7C4BF10BD0000141C00202C
:1050400090F82010406A09B16030704720307047F6
:1050500010B50C46FFF7F4FF046010BD70B50C46A8
:105060001546FFF7EDFFC0E9004570BD10B50169B9
:1050700000290ED0C268CA60C36800223BB18B8A87
:10508000848A23448B82C3681961C26000E08A82EB
:10509000026110BD816839B142684A6041680029E7
:1050A00001D0806888607047054906E04A688242FE
:1050B00002D140684860704711460029F6D1704718
:1050C000141C002010B5416881B1FFF7C7FC0446ED
:1050D000FFF7CCFF0120607001462046FFF7B8FFC4
:1050E0002146BDE810400348FFF76ABF4188491CCC
:1050F000418010BD141C002006480068D0E909104A
:10510000814203D300680449884202D00120FBF7A2
:105110001DBA704764000020A52E5AE207490222FA
:1051200048604270064A1278002A05D006C98A42B1
:1051300002D0C078FFF768B9704700006400002013
:10514000720000202DE9F04104460D469046FFF71D
:1051500033F9002006463849384B02E041F8206018
:10516000401C1A889042F9D33548302201883548CE
:10517000FEF75AFD3448006880B240F000423348E0
:1051800001683348FEF750FD324808220188324852
:105190000068FEF749FD314FFF20314AF8707E84E8
:1051A00000213846FFF772FC2E480421017046604A
:1051B0002D480170C66006618682786A2030FAF751
:1051C000F1FF2A482B4907600220787028480670B2
:1051D00046700978C170284801684FF0E0204161AD
:1051E00086610721016125480168254A1143016054
:1051F0000068224900F07F40C0431439B0FA80F0C3
:105200000968C0F10800C1F30221814200DB481C9B
:105210001A49091F0B686FF08072824063F317020E
:105220000A60FFF761FC424629462046BDE8F0418E
:10523000002300F08BB800009C1B00205858000889
:1052400074580008880000205C580008785800084E
:10525000E80100209C58000818000020E41B0020F2
:1052600049050008141C00202C1C002064000020AC
:10527000181B0020805800086458000820ED00E04A
:105280000000FFFF0B4810B5006801214170FFF7D7
:10529000B3FEFFF7B9FA08490888401C0880FFF7F9
:1052A000D7FA00F0AFFA0548FFF7D8FBBDE8104089
:1052B000FFF734BF6400002070000020141C0020A1
:1052C000002805D0810702D10178002900D00020F4
:1052D0007047000030B50D4C0023226808E000BF85
:1052E000B2F808C08C4505D813461268A1EB0C0132
:1052F000002AF5D189B20260018112B11589691ABB
:1053000011810BB1186030BD206030BD60000020FD
:105310000D4B0022196803E0814204D00A46096857
:105320000029F9D104E019B1016822B1116003E04C
:105330004FF0FF3070471960016819B10A89008980
:105340001044088100207047600000202DE9F041E2
:10535000804616461F460D4611F0FF0F00D14D1C2A
:105360001648FFF709FA040026D0280AA6626084CE
:10537000E9B242462046E761FFF788FB0125104865
:10538000104905E000EB850252F8042C22B16D1C97
:105390000A889542F6D9002500EB850040F8044CB8
:1053A0000948E570007818B101212046FFF71CF884
:1053B0002046FFF785FA2846BDE8F08188000020E6
:1053C0009C1B002058580008720000202DE9F04175
:1053D000244C234F244B22680026D17808B1814207
:1053E00018D103EB8100567040F8046C1F48916A95
:1053F000FFF710FB20688662397811B10021FEF7B3
:10540000F3FF1B482168FFF705FB00202660FFF72C
:1054100057FA1FE01749098888421ED803EB800518
:1054200055F8044CCCB12046FFF734FE2046FFF778
:105430001DFE45F8046C0D48A16AFFF7EBFAA66261
:10544000387818B100212046FEF7CEFF21460848E3
:10545000FFF7E0FA0020BDE8F081FF20FBE7000045
:1054600072000020640000209C1B0020E801002046
:10547000880000205858000802480068002800D022
:10548000C07870476400002010B5002805D0FFF7F1
:1054900049FC80B2FFF736FA402010BD70B5040019
:1054A0000D4608D0206830B1B4F9040010F1030FA4
:1054B00001DB032801DD862070BD244E306840B139
:1054C000204600F00DF9A0B100F042F900F04EF9CD
:1054D00037E01F4840070CD11E4801681C48FFF701
:1054E000F5FA30B9E16831B11948FFF753F9020014
:1054F00002D1852070BD0022B4F90400E168001DCE
:1055000040EA01212068FFF71DFE7068D8B1C0781D
:10551000114901EB800050F8040C3060416A0D62C3
:10552000406A0E49416300210D4800F021F80D4901
:10553000086000210C4800F0D3F80C4908600020F6
:105540003060002070BDFF2070BD000064000020AE
:10555000B81400207C5800089C1B0020114700084C
:105560009458000820000020845800081C000020E7
:1055700010B5040005D0216819B1606808B102783F
:105580000AB1002010BD8900103189B2FFF7E4FA9A
:10559000606810BD3EB504000D464FF0800012D08B
:1055A000217801290FD12846FFF7BCFB82B201A95F
:1055B0002046FFF75DFB012801D0102003E00DB16C
:1055C000402000E00020DDE9011203B030BD10B53D
:1055D000002804D004680CB1207808B1002010BD68
:1055E0002046FFF7BDFB204610BD10B5FFF74AFA75
:1055F00010B10178032901D0802010BDFFF7B8FB5E
:10560000FF2801D0002010BD812010BD70B50D46CF
:10561000FFF738FA040002D02078032801D0802058
:1056200070BD2846FFF77EFB81B22046FFF7F0FBF6
:10563000012801D0002070BD0DB1C12070BD8120B6
:1056400070BD70B50C46FFF73BFE4FF0004108B14E
:10565000220C01D0084670BD058BC178A0B2FFF7BF
:1056600055F9284670BD70B50C46FFF729FE4FF07E
:10567000004108B1220C01D0084670BD058BC178ED
:10568000A0B2FFF779F9284670BD000070B5044656
:105690000D46000C01D086201EE008462CB1FFF715
:1056A00041FB81B20122A0B205E0FFF73BFB81B2D2
:1056B00000224FF6FF70FFF78DF9022802D04DB19E
:1056C000402008E008200CB1214605E003490968A4
:1056D000498B01E000200021324670BD64000020AB
:1056E00070B504000E462BD0206848B3B4F904000E
:1056F00010F1030F24DB032822DCE16829B11148F3
:10570000FFF748F8050015D000E00025B4F90400C3
:10571000E168001D40EA012133462A462068FFF770
:1057200015FE40B1084901EB8000084950F8040C0F
:10573000426A516370BD1DB129460248FFF77AF9EC
:10574000002070BDB81400209C1B002011470008E9
:1057500010B5FFF791FE002804D0034901EB80004B
:1057600050F8040C10BD00009C1B002070B5FFF722
:10577000A7FD040003D0608C18B1A56A02E0802068
:1057800070BD0025E078FFF721FEFF2806D01DB18F
:105790000348A16AFFF74EF9002070BD812070BD5B
:1057A000B814002010B5FFF76DF920B101690A683F
:1057B000C168104610BD0020014610BD70B50D46F1
:1057C000FFF760F904000AD02846FFF7ABFA05009E
:1057D00007D0207901280CD0022808D103E08020CE
:1057E00070BD862070BD2046FFF792FD20B181205C
:1057F00070BD02202071658129462046FFF76AFDB1
:10580000002070BD2DE9F041114E3468002C18D0F5
:105810002089104F401E20814FF001080EE02546E0
:1058200024683460002229463868FEF71DFE687936
:10583000012808D085F80480002C02D02089002897
:10584000EDD0BDE8F08169892846FFF743FDF3E715
:10585000600000202000002007000000200302015B
:10586000050001003F90020001000000E803000075
:10587000000000005C010000D01200006006000083
:10588000100000004D470008020000000100000069
:105890002003000004000000B81B002000000000EE
:1058A0005105000800000000010000002003000076
:1058B000B105000800000000010000000000000029
:1058C000D1050008000000000100000000000000F9
:1058D0003706000800000000010000000000000082
:1058E0008B0A00080000000001000000000000001A
:1058F000D81B0020000000000000803F0000803F17
:105900000000004000004040000040400000804097
:10591000000080400000A0400000A0400000C04007
:105920000000E0400000E0400000004100000041B5
:105930000000104100001041000020410000204103
:105940000000304100004041000040410000504153
:1059500000005041000060410000604100007041C3
:10596000000070410000804100008041000088413B
:1059700000008841000090410000984100009841DB
:105980000000A0410000A0410000A8410000A84183
:105990000000B0410000B0410000B8410000B84133
:1059A0000000C0410000C0410000C0410000C841EB
:1059B0000000C8410000D0410000D0410000D841A3
:1059C0000000D8410000E0410000E0410000E84153
:1059D0000000E8410000E8410000F0410000F04113
:1059E0000000F8410000F8410000004200000042C1
:1059F000000000420000044200000442000008428F
:105A0000000008420000084200000C4200000C4266
:105A1000000010420000104200001042000014423A
:105A20000000144200001442000018420000184216
:105A30000000184200001C4200001C4200002042EE
:105A400000002042000020420000244200002442C6
:105A500000002442000028420000284200002842A2
:105A60000000284200002C4200002C4200002C4282
:105A7000000030420000304200003042000034425A
:105A80000000344200003442A85A00080000002000
:105A900088000000A23A0008305B0008880000205F
:105AA000C0210000B23A0008007A030A000000009A
:105AB00000000000010203040607080900000000BE
:105AC0000000000000000000000000000000003F97
:105AD0000000003F00000000000000000000000087
