:020000040800F2
:1000000098220020250500082D0500082F0500086E
:100010003105000833050008350500080000000020
:1000200000000000000000000000000009020008BD
:100030003905000800000000AD0200080D030008AB
:100040003F0500083F0500083F0500083F05000880
:100050003F0500083F0500083F0500085F10000845
:100060007B100008971000083F0500083F050008B6
:100070003F0500083F0500083F0500083F05000850
:100080003F0500083F0500083F0500083F05000840
:100090003F0500083F0500083F050008B3100008B1
:1000A0003F0500083F0500083F0500083F05000820
:1000B0003F0500083F0500083F0500083F05000810
:1000C0003F0500083F0500083F0500083F05000800
:1000D0003F0500083F0500083F0500083F050008F0
:1000E0003F0500083F0500083F0500083F050008E0
:1000F0003F0500083F0500083F0500083F050008D0
:100100003F0500083F0500083F0500083F050008BF
:100110003F0500083F0500083F0500083F050008AF
:100120003F0500083F0500083F0500083F0500089F
:100130003F0500083F0500083F0500083F0500088F
:100140003F0500083F0500083F0500083F0500087F
:100150003F0500083F0500083F0500083F0500086F
:100160003F0500083F0500083F0500083F0500085F
:100170003F0500083F0500083F0500083F0500084F
:100180003F0500083F050008DFF814D004F0DCFF4D
:100190000021024805F0EAFDFEE70000A870000813
:1001A0009822002080F309887047684680F3098808
:1001B00004480078C00714BF0220032080F314888D
:1001C0007047000070700008DFF818C0EFF3058377
:1001D0001B0618BF6047EFF31483DB0708BF6047B7
:1001E00000DF70475D5F0008DFF818C0EFF305839C
:1001F0001B0618BF6047EFF31483DB0708BF604797
:1002000000DF7047F9610008EFF30980816911F898
:10021000021C002933D190E80F1010B5E047BDE86B
:100220001040EFF3098C8CE807001D4B93E80600A3
:10023000914208BF704781B11EF0100F06BF2CED30
:10024000108A0120002081F820002CE9F00FC1F86D
:1002500024C00CB406F042FB0CBC1A60D2F824C0D7
:10026000BCE8F00F92F8200000281ABFBCEC108AFE
:100270006FF0120E6FF0020E8CF30988704710B504
:10028000084A1268914209D8074C54F8214090E876
:100290000F10A047EFF3098C8CE80F0010BD000091
:1002A00068000020D0510008D051000810B506F0B9
:1002B000D3F9BDE81040174B93E80600914208BF00
:1002C0007047EFF3098C1EF0100F06BF2CED108A5B
:1002D0000120002081F820002CE9F00FC1F824C093
:1002E0000CB406F0FBFA0CBC1A60D2F824C0BCE8CF
:1002F000F00F92F8200000281ABFBCEC108A6FF0B3
:10030000120E6FF0020E8CF30988704710B506F0DC
:10031000ABFBCEE7680000200CB5002001900090F8
:100320007548006840F480307349086000BF724827
:10033000006800F4003000900198401C0190009883
:1003400018B90198B0F5A06FF1D16B48006810F4AE
:10035000003F02D00120009001E0002000900098B2
:10036000012845D164484030006840F0805062491F
:10037000403108606148006840F480405F4908608F
:100380005D48083000685C4908310860084600682C
:1003900040F4004008600846006840F4A05008603F
:1003A0005748091F0860081F006840F08070091F47
:1003B000086000BF5048006810F0007FFAD040F29B
:1003C0000560504908604C480830006820F0030080
:1003D0004949083108600846006840F0020008609A
:1003E00000BF45480830006800F00C000828F8D12C
:1003F0000CBD10B54448006840F4700042490860E4
:100400003D48006840F001003B49086000203A493F
:1004100008310860384800683C490840364908609F
:100420003B48091D0860081F006820F48020091F50
:100430000860002030490C310860FFF76DFF4FF075
:10044000006031498039086010BD70B5002000227D
:10045000022300240221284D08352D6805F00C00E8
:1004600020B1042806D0082834D107E0294D2A4EAF
:10047000356033E0294D284E35602FE01E4D2D1D8F
:100480002D68C5F380541C4D2D1D2D6805F03F01CE
:1004900054B1224DB5FBF1F5174E361D3668C6F343
:1004A000881605FB06F209E01A4DB5FBF1F5124E70
:1004B000361D3668C6F3881605FB06F20E4D2D1D57
:1004C0002D68C5F301456D1C6B00B2FBF3F5124EB0
:1004D000356003E00F4D104E356000BF00BF064D84
:1004E00008352D68C5F303150D4E705D0A4D2D6856
:1004F000C540094E356070BD0038024000700040B4
:1005000008544007003C024088ED00E0FFFFF6FE83
:10051000103000240024F4000000002000127A00B3
:10052000040000200648804706480047FEE7FEE733
:10053000FEE7FEE7FEE7FEE7FEE7FEE7FEE7FEE793
:10054000F30300088901000800BFFEE700BFFEE7D3
:1005500001F0D0F804462146FAA004F03BFE4FF427
:100560007A7005F0F7FBFC4805F056FCFB49086083
:1005700000F0FCFD0020FA49086003F085FE03F05E
:10058000ABFFF8A004F026FE0021FE4805F09AFC1F
:100590000021FD4805F096FCFC49FD4805F092FC61
:1005A000FC49086003E04FF0FF3005F0D3FBFAE7A9
:1005B000002415E0EA48006870B92046F649D1EDFC
:1005C000000AF64991ED000A01F0AFF8601CC4B2D0
:1005D000FF2C02DD002400E000240A2005F0BAFB15
:1005E000E8E72DED088BADF5036D3421012003F014
:1005F00055FA81464946EAA004F0ECFD2026B046B3
:100600004FEA880005F070FB8246324651460DF5F0
:10061000026001F019F80020CDF81008CDF80C08A0
:100620005AE10DF60C020DF61801081D01F0B5F89F
:100630000546022D74D126E00DF61401081F01F0C5
:1006400040FA9DF81008032804D004280AD0052891
:1006500018D10FE00DF5006090ED050ACB4880ED54
:10066000040A0FE00DF5006090ED050AC74880ED23
:10067000030A07E00DF5006090ED050AC34880ED20
:10068000050A00BF00BF9DF810080628D4D1BF4856
:1006900090ED050A10EE101A084604F026FB41EC16
:1006A000100BB0EE408AF0EE608AB84890ED030A75
:1006B00010EE101A084604F018FB41EC100BB0EED7
:1006C000409AF0EE609AB14890ED040A10EE101ACC
:1006D000084604F00AFB41EC100BB0EE40AAF0EE25
:1006E00060AA8DED028B8DED009B53EC1A2BB1A00F
:1006F00004F070FD0020A54908726421BD4800681F
:1007000005F0FEFB03E04FF4FA7005F023FB9F4871
:10071000007A0028F7D00020CDF81008DCE0FFE7D1
:10072000012D3BD10DF5006090ED070A974880ED53
:10073000000A0DF5006090ED060A944880ED010A6C
:1007400001F0F0F904B20DF50261204600F09EFFC1
:10075000B0EE408AB0EE480A04F0A4F9DDF81808BB
:1007600004F0C3FA41EC100BB0EE409AF0EE609A40
:10077000DDF81C0804F0B9FA41EC100BB0EE40AA09
:10078000F0EE60AA9DF80C18CDE902518DED009BAA
:1007900053EC1A2B98A004F01DFD9DE0072DBDD150
:1007A0000DF5006090ED070A8DED020A02AA03A97B
:1007B0000DF20C4001F05EF99FA004F00BFD032048
:1007C00072490872029804F090FA41EC100BB0EEF6
:1007D00040AAF0EE60AA53EC1A2B9EA004F0FAFC9B
:1007E00000246FE000270DF20C41601C01EB80003B
:1007F00090ED000A084600EB8400D0ED000A30EED0
:10080000600AF2EE040A80EE209A03A9601C01EB54
:10081000800090ED000A03A800EB8400D0ED000AF0
:1008200030EE600AF2EE040AC0EE209A0DF20C409F
:1008300000EB840090ED000AB0EE408A03A800EBC4
:10084000840090ED000AF0EE408A38E038EE090AA4
:10085000B0EE408A38EEA90AF0EE408AF0EE680A5F
:10086000B0EE480A03F0D6FE03A800EB840090ED3A
:10087000000A10EE101A084604F037FA41EC100B8B
:10088000B0EE40AAF0EE60AA0DF20C4000EB84003E
:1008900090ED000A10EE101A084604F026FA41EC1A
:1008A000100BB0EE40BAF0EE60BA8DED00AB53EC39
:1008B0001B2B214672A004F08DFC781CC7B20A2FB6
:1008C000C4DB641CFF2C8DDD4FF47A7005F042FA16
:1008D00001202E49087200BFA3E68AB010242546E5
:1008E000A80005F001FA07462246394604A800F0A0
:1008F000ABFE00BF2646B00005F0F6F98046224662
:100900004146684600F0A0FEECE008A909A800F006
:1009100067FC04A99DED090ABDEEC00A10EE100A9D
:1009200000B200F0B3FEB1EE400A1C4880ED000AB0
:1009300069469DED080ABDEEC00A10EE100A00B22D
:10094000BCE00000434332353030205265616479A9
:100950002028257829200A0008710008300000208E
:100960002C0000205472616E736D6974746572207E
:100970007374617274696E67207468726561647300
:10098000200A0000B8700008D8700008E01B0020A2
:10099000E87000083C00002028000020240000200F
:1009A0004D6F76656420746F205258202825782971
:1009B000200A00004558204D4F5645207069746349
:1009C00068496E6372656D656E74203D2025662CE6
:1009D00020726F6C6C496E6372656D656E74203D3C
:1009E0002025662C2074696D65203D202566200A2F
:1009F0000000000038000020524541443A20506970
:100A0000746368203D2025662020526F6C6C203D69
:100A10002025662020436F6E74726F6C31203D205C
:100A200025782020506B745F696E646578203D20C6
:100A30002569200A00000000524543563A205265BD
:100A4000636F72642053657175656E63653A200A41
:100A5000000000004D6F746F7273206D6F76696EC9
:100A6000672073657175656E63652C2074696D65AB
:100A700064656C6179203D202566200A0000000035
:100A80004D6F746F7273206D6F76696E6720746F2F
:100A900020616E676C653A20696E646578203D2040
:100AA000256920205069746368203D202566202038
:100AB000526F6C6C203D202566200A0000F0E6FD98
:100AC000FE4880ED000AFE4890ED000AFD4880EDEA
:100AD000000AFA4890ED000AFA4880ED010A0A205F
:100AE00005F038F911E786B0064634460020049038
:100AF0000590002565E0207A012812D1811EF24878
:100B0000006805F0A1F994ED011AF0EE410A94EDA8
:100B1000001AB0EE410A03F07DFDEB48006805F0D5
:100B200087F9207A002842D1411E022005F0BEF943
:100B300001AB07C34FF0FF31E348006805F084F9CB
:100B4000E04890ED010AD4ED030A30EE200A80ED72
:100B5000010A90ED000AD4ED040A30EE200A80ED7F
:100B6000000A90ED011AF0EE410A90ED001AB0EE85
:100B7000410A03F04FFD6D1CD4ED050A00EE105A3A
:100B8000B8EE400AF4EEC00AF1EE10FA0BD8CF48E6
:100B9000006805F0C1F900254FF47A7005F0DAF825
:100BA0000120C8490872C848006805F041F9207A58
:100BB000032803D14FF47A7005F0CCF80A2005F031
:100BC000C9F898E72DED088BADF6180D8046444620
:100BD0004FF000099FEDBE0A0DF5006080ED050A9B
:100BE0009FEDBB0A80ED040A9FEDB90AB0EE408A82
:100BF0009FEDB70AF0EE408A9FEDB50A80ED030A3B
:100C0000FF262BE24FF0FF31082005F04FF90DF5DC
:100C1000006307C303F01DFC06460120AD490860D0
:100C20003146ADA004F0D6FA772E61D1B9F1000FAC
:100C30005ED1AFA004F0CEFA642700253DE0A148C4
:100C400090ED000A0DF20C4000EB850080ED000AEB
:100C50009C4890ED010A03A800EB850080ED000A96
:100C600003A800EB850090ED000A10EE101A08466C
:100C700004F03BF841EC100BB0EE409AF0EE609AB5
:100C80000DF20C4000EB850090ED000A10EE101AFA
:100C9000084604F02AF841EC100BB0EE40AAF0EE42
:100CA00060AA8DED009B53EC1A2B294696A004F008
:100CB00091FA6D1C384605F04DF8FF2DBFDD9BA065
:100CC00004F088FA00EE107AB8EE400A03AA0DF29A
:100CD0000C414FF4807000F022FE9AA004F07AFAE2
:100CE00042F2107005F036F800207A490860ADE154
:100CF000E72E02D0B9F1010F7DD14FF00109E72EA7
:100D000032D14FF0FF317048006805F09DF80020A7
:100D1000207294ED010AB0EE408A94ED000AF0EEE4
:100D2000408A9FED6B0A674880ED030A9FED680AD1
:100D300080ED040A9FED660A80ED050A62480068AE
:100D400005F076F89FED620A0DF5006080ED050A6A
:100D5000002502E000F0BCFD6D1C012DFADB81498D
:100D60000DF6140003F091FBD72E09D19FED580A20
:100D70000DF5006080ED040A7A49103003F085FB20
:100D8000B72EB4D19FED520A0DF5006080ED030A35
:100D900074490C3003F079FB4FF0FF314A4800688A
:100DA00005F052F80DF5006090ED030ADFED6E0AD4
:100DB00080EE201A84ED051AD0ED030A9FED6A1A21
:100DC00080EE810AD0ED050A70EEC80A80EE801A26
:100DD00084ED031AD0ED030A9FED631A80EE810AB9
:100DE000D0ED040A70EEE80A80EE801A84ED041A51
:100DF000DDF80C0800E026E103F077FF41EC100B72
:100E0000B0EE409AF0EE609ADDF8100803F06DFF46
:100E100041EC100BB0EE40AAF0EE60AADDF8140829
:100E200003F063FF41EC100BB0EE40BAF0EE60BA95
:100E30008DED029B8DED00AB53EC1B2B4BA004F012
:100E4000C9F994ED040A10EE101A084603F04DFF9C
:100E500041EC100BB0EE409AF0EE609A53EC192B77
:100E60004AA004F0B7F9D4ED040AB0EE600A00F02D
:100E7000E1FC642004F06EFF94ED030A10EE101AFA
:100E8000084603F032FF41EC100BB0EE409AF0EE52
:100E9000609A53EC192B45A004F09CF9D4ED030A99
:100EA000B0EE600A00F0E0FC642004F053FF94ED23
:100EB000050A10EE101A084688E0000028000020FD
:100EC00024000020E01B002030000020380000201B
:100ED000000000002C0000204B6579626F61726495
:100EE0002056616C756520307825780A0000000076
:100EF0005265636F7264696E672073657175656EA4
:100F00006365212121200A00496E646578203D2017
:100F1000256920205069746368203D2025662020C3
:100F2000526F6C6C203D202566200A0053656E646C
:100F3000696E672073657175656E63652121212077
:100F40000A000000446F6E65207472616E736D69F3
:100F50007474696E672073657175656E63652121B0
:100F600021200A003C0000200000C842526F6C6C37
:100F70002025662050697463682025662054696DB9
:100F800065202566206D730A0000000053454E441D
:100F9000494E47207069746368496E6372656D6578
:100FA0006E74203D202566200A00000053454E4403
:100FB000494E4720726F6C6C496E6372656D656E49
:100FC00074203D202566200A0000000003F08DFEFD
:100FD00041EC100BB0EE409AF0EE609A53EC192BF6
:100FE0003FA004F0F7F8D4ED050AB0EE600A00F077
:100FF00055FC642004F0AEFE3EA004F0EBF800F0D7
:101000007AFC642004F0A6FE3E48006804F010FF5D
:1010100094ED050A10EE101A084603F066FE41EC46
:10102000100BB0EE409AF0EE609A53EC192B36A0FC
:1010300004F0D0F841F2707004F08CFE00203549C5
:101040000860814602E0002032490860C82004F0B0
:1010500081FE08213048006804F002FFD2E510B597
:10106000022000F0ADFE38B1022000F0BAFE0821E7
:101070002948006804F000FF10BD10B5042000F0FE
:101080009FFE38B1042000F0ACFE08212248006821
:1010900004F0F2FE10BD10B5082000F091FE38B14A
:1010A000082000F09EFE08211B48006804F0E4FEC2
:1010B00010BD10B5402000F083FE38B1402000F094
:1010C00090FE08211448006804F0D6FE10BD10B54B
:1010D000044602211148006804F0CEFE10BD000055
:1010E00053454E44494E472074696D65203D202587
:1010F00066200A0053454E44494E4720454E442041
:101100000A0000003000002054696D652025660A41
:10111000000000002C0000203C00002040000020C7
:101120001149096811F0010F0ED00F498039096883
:1011300011F0010F08D000BF4FF06041096800298D
:10114000FAD04FF060421070704770B504460D46FB
:101150002046FFF7E5FF70BD10B504462046FFF7B7
:10116000DFFF10BD00BFFEE7800E00E00EB560207F
:101170008DF8040008208DF8060000208DF8080086
:101180008DF8090001A802F0D6FD67200090012229
:101190002021684602F01FFDC82000900122232173
:1011A000684602F018FDC020009001222421684604
:1011B00002F011FDF620009001221021684602F095
:1011C0000AFDF420009001221121684602F003FD7F
:1011D0000A20009001221221684602F0FCFC0EBD9C
:1011E000F0B52DED108B83B004460D460122282169
:1011F00001A802F0BDFD012229210DF1050002F038
:10120000B7FD01222A210DF1060002F0B1FD0122F5
:101210002B210DF1070002F0ABFD01222C2102A8C9
:1012200002F0A6FD01222D210DF1090002F0A0FD22
:101230009DF804009DF8051040EA012008EE900A90
:10124000B8EEE80A10EE100A03F04FFD41EC100B67
:10125000B0EE40CAF0EE60CA9FEDB50B53EC102B18
:1012600051EC1C0B03F060FC41EC100BB0EE40BAEB
:10127000F0EE60BA51EC1B0B03F04AFD09EE100AC8
:101280009DF806009DF8071040EA012008EE900A3C
:10129000B8EEE80A10EE100A03F027FD41EC100B3F
:1012A000B0EE40CAF0EE60CA9FEDA10B53EC102BDC
:1012B00051EC1C0B03F038FC41EC100BB0EE40BAC3
:1012C000F0EE60BA51EC1B0B03F022FD09EE900A20
:1012D0009DF808009DF8091040EA012008EE900AE8
:1012E000B8EEE80A10EE100A03F0FFFC41EC100B18
:1012F000B0EE40CAF0EE60CA9FED8D0B53EC102BA0
:1013000051EC1C0B03F010FC41EC100BB0EE40BA9A
:10131000F0EE60BA51EC1B0B03F0FAFC08EE100A79
:10132000002600279FED840AB4EEC09AF1EE10FA71
:1013300006DD9FED820A30EE490AB0EE409A0126A2
:101340009FED7D0AF4EEC09AF1EE10FA06DD9FEDF6
:101350007B0A30EE690AF0EE409A0127BEB329EE0F
:10136000A90A08EE080A10EE101A084603F0BDFCA0
:1013700041EC100BB0EE40DAF0EE60DA03F03AFF29
:10138000B0EE40BAF0EE60BA19EE100A03F0ADFC10
:1013900041EC100BB0EE40CAF0EE60CA53EC1B2BD0
:1013A00051EC1C0B03F032FC41EC100BB0EE40EAA8
:1013B000F0EE60EA51EC1E0B03F0AAFC0FEE100AEF
:1013C000B0EE4F0A00F0BCF8B1EE40AA37E0FFE7FC
:1013D00029EEA90A08EE080A10EE101A084603F0D2
:1013E00084FC41EC100BB0EE40CAF0EE60CA03F092
:1013F00001FFB0EE40DAF0EE60DA19EE100A03F009
:1014000074FC41EC100BB0EE40EAF0EE60EA53ECF5
:101410001D2B51EC1E0B03F0F9FB41EC100BB0EE51
:1014200040BAF0EE60BA51EC1B0B03F071FC0FEE0A
:10143000100AB0EE4F0A00F083F8B0EE40AABFB336
:1014400029EE090A08EE080A10EE101A084603F001
:101450004CFC41EC100BB0EE40EAF0EE60EA03F019
:10146000C9FEB0EE40BAF0EE60BA19EE900A03F091
:101470003CFC41EC100BB0EE40CAF0EE60CA53ECFD
:101480001B2B51EC1C0B03F0C1FB41EC100BB0EE1D
:1014900040DAF0EE60DA51EC1D0B03F039FC0FEE90
:1014A000100AB0EE4F0A00F04BF8F1EE40AA37E018
:1014B000FFE729EE090A08EE080A10EE101A08469E
:1014C00003F013FC41EC100BB0EE40CAF0EE60CA22
:1014D00003F090FEB0EE40EAF0EE60EA19EE900AFA
:1014E00003F003FC41EC100BB0EE40BAF0EE60BA32
:1014F00053EC1E2B51EC1B0B03F088FB41EC100B43
:10150000B0EE40DAF0EE60DA51EC1D0B03F000FCB7
:101510000FEE100AB0EE4F0A00F012F8F0EE40AAFB
:1015200084ED00AAC5ED00AA03B0BDEC108BF0BDA0
:1015300008AC1C5A643BAF3F0000FA4400007A45F7
:10154000F0EE400AF5EEC00AF1EE10FA3AD29FED45
:101550003A1A20EEC10A9FED381AB4EEC10AF1EE34
:1015600010FA20DD9FED351AB4EEC10AF1EE10FA43
:1015700003DD9FED311AB0EE410ABCEEC01A11EE48
:10158000101A88B242F2107191FBF0F188B22C4926
:1015900001EB800191ED001ADFED2A1A31EE611A9C
:1015A000B0EE410A46E0BCEEC01A11EE101A88B245
:1015B000234901EB800191ED001AB1EE411AB0EE22
:1015C000410A37E09FED1C1A20EE810A9FED1A1A9E
:1015D000B4EEC10AF1EE10FA20DD9FED181AB4EE58
:1015E000C10AF1EE10FA03DD9FED131AB0EE410AC5
:1015F000BCEEC01A11EE101A88B242F2107191FBC3
:10160000F0F188B20E4901EB800191ED001ADFED97
:101610000D1A31EEC11AB0EE410A0BE0BCEEC01A51
:1016200011EE101A88B2064901EB800191ED001A03
:10163000B0EE410A704700000000C84200401C465E
:10164000147100080000B44210B5002303E0002428
:1016500041F823405B1C9342F9DB016042600024A7
:10166000048100EE102AB8EEC00AF7EE000A70EE10
:10167000200A00EE102AB8EEC00A20EE800AF0EE32
:10168000000A80EE201A80ED031A10BDF0B5054661
:101690000F890E6846F8275048680E89761C96FB1D
:1016A000F0F700FB17640E89864201D100260E81F7
:1016B000002300220AE00E6856F82470561C06FB30
:1016C0000733641C844200D10024521C8242F2DBA6
:1016D0000E89761C0E810E89864201D100260E816C
:1016E000D1ED030A00EE103AB8EEC01A81EE200ADE
:1016F000F0BD000008B5684602F079F830210120FD
:1017000002F0CCF900BF3D21012002F0C7F910F032
:10171000800FF8D102F0C4F84FF47A7004F01AFB8D
:101720003D21012002F0BAF908BD70B52DED028B04
:1017300084B0B0EE408AF0EE608A04468DED018AF6
:10174000CDED028A01208DF80C008DF80D4001AD21
:101750000A223F21284602F086F83521012002F0B6
:101760009DF906463146F8A003F034FD04B0BDEC07
:10177000028B70BD10B53D21012002F08FF90446A7
:1017800007E0082004F0E6FA3D21012002F086F986
:10179000044614F0700FF4D110BD2DE9FC5F06462D
:1017A0000F469046FFF7E6FF0122FB2101A802F059
:1017B000ABF99DF8040000F07F0001909DF804A0B3
:1017C000504604F091FA04469DF804203F2120463B
:1017D00002F09AF99DF80400801EC0B201902546DF
:1017E00095ED000A86ED000A95ED010A87ED000AE5
:1017F000287A0090687A88F8000094F808B03421BC
:10180000012002F04BF9D946204604F0EBF9484696
:10181000BDE8FC9F70B504460A223F21204602F035
:1018200022F83521012002F039F90546142004F090
:1018300091FA70BD10B52DED028B84B0B0EE408AE8
:101840008DED018A9FEDC50A8DED020A03208DF80A
:101850000C0002208DF80D0001AC2046FFF7DAFFE6
:1018600004B0BDEC028B10BD10B52DED028B84B021
:10187000B0EE408A8DED018A9FEDB80A8DED020A27
:1018800004208DF80C0002208DF80D0001AC2046DC
:10189000FFF7C0FF04B0BDEC028B10BD10B52DEDFD
:1018A000028B84B0B0EE408A8DED018A9FEDAB0AC9
:1018B0008DED020A05208DF80C0002208DF80D0038
:1018C00001AC2046FFF7A6FF04B0BDEC028B10BDB3
:1018D0003EB59FEDA20A8DED000A9FEDA00A8DEDA9
:1018E000010A02208DF808008DF809006C46204698
:1018F000FFF790FF3EBD3EB59FED980A8DED000AC3
:101900009FED960A8DED010A06208DF80800022051
:101910008DF809006C462046FFF77CFF3EBD2DE99F
:10192000F0412DED068B86B080460D461646B0EE92
:10193000408A8DED038A9FED890A8DED040A072008
:101940008DF8140000208DF8150003AF3846FFF71E
:1019500061FF642004F0FEF908208DF814000024D3
:1019600037E005EB840090ED000A8DED030A06EBED
:10197000840090ED000A8DED040A8DF815409DED70
:10198000040A10EE101A084603F0AFF941EC100BF0
:10199000B0EE409AF0EE609A9DED030A10EE101A38
:1019A000084603F0A2F941EC100BB0EE40AAF0EEAD
:1019B00060AA8DED009B53EC1A2B214668A003F022
:1019C00009FC3846FFF726FF1E2004F0C3F9601C0F
:1019D000C4B2FF2CC5D1642004F0BCF99FED5F0AAE
:1019E0008DED030A9FED5D0A8DED040A09208DF847
:1019F000140000208DF815003846FFF70BFF41F268
:101A0000883004F0A7F906B0BDEC068BBDE8F08184
:101A1000F8B505460122FB21684602F075F89DF8ED
:101A2000000000F07F0000909DF80070384604F040
:101A30005BF904469DF800203F21204602F064F83F
:101A40009DF80000801EC0B20090264696ED000A68
:101A500085ED000A96ED010A85ED010A307A2872BB
:101A6000707A68723421012002F018F8204604F0E0
:101A7000B9F8F8BDFEB504460D46174608261DE028
:101A8000FFF778FE6846FFF7C3FF9DF80860082E51
:101A900014D19DED000A9DF8090004EB800080ED53
:101AA000000A9DED010A9DF8090005EB800080ED1C
:101AB000000A9DF809103AA003F08CFB092EDFD133
:101AC000FEBD2DE9F84306460F46FFF753FE0122FF
:101AD000FB21684602F018F89DF8000000F07F0036
:101AE00000909DF80080404604F0FEF804469DF802
:101AF00000203F21204602F007F89DF80000801EDC
:101B0000C0B20090254695ED000A87ED000A287ABC
:101B100030703421012001F0C1FF204604F062F84A
:101B2000BDE8F88338B50122F421684601F0ECFFE6
:101B30009DF800404625802C42DBA4F5807000EB28
:101B4000D071C5EB610440E04D6F76656420746F21
:101B50002054582028257829200A00000000000081
:101B600053656E64696E67207265636F7264656445
:101B7000206461746120706B7420496E6465782004
:101B80003D20256920205069746368203D2025662A
:101B90002020526F6C6C203D20256620200A00001A
:101BA0005365636965766564207265636F72646509
:101BB00064206461746120706B74202569200A00C0
:101BC000204604EBD071C5EB6104204638BD10B54A
:101BD0003D21012001F062FF0446214601A003F0EF
:101BE000F9FA10BD53746174757320282578292083
:101BF0000A00000033490143334A1160704770B551
:101C0000002100230F22C47824B32F4C246804F44D
:101C1000E064C4F5E064C4F30721C1F10404E3B255
:101C20000A4144789C40E1B28478144021430C0777
:101C3000210E264C05786155047804F01F05012417
:101C4000AC4005786D114FF0E02606EB8505C5F830
:101C5000004109E0047804F01F040125A5401C4C54
:101C60000678761144F8265070BD1A4A0A4002439D
:101C7000154B1B1F1A60704739B1134A121D1268A9
:101C80000243114B1B1D1A6006E00F4A121D126819
:101C900082430D4B1B1D1A607047042808D14FF07A
:101CA000E021096941F004014FF0E022116107E0F1
:101CB0004FF0E021096921F004014FF0E0221161A9
:101CC000704700000000FA050CED00E000E400E0C1
:101CD00080E100E080FFFF1F002044490860091DEB
:101CE0000860091D0860091D086041483F4914311A
:101CF0000860704700213D498279002A3AD00A469F
:101D0000126803689A430B461A600A1D126803683A
:101D10009A430B1D1A60027911440A6803681A433A
:101D20000A60324A0832126803689A432F4B08331C
:101D30001A601A1D126803689A432C4B0C331A6000
:101D40004279102A0ED11A1F126803681A43274BD2
:101D500008331A601A1D126803681A43234B0C33A8
:101D60001A600DE02149427911440A6803681A4358
:101D70000A6005E0027911440A6803689A430A6020
:101D800070470021016001710C21417100218171B6
:101D900070471649103109680143144A1032116026
:101DA000704701460020114A143212680A4201D0DD
:101DB000012000E0002070470C4914310860704792
:101DC000014600200022094B1B6803EA0102074B71
:101DD00014331B680B4202D00AB1012000E000203E
:101DE000704702491431086070470000003C014010
:101DF000FFFF7F0010B504468C48844208D10121C2
:101E0000084600F000FB0021012000F0FCFA5EE033
:101E10008748844208D10121022000F0F4FA002111
:101E2000022000F0F0FA52E08248844208D10121F9
:101E3000042000F0E8FA0021042000F0E4FA46E073
:101E40007D48844208D10121082000F0DCFA0021FD
:101E5000082000F0D8FA3AE07848844208D10121FD
:101E6000102000F0D0FA0021102000F0CCFA2EE073
:101E70007348844208D10121202000F0C4FA0021D7
:101E8000202000F0C0FA22E06E48844208D10121EF
:101E9000402000F0B8FA0021402000F0B4FA16E02B
:101EA0006948844208D10121802000F0ACFA002169
:101EB000802000F0A8FA0AE06448844207D101219A
:101EC000801500F0A0FA0021A01500F09CFA10BDCA
:101ED000F0B50A4600210023002400BF3DE00125A3
:101EE00005FA01F3156805EA03049C4234D105683C
:101EF0004F000326BE40B543056015794E00B5403E
:101F00000668354305601579012D02D01579022D3B
:101F100016D185684F000326BE40B54385605579CC
:101F20004E00B540866835438560456801268E4081
:101F3000B5434560456896798E40B6B235434560F5
:101F4000C5684F000326BE40B543C560D5794E0035
:101F5000B540C6683543C560491C1029BFD3F0BDE4
:101F60004FF6FF7101600021017141718171C171F2
:101F7000704708B54FF480320092009A0A430092ED
:101F8000009AC261C161009AC261C2690092C269CD
:101F9000009208BD0246002013690B4201D00120C7
:101FA00000E0002070470146086980B27047024691
:101FB000002053690B4201D0012000E0002070474F
:101FC0000146486980B2704701837047418370477A
:101FD0000AB1018300E04183704741617047426963
:101FE0004A4042617047F0B5002300244D07ED0ED2
:101FF00002FA05F3CE1000F1200555F826504E07E1
:10200000F70E0F26BE40B543CF1000F1200646F86C
:102010002750CE1000F1200555F8265045EA03045C
:10202000CE1000F1200545F82640F0BD000002402A
:102030000004024000080240000C02400010024070
:102040000014024000180240001C02400020024020
:10205000FA48006840F00100F84908600020F7499C
:1020600008310860F5480068F5490840F349086000
:10207000F448091D0860081F006820F48020091F2B
:1020800008600020ED490C31086070470021EB4AE0
:10209000921C117011460870704710B5014600225D
:1020A000002300204A11012A02D1E44C236808E0F1
:1020B000022A03D1E14C7034236802E0DF4C74340F
:1020C000236801F01F02012494401C4201D001202A
:1020D00000E0002010BD38B500200090002400254D
:1020E00000BF3120FFF7D9FF05460098401C009043
:1020F0000098B0F5A06F01D0002DF2D03120FFF78D
:10210000CCFF08B1012400E00024204638BD014680
:102110000020CA4A106820F0F80040EAC1001060B0
:102120007047C949086070470021C44A7032117075
:102130001170012802D004280AD104E00121BF4A0D
:102140007032117005E00521BC4A7032117000E058
:1021500000BF00BF7047BD490860704770B5049C60
:1021600041EA82150126C6EB530645EA06450543BA
:1021700045EA0465B14E361D356070BDB24908664A
:102180007047820142EA0172AC4B84331A60704797
:10219000AD4988667047AC49C86470470246002064
:1021A000A64B0833186820F0EC6042EA010318439C
:1021B000A24B083318607047024600209F4B08333B
:1021C000186820F0784042EA010318439B4B08331B
:1021D0001860704701460020984A0832106820F0C5
:1021E000030008431060704794480830006800F00E
:1021F0000C00704701460020904A0832106820F019
:10220000F000084310607047014600208B4A0832F6
:10221000106820F4E0500843106070470146002029
:10222000864A0832106820F4604040EAC10010601D
:102230007047F0B500210022002402250026022369
:102240007E4F08373F6807F00C0121B1042905D003
:10225000082937D105E07E4F076036E07D4F0760E3
:1022600033E0764F3F1D3F68C7F38056734F3F1DE5
:102270003F6807F03F036EB1764FB7FBF3F7DFF827
:10228000BCC10CF1040CDCF800C0CCF3881C07FBCB
:102290000CF40CE06E4FB7FBF3F7DFF8A0C10CF1C4
:1022A000040CDCF800C0CCF3881C07FB0CF4634F73
:1022B0003F1D3F68C7F301477F1C7D00B4FBF5F766
:1022C000076002E0624F076000BF00BF5B4F083746
:1022D0003F6807F0F00109095F4F7A5C0768D74053
:1022E0004760564F08373F6807F4E051890A5A4F54
:1022F0007A5C4768D7408760504F08373F6807F4DB
:102300006041490B544F7A5C4768D740C760F0BDC5
:10231000002100F44072B2F5407F0AD1474A0832EA
:10232000116821F4F8114D4A02401143434A083222
:102330001160424A70321268C0F30B031A433F4BDC
:1023400070331A60704741494439086070473F490B
:1023500040390860704742490860704739B1374AD0
:10236000303212680243354B30331A6006E0334A8C
:10237000303212688243314B30331A60704739B1C2
:102380002E4A3432126802432C4B34331A6006E072
:102390002A4A343212688243284B34331A60704719
:1023A00039B1264A383212680243244B38331A6056
:1023B00006E0224A383212688243204B38331A60D2
:1023C000704739B11D4A4032126802431B4B4033FB
:1023D0001A6006E0194A403212688243174B4033B4
:1023E0001A60704739B1154A443212680243134BE0
:1023F00044331A6006E0114A4432126882430F4B9C
:1024000044331A60704739B10C4A103212680243E3
:102410000A4B10331A6006E0084A103212688243F1
:10242000064B10331A607047E1B1044A1432126847
:102430000243024B14331A6019E0000000380240D6
:10244000FFFFF6FE1030002400004742800E474296
:102450000024F40000127A004C000020FFFCFF0F63
:102460005C0147425B4A126882435A4B1A607047CC
:1024700039B1584A121D12680243564B1B1D1A608F
:1024800006E0544A121D12688243524B1B1D1A600B
:10249000704739B14F4A0C32126802434D4B0C332E
:1024A0001A6006E04B4A0C3212688243494B0C33E7
:1024B0001A60704739B1474A103212680243454BDF
:1024C00010331A6006E0434A103212688243414BCF
:1024D00010331A60704739B13E4A3C3212680243E9
:1024E0003C4B3C331A6006E03A4A3C321268824365
:1024F000384B3C331A60704739B1364A4032126863
:102500000243344B40331A6006E0324A40321268CC
:102510008243304B40331A60704739B12D4A443200
:10252000126802432B4B44331A6006E0294A4432B6
:1025300012688243274B44331A60704739B1254AE9
:102540004C3212680243234B4C331A6006E0214A96
:102550004C32126882431F4B4C331A60704739B1BA
:102560001C4A5032126802431A4B50331A6006E07C
:10257000184A503212688243164B50331A60704723
:1025800039B1144AD21F12780243124BDB1F1A7062
:1025900006E0104AD21F127882430E4BDB1F1A70DE
:1025A00070470C486030006840F080700949603125
:1025B0000860704701460020064A083A12680A423D
:1025C00001D0012000E0002070470249891F0870F7
:1025D000704700001438024010B50446F6488442A3
:1025E00008D101218014FFF765FF0021A014FFF737
:1025F00061FF16E0F148844208D101210014FFF781
:1026000048FF00212014FFF744FF0AE0EC48844211
:1026100007D10121C013FFF73CFF0021E013FFF7B2
:1026200038FF10BD10B50022028802F441520B8819
:102630004C8823438C882343CC8823430C89234331
:102640004C8923438C892343CC8923431A4302803A
:10265000838B4FF2FF74234083830B8A038210BD68
:102660002DE9F04F00250223002401270022002637
:10267000944690469146B0F81CA04FF2400B0AEAEF
:102680000B0AA0F81CA04FF0020AA0F820A0858B2E
:10269000D1F808A0BAF1020F01D100BF6AE0B1F889
:1026A00004A0BAF1000F01D1012700E00227DFF8F2
:1026B00014A3DAF800A01AF4000F09D0DFF804A37D
:1026C000DAF800A02AF4000ADFF8F8B2CBF800A08C
:1026D000DFF8F0A20AF17C0ADAF800A0CAF3881841
:1026E000DFF8E0A20AF17C0ADAF800A0CAF3027966
:1026F000DFF8D0A2AAF1040ADAF800A00AF03F0C31
:10270000DFF8C4A2BAFBFCFA0AFB08FABAFBF9F636
:10271000B1F806A0BAF5007F0ED14FEA162A0AEBEF
:102720008A0A4FEA4A0AD1F808B0BAFBFBFA0AF162
:10273000050A1FFA8AF20FE04FEA471AB6FBFAFAC7
:102740000AEB8A0A4FEA4A0AD1F808B0BAFBFBFA48
:102750000AF1050A1FFA8AF24FF00A0AB2FBFAF2EE
:1027600002F00104A2EB040ACAF34F034FF6FF7A0A
:102770000AEA0424022B01DBFF2B01DD02230024E3
:10278000B1F806A04AEA040A4AEA030AA0F820A01F
:10279000B1F804A0B1F80CB04AEA0B0AB1F802B0E3
:1027A0004AEA0B0AB1F800B04AEA0B0A4AF4006A96
:1027B0004AEA05058583BDE8F08F0021018041804C
:1027C0008180C180018141818181C1810721018294
:1027D00070470021018041808180C1800221816099
:1027E00000218181704721B1028842F040020280BD
:1027F00004E002884FF6BF731A400280704721B18F
:10280000828B42F48062828304E0828B4FF6FF3336
:102810001A408283704702884FF2FF731A40028089
:1028200002880A4302807047B1F5804F04D10288C4
:1028300042F48042028004E002884BF6FF731A40A3
:1028400002807047A1F57E42FF3A04D0028842F42C
:102850008072028004E002884FF6FF631A40028013
:10286000704721B1828842F00402828004E08288AD
:102870004FF6FB731A408280704721B1828842F084
:102880001002828004E082884FF6EF731A40828043
:10289000704730B500220023848B4FF240052C4056
:1028A000848302240484828B0C88B4F5007F01D0D9
:1028B0000C8814B94FF4807308E00C88B4F5407F9D
:1028C00003D00C88B4F5807F00D100238C888D89DB
:1028D0002C434D882C431C4344F4006422438283E0
:1028E00030BD0146888970478181704721B10288D7
:1028F00042F40052028004E002884DF6FF731A4051
:1029000002807047018841F480510180704702467F
:102910000020012901D0108B00E0908A7047014609
:10292000088A70471AB183880B43838002E083884A
:102930008B438380704730B5002400230C110125A0
:10294000A540ABB21AB185881D43858002E0858819
:102950009D43858030BD0246002013890B4201D083
:10296000012000E000207047CA4302817047F0B5A3
:102970000246002000240023002501F00F07012655
:10298000BE40B4B20B1101269E40B3B2968806EA4F
:1029900003051689264202D00DB1012000E0002077
:1029A000F0BD10B5002201F00F040123A3409AB23C
:1029B000D343038110BD00000030014000380040C7
:1029C000003C00400838024000127A0010B5012196
:1029D0008803FFF76FFD00214FF48040FFF76AFD89
:1029E00010BD1A490860704730B500228B071C0FD4
:1029F0000F2303FA04F2154B08338C1053F82430DC
:102A00009343124C08348D1044F8253023468C1023
:102A100053F824308C07240F00FA04F423430B4CA2
:102A200008348D1044F8253030BD094908607047DE
:102A3000084908607047002004492031096811F4F2
:102A4000807F01D0012000E0002070470038014065
:102A5000DC0027420004274210B50446FE488442A9
:102A600008D101210846FFF725FD00210120FFF7CD
:102A700021FD9DE0B4F1804F08D101210846FFF708
:102A800008FD00210120FFF704FD91E0F348844296
:102A900008D101210220FFF7FCFC00210220FFF7F2
:102AA000F8FC85E0EE48844208D101210420FFF7BC
:102AB000F0FC00210420FFF7ECFC79E0E9488442B7
:102AC00008D101210820FFF7E4FC00210820FFF7CE
:102AD000E0FC6DE0E448844208D101211020FFF7BA
:102AE000D8FC00211020FFF7D4FC61E0DF488442CD
:102AF00008D101212020FFF7CCFC00212020FFF786
:102B0000C8FC55E0DA48844208D101210220FFF7D1
:102B1000D1FC00210220FFF7CDFC49E0D5488442DA
:102B200009D101210804FFF7C5FC00214FF48030D2
:102B3000FFF7C0FC3CE0D048844209D101214804A1
:102B4000FFF7B8FC00214FF40030FFF7B3FC2FE093
:102B5000CA48844209D101218804FFF7ABFC002157
:102B60004FF48020FFF7A6FC22E0C548844208D13C
:102B700001214020FFF78DFC00214020FFF789FC58
:102B800016E0C048844208D101218020FFF781FC73
:102B900000218020FFF77DFC0AE0BB48844207D17A
:102BA00001218015FFF775FC0021A015FFF771FCCE
:102BB00010BD00220288A84B98420ED0AC4B984220
:102BC0000BD0B0F1804F08D0A44B984205D0A44B55
:102BD000984202D0A34B984204D14FF68F731A400B
:102BE0004B881A43A04B984207D0A04B984204D080
:102BF0004FF6FF431A400B891A4302804B68C362A9
:102C00000B880385944B984202D0994B984201D18E
:102C10008B7A03860123838270474FF0FF31416036
:102C2000002101800181418081727047018582828B
:102C300070470A46002101884FF68F7319401143EF
:102C40000180704741627047C16270470146486A1F
:102C500070470146088D704721B1028842F0020298
:102C6000028004E002884FF6FD731A40028070472C
:102C700021B1028842F00402028004E002884FF68B
:102C8000FB731A400280704721B1028842F0800233
:102C9000028004E002884FF67F731A40028070477A
:102CA00002884FF6F7731A40028002880A430280B6
:102CB000704702884FF6FF431A40028002880A4399
:102CC0000280704721B1028842F00102028004E0D4
:102CD00002884FF6FE731A400280704770B50024D8
:102CE00000220023058C4FF6FE7635400584028CC9
:102CF0008388048B4FF68F752C40B51E2C400D88B1
:102D00002C43751E2A408D892A434D882A43524DF3
:102D1000A84202D0564DA84213D14FF6F7752A406B
:102D2000CD892A434FF6FB752A408D882A434FF6FA
:102D3000FF652B404FF6FF552B400D8A2B434D8AE4
:102D40002B43838004838D684563028470BD70B516
:102D5000002400220023058C4FF6EF7635400584D1
:102D6000028C8388048B48F6FF752C404FF6FF4594
:102D70002C400D884FF6FF7606EA05252C434FF6CA
:102D8000DF752A408D8906EA05152A434D8806EA33
:102D900005152A43304DA84202D0354DA8421DD119
:102DA0004FF67F752A40CD894FF6FF7606EA051566
:102DB0002A434FF6BF752A408D8806EA05152A4337
:102DC0004FF6FF352B404FF2FF752B400D8A06EA78
:102DD00085052B434D8A06EA85052B4383800483B2
:102DE0008D688563028470BD70B5002400220023C5
:102DF000058C4FF6FF6635400584028C8388848BF2
:102E00004FF68F752C404FF6FC752C400D882C43E7
:102E10004FF6FF552A408D894FF6FF7606EA0525C5
:102E20002A434D8806EA05252A430B4DA84202D0C5
:102E30000F4DA84238D14FF2FF752A40CD894FF689
:102E4000FF7606EA05252A434FF6FF352A408D888E
:102E500006EA05252A4319E000000140000400406D
:102E600000080040000C004000100040001400402A
:102E7000000401400040014000440140004801407E
:102E800000180040001C0040002000404EF6FF7576
:102E90002B404DF6FF752B400D8A06EA05152B4396
:102EA0004D8A06EA05152B43838084838D68C563AC
:102EB000028470BD70B5002200230024058C4EF6FC
:102EC000FF7635400584038C8488828B48F6FF7535
:102ED0002A404FF6FF452A400D884FF6FF7606EA56
:102EE00005252A434DF6FF752B408D8906EA0535E9
:102EF0002B434D8806EA05352B43FE4DA84202D0F0
:102F0000FD4DA84208D14BF6FF752C400D8A4FF6B7
:102F1000FF7606EA85152C43848082838D680564DC
:102F2000038470BD002101804180818081608181A6
:102F3000C18101824182704770B5034600200024A0
:102F40001846183001258D40ACB21D8CA5431D8458
:102F500009B108290AD100EB610005684FF68F76A8
:102F6000354005600568154305600FE00D1FC5F38A
:102F70004E052844056848F6FF763540056005682B
:102F80004FF6FF7606EA02263543056070BD4163C1
:102F9000704781637047C1637047016470470A4698
:102FA0000021018B4FF68F73194011430183704745
:102FB0000A460021018B48F6FF7319404FF6FF7354
:102FC00003EA02231943018370470A460021818BDB
:102FD0004FF68F7319401143818370470A460021D1
:102FE000818B48F6FF7319404FF6FF7303EA022303
:102FF0001943818370470A460021018B4FF6F7730E
:1030000019401143018370470A460021018B4FF29A
:10301000FF7319404FF6FF7303EA0223194301833C
:1030200070470A460021818B4FF6F7731940114310
:10303000818370470A460021818B4FF2FF7319404C
:103040004FF6FF7303EA02231943818370470A4650
:103050000021018B4FF6FB73194011430183704728
:103060000A460021018B4FF6FF3319404FF6FF73DC
:1030700003EA02231943018370470A460021818B2A
:103080004FF6FB7319401143818370470A460021B4
:10309000818B4FF6FF3319404FF6FF7303EA02238B
:1030A0001943818370470A460021018B4FF67F73D5
:1030B00019401143018370470A460021018BC1F377
:1030C0000E014FF6FF7303EA022319430183704791
:1030D0000A460021818B4FF67F731940114381838B
:1030E00070470A460021818BC1F30E014FF6FF7332
:1030F00003EA02231943818370470A460021018CA9
:103100004FF6FD7319401143018470470A460021B0
:10311000018C4FF6F77319401143018470470A463A
:103120000021018C4FF6DF7319404FF6FF7303EA5D
:1031300002131943018470470A460021018C4FF69F
:103140007F7319404FF6FF7303EA0213194301849A
:1031500070470A460021018C4FF6FF5319404FF685
:10316000FF7303EA02231943018470470A460021D2
:10317000018C4FF2FF7319404FF6FF7303EA0223ED
:103180001943018470470A460021018C4DF6FF73F4
:1031900019404FF6FF7303EA023319430184704765
:1031A00030B5002301248C40A3B2048C9C430484DA
:1031B000048C02FA01F5ADB22C43048430BD30B565
:1031C000002304248C40A3B2048C9C430484048C0C
:1031D00002FA01F5ADB22C43048430BD828B4FF26C
:1031E000FF331A408283828B4FF6FF7303EA012379
:1031F0001A4382837047F0B50C4615460021002221
:103200000026078C4EF6FF7C07EA0C070784818BAB
:10321000028C4FF6FF7707EA043640F6FF47394045
:103220004FF6FF7707EA052739434FF6FF7707EA9E
:103230000337394345F6FF773A4046F480573A431F
:1032400081830284F0BD828B4FF6F3731A40828330
:10325000828B0A4382837047F0B50C4615460021E5
:1032600000220026078C4FF6FF6C07EA0C07078444
:10327000818B028C4FF6FF7707EA04264FF60C7716
:1032800039404FF6FF7707EA03172F4339434FF2D0
:10329000FF573A4046F480773A4381830284F0BD79
:1032A000028B4FF2FF331A400283028B4FF6FF73FB
:1032B00003EA01231A4302837047F0B50C46154612
:1032C000002100220026078C4FF6EF7C07EA0C074E
:1032D0000784018B028C4FF6FF7707EA041640F64D
:1032E000FF4739404FF6FF7707EA033739434FF678
:1032F000FF7703E0000001400004014007EA0527D2
:1033000039434FF65F773A4046F010073A4301835E
:103310000284F0BD028B4FF6F3731A400283028BD6
:103320000A4302837047F0B50C461546002100227F
:10333000068C4FF6FE773E400684018B028C4FF6DA
:103340000C7631407E1C06EA03162E4331434FF6BD
:10335000F576324044F00106324301830284F0BD29
:1033600070B505460C46208850B92389A28861882B
:103370002846FFF7D8FFE1882846FFF7CBFF25E076
:10338000208804280AD12389A28861882846FFF76B
:1033900094FFE1882846FFF783FF17E0208808287C
:1033A0000AD12389A28861882846FFF755FFE18862
:1033B0002846FFF748FF09E02389A288618828464C
:1033C000FFF719FFE1882846FFF708FF70BD0021CD
:1033D00001804180012181800021C18001817047ED
:1033E0002DE9F04105460C4600260127608808B902
:1033F000022600E00026A088012801D1022700E073
:1034000001272088A0B92389A28861882846FFF770
:103410008AFFE1882846FFF77DFF23893A46314637
:103420002846FFF74AFFE1882846FFF739FF13E0F7
:103430002389A28861882846FFF73FFFE188284654
:10344000FFF72EFF23893A4631462846FFF76BFFE8
:10345000E1882846FFF75EFFBDE8F0810146486B32
:1034600070470146886B70470146C86B704701463C
:10347000086C70470A884B881A438B881A43CB889C
:103480001A430B891A434B891A438B891A43A0F8B4
:10349000442070470021018041808180C1800181EA
:1034A00041818181704731B1B0F8442042F400423B
:1034B000A0F8442005E0B0F84420C2F30E02A0F8C2
:1034C0004420704721B1828842F00402828004E0E7
:1034D00082884FF6FB731A408280704721B1828840
:1034E00042F00102828004E082884FF6FE731A40A7
:1034F000828070471AB183890B43838102E08389FC
:103500008B43838170478182704702460020138A73
:103510000B4201D0012000E000207047CA43028224
:10352000704730B50246002000230024158A05EAC2
:103530000103958905EA010413B10CB1012000E0F3
:10354000002030BDCA430282704741EA0203A0F85E
:10355000483070471AB183890B43838102E0838925
:103560008B438381704721B1828842F008028280B8
:1035700004E082884FF6F7731A4082807047018911
:103580004FF6F8721140018170470A460021018907
:103590004FF68F73194011430181704730B50446CF
:1035A0000D4629462046FFF7F0FF208940F007002E
:1035B000208130BD2DE9F04104460D4616461F46D8
:1035C000602D06D13B46012231462046FFF775FEAD
:1035D00005E03B46012231462046FFF7A4FE29467E
:1035E0002046FFF7D2FF208940F007002081BDE888
:1035F000F08130B50C4600210189C9B24FF6FF7544
:1036000005EA0325154325432943018130BD2DE9F2
:10361000F04105460E4617469846002443463A4672
:1036200031462846FFF7E5FF2C894FF6F870044035
:1036300044F007044FF68F70044044F070042C816E
:10364000BDE8F081F0B504460D4616461F463B46E0
:10365000324629462046FFF7CCFF208940F48040BF
:103660002081F0BD82884FF68F731A408280828855
:103670000A438280704702894FF6F8731A4002812C
:1036800002890A430281704702894FF67F731A400C
:10369000028102890A4302817047F0B50C46154643
:1036A0001E460021002200230189028B038C4FF665
:1036B000F877394021434FF6FC473A4040F2011772
:1036C0003A434FF6DD773B404FF6FF7707EA0617A0
:1036D0002F433B43018102830384F0BD21B18288E3
:1036E00042F08002828004E082884FF67F731A40A5
:1036F00082807047A0F850107047000000B587B076
:1037000001218803FEF75DFE01210220FEF726FE5F
:1037100001211020FEF722FE05220D21F648FEF7BA
:1037200062FC05220E21F448FEF75DFC05220F2104
:10373000F148FEF758FC02208DF8180000208DF8A3
:103740001A0002208DF819008DF81B000003059067
:1037500005A9E948FEF7BCFB4FF40040059005A918
:10376000E548FEF7B5FB4FF48040059005A9E24817
:10377000FEF7AEFBE148FEF72FFF0020ADF800009A
:10378000ADF80400ADF80600ADF808004FF4407045
:10379000ADF80A000820ADF80C000020ADF80E00CE
:1037A0000720ADF810004FF48270ADF802006946B2
:1037B000D248FEF737FF0121D048FFF714F8102058
:1037C000059001208DF8180000208DF81A000220C5
:1037D0008DF8190001208DF81B0005A9C848FEF7D7
:1037E00077FB1021C648FEF7EFFB07B000BD10B510
:1037F0000446FFF783FF10BD0020704710B5044654
:103800004FF47040BF49086009E0BE490868411E96
:10381000BC4A116018B9FFF7EFFFC0B210BD02211A
:10382000B648FFF798F80028EFD02146B348FFF7D5
:103830005BF84FF47040B349086009E0B14908688B
:10384000411EB04A116018B9FFF7D6FFC0B2E5E7D4
:103850000121AA48FFF77FF80028EFD0A748FFF71B
:1038600040F8C0B2DAE770B505460E461446012CA2
:1038700001DD46F040061021A148FEF7A7FB3046C7
:10388000FFF7BCFF05E02878FFF7B8FF601E84B2A1
:103890006D1C012CF7DA10219948FEF795FB70BDDD
:1038A00008B50C20009001220B216846FFF7DBFFD2
:1038B0000020009001220C216846FFF7D4FF5D2014
:1038C000009001220D216846FFF7CDFFA420009053
:1038D00001220E216846FFF7C6FF662000900122F4
:1038E0000F216846FFF7BFFF0E2000900122102134
:1038F0006846FFF7B8FF3B2000900122112168467F
:10390000FFF7B1FF73200090012212216846FFF7F4
:10391000AAFF42200090012213216846FFF7A3FF6F
:10392000F8200090012214216846FFF79CFF002038
:10393000009001220A216846FFF795FF00200090C1
:10394000012215216846FFF78EFFB6200090012264
:1039500021216846FFF787FF1020009001222221D5
:103960006846FFF780FF302000900122172168464B
:10397000FFF779FF18200090012218216846FFF711
:1039800072FF1D200090012219216846FFF76BFF8E
:103990001C20009001221A216846FFF764FFC7200F
:1039A000009001221B216846FFF75DFF4020009038
:1039B00001221C216846FFF756FFB020009001222B
:1039C0001D216846FFF74FFFEA20009001222321C6
:1039D0006846FFF748FF0A2000900122242168462C
:1039E000FFF741FF00200090012225216846FFF7E4
:1039F0003AFF19200090012226216846FFF733FF85
:103A000059200090012229216846FFF72CFF8820C9
:103A1000009001222C216846FFF725FF31200090FD
:103A200001222D216846FFF71EFF0B200090012286
:103A30002E216846FFF717FF07200090012203217F
:103A40006846FFF710FF29200090012200216846F8
:103A5000FFF709FF06200090012202216846FFF7C8
:103A600002FF04200090012207216846FFF7FBFEB9
:103A700044200090012208216846FFF7F4FE002050
:103A80000090012209216846FFF7EDFE0A20009010
:103A9000012206216846FFF7E6FE08BD70B505461F
:103AA0000C460DB144F0800410211548FEF78EFA43
:103AB0002046FFF7A3FE0020FFF7A0FE06461021D8
:103AC0000F48FEF781FA304670BD10B53021012055
:103AD000FFF7E4FF10BD70B505460C460A2C01D077
:103AE000FF2070BD22463F212846FFF7BCFE35214E
:103AF0000120FFF7D3FFF4E7000402400038004044
:103B0000001002405C00002070B506460C461546C9
:103B1000012D02DD44F0C00401E044F080041021D6
:103B20001048FEF753FA2046FFF768FE06E0002033
:103B3000FFF764FE3070681E85B2761C002DF6DC3F
:103B400010210848FEF740FA70BD70B505460C46D6
:103B500022463F212846FFF7D7FF34210120FFF7F7
:103B60009DFF70BD001002400020704710B5044654
:103B70004FF48050F749086009E0F6490868411E93
:103B8000F44A116018B9FFF7EFFFC0B210BD02216F
:103B9000F148FEF7E0FE0028EFD02146EE48FEF7A0
:103BA000A3FE4FF48050EB49086009E0E94908683A
:103BB000411EE84A116018B9FFF7D6FFC0B2E5E729
:103BC0000121E548FEF7C7FE0028EFD0E248FEF7E6
:103BD00088FEC0B2DAE770B505460E461446012CE1
:103BE00001DD46F040060821DC48FEF7EFF93046DB
:103BF000FFF7BCFF05E02878FFF7B8FF601E84B22E
:103C00006D1C012CF7DA0821D448FEF7DDF970BDF0
:103C100000B587B001210803FEF7E4FB0121084647
:103C2000FEF79CFB01211020FEF798FB01211020DC
:103C3000FEF794FB01211020FEF790FB05221146B0
:103C4000C748FEF7D0F905220621C548FEF7CBF993
:103C500005220721C248FEF7C6F902208DF8180098
:103C600000208DF81A0002208DF81B008DF8190035
:103C70002020059005A9BA48FEF72AF98020059072
:103C800005A9B748FEF724F94020059005A9B448D6
:103C9000FEF71EF9B048FEF79FFC0020ADF80000CB
:103CA000ADF80400ADF80600ADF808004FF4007060
:103CB000ADF80A000820ADF80C000020ADF80E00A9
:103CC0000720ADF810004FF48270ADF8020069468D
:103CD000A148FEF7A7FC01219F48FEF784FD0820BC
:103CE000059001208DF8180000208DF81A000220A0
:103CF0008DF8190005A99948FEF7EAF808219748B8
:103D0000FEF762F90120059000208DF818008DF86B
:103D10001A0002208DF8190000208DF81B0005A95B
:103D20008E48FEF7D5F80220059005A98B48FEF7CE
:103D3000CFF807B000BD38B5044600200090FFF76B
:103D400067FF2078A178084361780843009001223A
:103D500020216846FFF73FFFE07821790843617929
:103D600008430090012224216846FFF734FF38BD44
:103D700070B506460C461546012D02DD44F0C00420
:103D800001E044F0800408217448FEF71FF9204642
:103D9000FFF7ECFE06E00020FFF7E8FE3070681E3B
:103DA00085B2761C002DF6DC08216C48FEF70CF974
:103DB00070BD38B5044600200090012223216846DA
:103DC000FFF7D6FF207861780843A1780843009078
:103DD000012223216846FFF7FEFE38BD08B5012207
:103DE00020216846FFF7C4FF9DF8000000F00F0097
:103DF00000909DF800000090012220216846FFF706
:103E0000EAFE08BD38B50446012220216846FFF7C6
:103E1000AFFF9DF8000000F00F0000909DF800003B
:103E200020430090012220216846FFF7D4FE38BDD0
:103E300038B50446012224216846FFF799FF9DF812
:103E4000000000F0C70000909DF8000020430090A3
:103E5000012224216846FFF7BEFE38BD30B52DEDA6
:103E6000068B87B005460024002008EE100A0122C8
:103E7000102103A8FFF77CFF0122112102A8FFF700
:103E800077FF0122122101A8FFF772FF01222421EE
:103E900004A8FFF76DFF0122282105A8FFF768FF9E
:103EA000012229210DF11500FFF762FF01222A21CD
:103EB0000DF11600FFF75CFF01222B210DF1170019
:103EC000FFF756FF01222C2106A8FFF751FF012220
:103ED0002D210DF11900FFF74BFF9DF81000C0F3E5
:103EE000C200052873D2DFE800F0034173A4D500B7
:103EF00000242BE005A8015D05AA601C105C41EAC6
:103F0000002000B208EE100AB8EEC80A10EE100A3F
:103F100000F0EBFE41EC100BB0EE40AAF0EE60AA10
:103F20009FED100B53EC102B51EC1A0B00F0FCFD25
:103F300041EC100BB0EE409AF0EE609A51EC190B88
:103F400000F0E6FE28602D1DA01CC4B2062CD1DBBB
:103F5000D2E000006000002000300140001002406C
:103F60000000024008AC1C5A643BAF3F00242BE029
:103F700005A8015D05AA601C105C41EA002000B2A2
:103F800008EE100AB8EEC80A10EE100A00F0ADFEF6
:103F900041EC100BB0EE40AAF0EE60AA9FED590B79
:103FA00053EC102B51EC1A0B00F0BEFD41EC100B42
:103FB000B0EE409AF0EE609A51EC190B00F0A8FEBA
:103FC00028602D1DA01CC4B2062CD1DB94E092E029
:103FD00000242BE005A8015D05AA601C105C41EAE5
:103FE000002000B208EE100AB8EEC80A10EE100A5F
:103FF00000F07BFE41EC100BB0EE40AAF0EE60AAA0
:104000009FED420B53EC102B51EC1A0B00F08CFD82
:1040100041EC100BB0EE409AF0EE609A51EC190BA7
:1040200000F076FE28602D1DA01CC4B2062CD1DB4A
:1040300062E000242BE005A8015D05AA601C105C6D
:1040400041EA002000B208EE100AB8EEC80A10EEED
:10405000100A00F04AFE41EC100BB0EE40AAF0EE60
:1040600060AA9FED2C0B53EC102B51EC1A0B00F0B7
:104070005BFD41EC100BB0EE409AF0EE609A51EC13
:10408000190B00F045FE28602D1DA01CC4B2062CA3
:10409000D1DB31E000242BE005A8015D05AA601CFE
:1040A000105C41EA002000B208EE100AB8EEC80A1F
:1040B00010EE100A00F019FE41EC100BB0EE40AA11
:1040C000F0EE60AA9FED150B53EC102B51EC1A0B80
:1040D00000F02AFD41EC100BB0EE409AF0EE609A31
:1040E00051EC190B00F014FE28602D1DA01CC4B269
:1040F000062CD1DB00E000BF00BF07B0BDEC068B93
:1041000030BD000008AC1C5A643BBF3F068195439C
:104110008B6CC73F08AC1C5A643BCF3F08AC1C5AA1
:10412000643BDF3F0146EE2901D101207047ED29B4
:1041300001D10220FAE7EB2901D10320F6E7DE29BD
:1041400001D10420F2E7DD2901D10520EEE7DB29CA
:1041500001D10620EAE7BE2901D10720E6E7BD2903
:1041600001D10820E2E7BB2901D10920DEE77D2942
:1041700001D10020DAE70B20D8E730B505460C4620
:104180007E2D01D1012018707B2D01D1FF201870E8
:104190002846FFF7C7FF0A2801DA012000E00020C7
:1041A0000BB1012100E0002108420ED02846FFF7A4
:1041B000B9FF00EE100AB8EE400AD4ED000AB2EEE4
:1041C000041A00EE810A84ED000A772D0ED1D4ED99
:1041D000000A93F9000000EE100AB8EEC00A20EEC3
:1041E000800A84ED000A00201070187030BD1CB5E4
:1041F0006846FDF7B5FE00208DF8050001208DF81A
:1042000004008DF80700802000906946FE48FDF705
:104210005FFE4FF4807000906946FB48FDF758FE42
:104220004FF4007000906946F748FDF751FE4FF4D7
:10423000806000906946F448FDF74AFE1CBD1CB53D
:104240006846FDF78DFE00208DF805008DF804000E
:1042500001208DF80700022000906946EA48FDF72A
:1042600037FE042000906946E748FDF731FE08203C
:1042700000906946E448FDF72BFE40200090694617
:10428000E148FDF725FE1CBD10B501210820FEF711
:1042900065F8FFF7D4FFFFF7AAFF10BD10B50024A3
:1042A0000221D948FDF776FE04460421D648FDF7E1
:1042B00071FE04EB4000C4B20821D348FDF76AFE4A
:1042C00004EB8000C4B24021CF48FDF763FE04EB4D
:1042D000C000C4B2204610BD10B5044694B9802178
:1042E000C948FDF773FE4FF48071C748FDF76EFEB5
:1042F0004FF40071C448FDF769FE4FF48061C24875
:10430000FDF764FE012C0FD18021BF48FDF75CFE54
:104310002102BD48FDF758FE6102BB48FDF754FE7F
:10432000A102B948FDF750FE10BD10B50024802150
:10433000B548FDF72FFE04464FF48071B248FDF7F3
:1043400029FE04EB4000C4B24FF40071AE48FDF703
:1043500021FE04EB8000C4B24FF48061AA48FDF74F
:1043600019FE04EBC000C4B2204610BD10B50446CF
:104370007CB90221A448FDF729FE0421A248FDF7DB
:1043800025FE0821A048FDF721FE40219E48FDF7AB
:104390001DFE012C0FD102219B48FDF715FE0421C3
:1043A0009948FDF711FE08219748FDF70DFE4021C1
:1043B0009548FDF709FE10BD1CB56846FDF7D0FD18
:1043C00000208DF805008DF8040001208DF807000D
:1043D0008020009069468C48FDF77AFD4FF480708C
:1043E000009069468848FDF773FD4FF40070009017
:1043F00069468548FDF76CFD4FF480600090694682
:104400008148FDF765FD1CBD1CB56846FDF7A8FD9C
:1044100000208DF8050001208DF804008DF80700BC
:104420000220009069467848FDF752FD0420009074
:1044300069467548FDF74CFD0820009069467248B2
:10444000FDF746FD4020009069466F48FDF740FDAE
:104450001CBD10B50024FFF7D7FFFFF7ADFF00200C
:10446000FFF784FFFFF761FF0446FFF7E8FEFFF761
:10447000BEFE0020FFF730FFFFF710FF00EB041037
:10448000C4B2FFF701FF204610BD70B586B00446E8
:104490000D460120059000200490FF2616E04FF005
:1044A000FF31082001F002FD01AB07C3FFF7D1FF88
:1044B000064604AB05AA21463046FFF75EFEC8203B
:1044C00001F048FC0821286801F0CAFC9DF814009E
:1044D0000028E4D106B070BD0EB501218803FDF7B8
:1044E00081FF01210320FEF77FFA02210320FEF75E
:1044F0007BFA03210846FEF777FA06210320FEF730
:1045000073FA0220019000208DF808000C208DF82D
:10451000090001208DF80A0001A8FDF7EBFB04203B
:10452000019001A8FDF7E6FB0820019001A8FDF726
:10453000E1FB4020019001A8FDF7DCFB07208DF88E
:10454000000001208DF8030002208DF801000020FA
:104550008DF802006846FDF752FB08208DF8000038
:1045600002208DF8010001208DF802006846FDF759
:1045700046FB09208DF8000002208DF801008DF81F
:1045800002006846FDF73BFB17208DF80000022073
:104590008DF8010003208DF802006846FDF72FFB1F
:1045A0000EBD08B507208DF8000000208DF803002F
:1045B00002208DF8010000208DF802006846FDF70A
:1045C0001EFB08208DF8000002208DF8010001205C
:1045D0008DF802006846FDF712FB09208DF80000F7
:1045E00002208DF801008DF802006846FDF707FBF8
:1045F00017208DF8000002208DF8010003208DF8AF
:104600000200684602E00000000C0240FDF7F7FAE5
:1046100008BD000010B52DED028BB0EE408AF0EE23
:10462000608A9FED590A38EE800ADFED580A20EEC5
:10463000200AF2EE020A80EE201A9FED550A31EEB2
:10464000000AF0EE408A9FED500A38EE000ADFEDD6
:10465000510A20EE200AF2EE020A80EE201A9FEDA7
:104660004C0A31EE000AB0EE408ABCEEE80A10EEC9
:10467000101A4948FEF78BFCBCEEC80A10EE101A5F
:104680004548FEF788FCBDEC028B10BD10B58AB022
:1046900001210420FDF762FE08A8FDF761FC03205C
:1046A0008DF8250002208DF824004020089000207D
:1046B0008DF8260001208DF8270008A93748FDF75E
:1046C00007FC032206213548FDF78DFC08A8FDF7FD
:1046D00047FC03208DF8250002208DF82400C0013E
:1046E000089000208DF8260001208DF8270008A9E9
:1046F0002A48FDF7EDFB032208212848FDF773FC4B
:1047000001210220FDF76EFE25480068400825497A
:10471000B0FBF1F080B2441E44F61F600690A0B2D8
:10472000ADF814000020ADF81C00ADF8160005A986
:104730001948FEF73EFA6020ADF800000120ADF800
:10474000020000200290ADF80C0069461248FEF706
:10475000C5FA69461048FEF747FB08210E48FEF7E8
:104760004AFC08210C48FEF75CFC01210A48FEF7D0
:104770008BFA01210848FEF796FE01210648FEF754
:10478000A1FA0AB010BD00000000B44200003E4390
:104790000000964400002F4300040140000802403E
:1047A0000000002040420F0010B58AB0012108200F
:1047B000FDF7D4FD08A8FDF7D3FB03208DF82500F5
:1047C00002208DF824008003089000208DF8260038
:1047D00001208DF8270008A9D048FDF779FB0222B7
:1047E0000F21CE48FDF7FFFB01210420FDF7E9FD75
:1047F00040F2473440F2E7300690ADF81440002014
:10480000ADF81C00ADF8160005A9C548FEF7D1F9B2
:104810006020ADF800000120ADF8020000200290F9
:10482000ADF80C006946BE48FEF744FB0821BC48C1
:10483000FEF700FC0121BA48FEF744FA0AB010BDA9
:1048400010B58AB001210820FDF788FD08A8FDF702
:1048500087FB03208DF8250002208DF824004003FB
:10486000089000208DF8260001208DF8270008A967
:10487000AA48FDF72DFB02220E21A848FDF7B3FB45
:1048800001210420FDF79DFD40F2473440F2E7305E
:104890000690ADF814400020ADF81C00ADF81600ED
:1048A00005A99F48FEF785F96020ADF800000120BA
:1048B000ADF8020000200290ADF80C00694698485F
:1048C000FEF792FA08219648FEF7ABFB01219448C7
:1048D000FEF7F8F90AB010BD10B58AB00121082022
:1048E000FDF73CFD08A8FDF73BFB03208DF82500F4
:1048F00002208DF824000003089000208DF8260087
:1049000001208DF8270008A98448FDF7E1FA02226A
:104910000D218248FDF767FB01210420FDF751FDC1
:1049200040F2473440F2E7300690ADF814400020E2
:10493000ADF81C00ADF8160005A97948FEF739F965
:104940006020ADF800000120ADF8020000200290C8
:10495000ADF80C0069467248FEF7F9F90821704875
:10496000FEF752FB01216E48FEF7ACF90AB010BD0C
:1049700010B58AB001210820FDF7F0FC08A8FDF76A
:10498000EFFA03208DF8250002208DF82400C002E4
:10499000089000208DF8260001208DF8270008A936
:1049A0005E48FDF795FA02220C215C48FDF71BFBDF
:1049B00001210420FDF705FD40F2473440F2E730C5
:1049C0000690ADF814400020ADF81C00ADF81600BC
:1049D00005A95348FEF7EDF86020ADF8000001206E
:1049E000ADF8020000200290ADF80C0069464C487A
:1049F000FEF774F908214A48FEF7FDFA01214848FC
:104A0000FEF760F90AB010BD10B50446642C06DC50
:104A100004EB840041004248FEF7BFFA04E040F294
:104A2000E7313F48FEF7B9FA10BD10B50446642CD3
:104A300006DC04EB840041003948FEF7ACFA04E0E0
:104A400040F2E7313648FEF7A6FA10BD10B504462D
:104A5000642C06DC04EB840041003148FEF799FA2F
:104A600004E040F2E7312E48FEF793FA10BD10B58E
:104A70000446642C06DC04EB840041002848FEF761
:104A800086FA04E040F2E7312548FEF780FA10BDCF
:104A900010B5FFF789FEFFF7D3FEFFF71DFFFFF705
:104AA00067FF10BD10B52DED028BB0EE408A9FED73
:104AB0001D0AF1EE000A00EE880ABCEEC00A10EEF4
:104AC000101AC8B2FFF7A0FF9FED160AF1EE000A18
:104AD00000EE880ABCEEC00A10EE101AC8B2FFF74A
:104AE000A4FF9FED100AF1EE000A00EE880ABCEE6A
:104AF000C00A10EE101AC8B2FFF7B9FF9FED090AFD
:104B0000F1EE000A00EE880ABCEEC00A10EE101AA0
:104B1000C8B2FFF79BFFBDEC028B10BD000C02403A
:104B2000000800400000A0432DE9FE4F81EA030485
:104B300004F0004421F0004100944FF0000B23F0FA
:104B4000004350EA010402D052EA030404D10020D9
:104B5000014603B0BDE8F08FC3F30A54C1F30A5510
:104B60002C44A4F2F3340194A0FB0254C1F31301CA
:104B700041F48011C3F3130343F4801301FB024497
:104B800000FB034E840A970A44EA815447EA83579C
:104B9000A4FB076802958D0A05FB07854FEA932C55
:104BA00004FB0C542705029D4FEA065847EA1637C6
:104BB000B5EB08056EEB070C870E920E47EA8117DE
:104BC00042EA8312A7FB0201B6EB0B0164EB00047F
:104BD0002B0D43EA0C335E1844EB1C50DA46514669
:104BE000E7FB0201C5F313044FEA0B3343EA145306
:104BF0004FEA0432019C43EA0603A4F10C04029438
:104C0000009CCDE900B400F029F9A2E72DE9F04DB0
:104C100081EA030404F0004B21F0004514464FF0F4
:104C2000000A23F0004150EA050220D054EA0102B4
:104C30001DD0C5F30A570246C5F31303C1F3130091
:104C4000C1F30A5640F4801543F48013A7EB06081D
:104C5000101BD64608F2FD3873EB050002D308F1AD
:104C6000010801E092185B41B8F1000F03DA00205F
:104C70000146BDE8F08D00204FF4801106468446C1
:104C80000EE0171B73EB050705D3121B63EB05033F
:104C900006434CEA010C49084FEA300092185B4188
:104CA00050EA0107EDD152EA030012D082EA040073
:104CB00083EA0501084303D100224FF0004308E0D6
:104CC000101BAB4102D20122002302E06FF001026F
:104CD00053101AEB06004CEB085110EB0A0041EBA5
:104CE0000B01BDE8F04D00F0ACB800F0004230F030
:104CF00000400AD0C10D01F56071C0F3160042EA10
:104D00000151C20840071143704700200146704717
:104D100001F0004330B421F0004150EA010206D016
:104D20000A0DA2F56072C1F31301002A02DC30BC47
:104D300000207047440F44EAC104C100E01830BCB1
:104D400000EBC25000F047B830B50B4601460020DA
:104D50002022012409E021FA02F59D4205D303FA3D
:104D600002F5491B04FA02F52844151EA2F10102BE
:104D7000F1DC30BD2DE9F05F0546002092469B46F0
:104D800088460646814640241BE028464146474661
:104D9000224600F0FAF953465A46C01A914110D300
:104DA00011461846224600F0E1F92D1A67EB01087A
:104DB0004F4622460120002100F0D8F917EB0009E8
:104DC0004E41201EA4F10104DFDC484631462A464C
:104DD0004346BDE8F09F0029A8BF7047401C49002A
:104DE00008BF20F00100704710B4B0FA80FC00FA50
:104DF0000CF050EA010404BF10BC704749B1CCF17B
:104E0000200421FA04F411FA0CF118BF0121214306
:104E10000843A3EB0C01CB1D0106000A002BBEBF0B
:104E2000002010BC704700EBC35010440029A4BF01
:104E300010BC7047401C490008BF20F0010010BCA6
:104E4000704710B5002B08DA401C41F100019218A0
:104E50005B411A4301D120F0010010BD2DE9F04D56
:104E600092469B4611B1B1FA81F202E0B0FA80F2AB
:104E70002032904600F07AF904460F4640EA0A00D4
:104E800041EA0B0153465A46084303D120463946AE
:104E9000BDE8F08D114653EA010015D0C8F140027B
:104EA000504600F072F905460E46504659464246B5
:104EB00000F05CF9084301D0012000E00020054328
:104EC00046EAE0762C4337430A984FEA4453A0EB76
:104ED00008004FEAD4240A304FF0000244EA475455
:104EE0004FEAD72502D500200146D1E70105101968
:104EF0006941DDE9084500196941BDE8F04DA0E7C9
:104F00002DE9FE4F804681EA0300C00F0C46009059
:104F100021F0004123F00045B8EB0200A94105D281
:104F20004046214690461C460B46024623F0004070
:104F3000104304D14046214603B0BDE8F08F270D51
:104F4000C7F30A00C3F30A510290401A01904028A7
:104F500066DAC3F3130040F4801B0098924620B138
:104F60000023D2EB030A63EB0B0B01985946C0F107
:104F70004002504600F0FAF806460D4650465946A3
:104F8000019A00F012F910EB08006141002487EA51
:104F9000115284EAE7731A433BD0009A3AB3019A5C
:104FA000012A4FEA075210DC001B61EB02014FF0AF
:104FB000004202EA0752CDE90042001C41F580118F
:104FC00032462B46FFF74AFFB6E7001B61EB0201B2
:104FD000001C41F5801300185B412018A2F5001752
:104FE00047EB030140EAD570B6196D4111E06D0839
:104FF0004FEA360645EAC0754FEA0752001B61EBDF
:105000000201001C41F5801149084FEA30000019E7
:10501000514132462B4603B0BDE8F04FFFF711BFB8
:105020000098012240000023D0EB020263EBE07302
:10503000009821464FEAE074B8EB000061EB0401F0
:10504000E9E783F000435BE781F0004158E72DE991
:10505000F04D00231A461B1A8A4103DB002001464B
:10506000BDE8F08DC1F30A52C1F3130141F480157C
:105070004FF0000BD10702D100186D41521E0027DE
:10508000044640F2FF11384601EB620A3E46804674
:10509000024600204FF4801100F077F8C2197141E8
:1050A000BB1846EB0100B4EB030C75EB000C04D30A
:1050B000E41A65EB000517460E46241908F10100B5
:1050C0006D4180463428E3DDF91946EB0600091BE3
:1050D000A84103D24FF0FF32134601E000221346ED
:1050E0001BEB070046EB0A51BDE8F04DFFF7A9BEE8
:1050F000C1F30A52C1F3130140F2FF3341F48011AE
:105100009A4202DA00200146704740F233439A4245
:10511000A2F2334202DC524200F037B800F026B867
:1051200030B5002904DB4FF00044404264EB01013C
:10513000002B04DB4FF00044524264EB030399421E
:1051400008BF904230BD0000064C074D06E0E06805
:1051500040F0010394E8070098471034AC42F6D3BE
:10516000FBF716F8A8720008C8720008202A04DBB2
:10517000203A00FA02F1002070479140C2F120036A
:1051800020FA03F3194390407047202A04DB203AA9
:1051900021FA02F00021704721FA02F3D040C2F157
:1051A00020029140084319467047202A06DBCB179E
:1051B000203A41FA02F043EAE07306E041FA02F3D2
:1051C000D040C2F1200291400843194670470000C8
:1051D000000000000FB4054B10B503A9044A029863
:1051E00000F02CF910BC5DF814FB00004B11000816
:1051F0004400002000B52DED048BB0EE408AF0EEA7
:10520000608A83B051EC180BFFF721FF41EC190BBA
:1052100019EE100A19EE901A8DED009B002818BFA8
:105220000120084320F00040C0F17F6000F1E04021
:10523000C00F14D018EE101A18EE900A8DED008BE6
:10524000002918BF0121084320F00040C0F17F6011
:1052500000F1E040C00F04BF012000F017F8B0EEED
:10526000490A03B0F0EE690ABDEC048B00BD02E010
:1052700008C8121F08C1002AFAD1704770470020E1
:1052800001E001C1121F002AFBD1704701490860EB
:1052900070470000880000202DE9FF5FDDE9022053
:1052A000010DDDF838B0024310D10F9801244CA253
:1052B000012808D0002100980F9BC0E90021C0E917
:1052C0000243BDE8FF9F6FEA0B01F4E7A1F2FF3153
:1052D00044F6105041430D140F9801280ED0A5EB51
:1052E0000B00401C4FF000043E4EDFF8FC90B0F184
:1052F000000AA04605DACAF1000717E0CBF100006A
:10530000F0E7074612E0F80707D02246334640464A
:105310004946FFF709FC8046894622463346104637
:105320001946FFF701FC04460E467F10002FEAD114
:10533000DDE90201BAF1000F42464B4602DAFFF7FF
:10534000F3FB01E0FFF762FC04460E460022274B08
:10535000FFF7E6FE03D84FF0FF30014607E00022DA
:10536000234B20463146FFF7CBFDFFF7C1FE10244B
:1053700009E0002C0ADB0A220023FFF7FBFC019B5B
:1053800030321A55641E50EA0102F2D1641C019AAF
:10539000C4F1110314440F9A012A09D001220843D1
:1053A00001D15B450FDD4FF0000205F101050DE075
:1053B000084303D1A3EB0B056D1E09E000204FF05D
:1053C000110B0F9088E701DA00226D1E002A83D0AE
:1053D00000980F99C0E90231C0E9004571E700006B
:1053E00030000000000024400000F03F0000F043C7
:1053F0000000E03F10B5002A06DA22F00042D21D7C
:1054000022F00703102203E0D21C22F003030C2237
:1054100013B19C188C4201D9012010BD02440144F3
:105420008360C0E90021C91AD018884202D81060F0
:105430000246F9E70020106010BD00002DE9FF4F83
:1054400095B09B4689460646002512E2252878D16C
:105450000024761CF94A2746012105943378203B25
:1054600001FA03F0104202D00443761CF6E73078CC
:105470002A2811D06FF02F033078A0F13002092ACA
:1054800016D8059A44F0020402EB820203EB4202B2
:105490001044761C0590EFE759F8042B0592002A7A
:1054A00003DA504244F40054059044F00204761CA0
:1054B00030782E2816D116F8010F44F004042A285B
:1054C0000DD06FF02F023078A0F13003092B09D8EE
:1054D00007EB870302EB4303C718761CF3E759F881
:1054E000047B761C30786C280FD006DC4C2817D053
:1054F00068280DD06A2814D104E0742810D07A28C6
:105500000FD10DE044F400140AE044F4801401E0EB
:1055100044F440147278824202D1761C04F580145F
:10552000761C307866280BD013DC582877D009DC3D
:10553000002875D04528F6D04628F4D047281AD13F
:105540009FE118E0632835D0642879D0652812D10E
:1055500097E1702873D008DC6728F1D069286FD0F4
:105560006E280DD06F2806D1B5E073282CD0752891
:1055700075D0782874D05A46179990476D1C76E1FB
:10558000C4F30250022809D003280DD0D9F8001026
:1055900004280DD00D6009F1040968E1D9F8001064
:1055A000EA17C1E90052F6E7D9F800100D80F2E7DA
:1055B0000D70F0E719F8041B8DF8001000208DF82D
:1055C0000100EA46012003E059F804AB4FF0FF3038
:1055D00061074FF0000102D40DE008F10101884697
:1055E000B9420FDA8045F8DB1AF808100029F4D127
:1055F00008E008F1010188468142FADB1AF8081038
:105600000029F6D105985B46A0EB080721463846ED
:10561000179A00F09EFA284400EB080507E04DE0D9
:105620002BE10DE01AF8010B5A4617999047B8F193
:105630000108F7D25B4621463846179A14E142E04A
:105640000A220092C4F302524FF0000A022A08D044
:1056500059F804CB032A4FEAEC710AD00DE029E097
:105660002AE009F1070121F00702F2E802C19146A0
:1056700009E00FFA8CFC4FEAEC71042A03D14FFACF
:105680008CFC4FEAEC71002907DA0A460021DCF1B4
:10569000000C61EB02012D2202E0220504D52B2231
:1056A0008DF80420012203E0E20701D02022F7E771
:1056B000904653E00A2102E010220DE010214FF045
:1056C000000A00910BE010224FF0000A44F004049D
:1056D0000827009203E008224FF0000A0092C4F36A
:1056E0000252022A05D059F804CB0021032A08D01F
:1056F00009E009F1070121F00702F2E802C1914631
:1057000005E01FFA8CFC042A01D10CF0FF0C4FF0CD
:105710000008220722D5702827D0009B83F01003B1
:1057200053EA0A0309D15CEA010206D030228DF85F
:1057300004208DF8050002229046009B83F00803A8
:1057400053EA0A030AD15CEA010201D1620705D5D6
:1057500030228DF804204FF001087F1E582809D010
:1057600037A003900EA8029013E040228DF8042089
:105770000122E1E737A0F4E753466046009AFFF7BD
:10578000F9FA84460398825C0298A0F10100029025
:1057900002705CEA0100EFD1029806A9A1EB0000BB
:1057A00000F1200A600702D524F4803400E00127CC
:1057B000574502DDA7EB0A0000E0002000EB0A01DC
:1057C000009005984144A0EB01000590E00306D449
:1057D0005B462146179A059800F0BBF9054400275F
:1057E00006E001A85A46C05D179990476D1C7F1CC2
:1057F0004745F6DBE0030CD55B462146179A059832
:1058000000F0A7F9054404E030205A461799904764
:105810006D1C0099481E00900029F5DC08E00298F4
:1058200002995A460078491C0291179990476D1CBD
:10583000BAF10001AAF1010AF1DC6BE109280100CB
:1058400030313233343536373839616263646566F6
:1058500000000000303132333435363738394142B8
:10586000434445460000000000F060F9054406F19D
:105870000106307800287FF4E9AD19B02846BDE86C
:10588000F08F620700D4062709F1070222F0070C07
:10589000FCE80223E14603F000485FEA080C02D06E
:1058A0000FF27C2C0DE05FEA045C02D50FF2742C41
:1058B00007E05FEAC47C02D00FF26C2C01E0AFF28B
:1058C000700C4FF0FF3823F00043CDF850C065282E
:1058D0000CD006DC452809D046281DD047283ED1EB
:1058E0003EE0662818D0672839D139E00021112F11
:1058F00001DB112000E0781CCDE9000106A90EA80B
:10590000FFF7CAFCDDE90F010E9A03910021009216
:1059100007F1010A04914EE04FF000400097CDE9F5
:10592000011006A90EA8FFF7B7FCDDE90F020392EC
:105930000E9B11990022DDF80CA00093049219B976
:1059400007F1010100EB010AB7EB0A0004D4C0F132
:10595000FF3007F1010A0490AAEB0700019046E02E
:10596000012F00DA01270021112F01DD112000E0B5
:105970003846CDE9000106A90EA8FFF78DFCDDE948
:105980000F010E9A0391002104910092BA4621075B
:105990000CD40399514500DA8A46BAF1010F05DDAE
:1059A000009AAAF10101515C302908D0B84202DA0C
:1059B00010F1040F06DA0121CDE9011017E0AAF178
:1059C0000101E9E7002805DC049901440491AAEBF0
:1059D000000102E0411C514500DD8A460499A0EB1C
:1059E000010000F1010001904FF0004002902007FB
:1059F00004D40198504501DBCDF8048000208DF8D7
:105A00004F0002980DF14F07B0F1004F25D02B2029
:105A10000E9002984FF0020800280CDA40420290E3
:105A20002D200E9007E00A210298FFF78DF9303102
:105A3000029007F8011DB8F10001A8F10108F2DC9D
:105A400002980028EFD1791E0E980870307800F087
:105A5000200040F0450007F8020D12A8A0EB070057
:105A600000F107081498007800B1012000EB0A014A
:105A7000019801EBE07105984144A0EB0100A0F111
:105A800001000590E00306D45B462146179A05986D
:105A900000F05FF805441498007820B15A46179931
:105AA000904705F10105E00323D55B462146179A8F
:105AB000059800F04EF805441BE00498002807DB29
:105AC000DDE90301884203DD0098405C179901E09D
:105AD000179930205A46904704986D1C401C04903A
